:020000042001D9
:100000009711FF5F9381012A97020000938282017A
:100010007390523093021000638402007350107C7E
:100020009702000093824211739052301301000036
:1000300063140100138101CE732540F18142130343
:100040000040137101FF6385A2001A918502D5BF9C
:10005000970000009380C00763830000829073259F
:1000600040F181450146ED209300000063830000CC
:100070008290970200009382C20073905230032353
:100080000000F5BF000000008280A14673B3063077
:10009000914263C555001376350011CA230005004F
:1000A0000505FD15E347B0FE731003308280232061
:1000B00005001105F115E34EB0FC7310033082808A
:1000C000232003001103E34D73FE82800684970210
:1000D000FFDF938222F3638C02049702FFDF938297
:1000E00062F2F32740F1A14673B006300A8397030A
:1000F000FFDF938323318A9363037300D1376398BF
:1001000057021703FF5F1303E3EF9713FF5F938318
:10011000E39B630373006D371703FFE7130383EE5D
:100120009703FFE7938303EE63037300513FA280BD
:1001300082800000F322203473231034F323303400
:10014000D5BF411122C6000801003244410182801E
:1001500006849711FF5F9381E114930200006311FD
:10016000550E97820000938262251703FF5F1303E9
:1001700063E99713FF5F93836395638C6200635A0F
:10018000730003A5020091022320A3001103E34A98
:1001900073FE971200009382E20C1703FFE713032C
:1001A00063E69703FFE79383E3E5638C6200635A9A
:1001B000730003A5020091022320A3001103E34A68
:1001C00073FE0F100000971200009382A20917031C
:1001D000FF5F130323E39703FF5F9383A3E2638C23
:1001E0006200635A730003A5020091022320A3005A
:1001F0001103E34A73FE0F1000001713FF5F130390
:10020000E38C9383018E6357730023200300110353
:10021000E34D73FE1712FF5F1302428B11C2029669
:1002200017850000130545E6EF701062EF70F06867
:100230001785000013052513EF701061EF80001182
:100240000937FD5673B0463073B04634F32710308B
:10025000372704007D8F09C773B0363073B026305E
:10026000370704007D8F19C373B006184167130761
:100270008702F98F89CBF32700300967D98F7390F4
:10028000073073503000F327103037072000F98F04
:1002900099C7F327003093E707207390073005458F
:1002A00097150000938545F817160000130606F809
:1002B0003120EF70B05AA28082808280411106C244
:1002C000F32240F1130300006385620073005010B5
:0C02D000F5BFEF108004924041018280D5
:0C02E000EC020120180301204203012061
:1002EC00011106CE22CC0010EF5010632326A4FE81
:1002FC008327C4FE99C7B7170080138507A9EF5051
:10030C00706A0100F240624405618280011106CEE0
:10031C0022CC0010EF5050602326A4FE8325C4FE8F
:10032C00B7170080138507A9EF7040720100F240E7
:10033C00624405618280411106C622C40008F1673F
:10034C0093850720B7170080138587A3EF7070196A
:0A035C000100B240224441018280FA
:1003680000100F0000110F0000120F000013010110
:1003780000140100001501020016010300170F0008
:100388000000000000010001000200020003000359
:1003980000040F0000050F0000080F0000090F00FF
:1003A800000A0200000B0201000C0202000D020309
:1003B800435055206E756C6C2E000000435055203C
:1003C800696E7465727275707420636F6E74726F83
:1003D8006C6C6572206973206E756C6C2E00000061
:1003E80054494D455220696E746572727570742057
:1003F800636F6E74726F6C6C657220697320206E07
:10040800756C6C2E0000000054494D455220696EF1
:10041800746572727570742068616E646C657220A0
:10042800726567697374726174696F6E2066616959
:100438006C65640043505520696E746572727570FE
:100448007420656E61626C65206661696C65640024
:1004580044697374616E63653A2025780A00000068
:10046800F168E388B5F8E43E000000000000304081
:100478007B14AE47E17A843F0000000000000000D2
:100488000000000000000000000000000000000064
:100498000000000000000000000000000000000054
:1004A8000000000000000000000000000000000044
:1004B8000000000000000000000000000000000034
:1004C8000000000000000000000000000000000024
:1004D8000000000000000000232D302B2000000049
:1004E800686C4C006566674546470000303132331A
:1004F8003435363738394142434445460000000018
:100508003031323334353637383961626364656681
:1005180000000000A0220000B622000076220000A1
:10052800762200007622000076220000B622000023
:100538007622000076220000762200007622000053
:100548000C240000F4220000DE23000076220000C4
:10055800762200003C24000076220000F4220000ED
:100568007622000076220000E6230000FE28000024
:10057800B029000008290000B0290000A2290000C5
:10058800B029000008290000FE280000FE2800000D
:10059800A229000008290000E4280000E42800003F
:1005A800E42800000C290000FC2C0000FC2C0000B2
:1005B800142D0000F62C0000F62C0000A22D0000DF
:1005C800142D0000F62C0000A22D0000F62C0000CF
:1005D800142D0000F42C0000F42C0000F42C000072
:1005E800A22D000000010202030303030404040413
:1005F80004040404050505050505050505050505A7
:100608000505050506060606060606060606060686
:100618000606060606060606060606060606060672
:100628000606060607070707070707070707070756
:100638000707070707070707070707070707070742
:100648000707070707070707070707070707070732
:100658000707070707070707070707070707070722
:100668000707070708080808080808080808080806
:1006780008080808080808080808080808080808F2
:1006880008080808080808080808080808080808E2
:1006980008080808080808080808080808080808D2
:1006A80008080808080808080808080808080808C2
:1006B80008080808080808080808080808080808B2
:1006C80008080808080808080808080808080808A2
:1006D8000808080808080808080808080808080892
:1006E80008080808983601203E38012022380120E1
:1006F80000000000000000003E3B0120723B01208A
:1007080020370120FA370120963801204839012086
:1007180000000000000000000000000000000000D1
:1007280000000000000000000000000000000000C1
:10073800FE390120CC350120000000000000000037
:1007480000000000000000007E4D0120E44D012063
:10075800E44D0120904D0120E44D0120E44D01209D
:10076800E44D0120A24D0120E44D0120E44D01207B
:10077800E44D0120B44D0120E44D0120E44D012059
:10078800E44D0120E44D0120C64D0120C64D012055
:10079800C64D0120C64D0120C64D0120C64D012081
:1007A800C64D0120C64D0120C64D0120C64D012071
:1007B800C64D0120C64D0120C64D0120C64D012061
:1007C800C64D0120C64D0120464E01207E51012014
:1007D800625101200000000000000000000000003D
:1007E80000000000284F0120000000000A510120ED
:1007F8003651012000000000000000000000000049
:1008080000000000000000000000000000000000E0
:1008180000000000D251012000000000000000008C
:10082800000000000000000000000000EE51012060
:100838005E520120A45201200A5301208053012056
:100848009A530120AE530120C8530120DC530120E4
:100858003E540120A05401200055012020550120BC
:100868006655012094550120B2550120D25501202A
:10087800CE59012000000000000000000000000028
:10088800000000000000000000000000265B0120BE
:1008980000000000E85B0120385C01200000000037
:1008A80000000000B85C0120885C01203A58012053
:1008B800D8570120000000000000000000000000E0
:1008C80000000000E05C01207C5D0120185E012032
:1008D8008C5E01200100000020000000001BB70012
:1008E80000366E01010000001F0000000300000038
:1008F8003F000000010000002000000000366E01EB
:10090800006CDC02030000001F0000000200000071
:100918003F0000000100000010000000808D5B0017
:10092800001BB700000000001F00000003000000CB
:100938003F0000000100000010000000001BB7008D
:1009480000366E01010000001F00000002000000D8
:100958003F000000010000001000000000366E019A
:10096800006CDC02030000001F0000000200000011
:100978001F0000000100000008000000808D5B00DF
:10098800001BB700000000001F000000030000006B
:100998001F0000000100000008000000001BB70055
:1009A80000366E01010000001F0000000200000078
:1009B8001F000000010000000800000000366E0162
:1009C800006CDC02030000001F00000002000000B1
:1009D8000F0000000100000004000000808D5B0093
:1009E800001BB700000000001F000000030000000B
:1009F8000F0000000100000004000000001BB70009
:100A080000366E01010000001F0000000200000017
:100A18000F000000010000000400000000366E0115
:100A2800006CDC02030000001F0000000200000050
:100A3800070000000100000002000000808D5B003C
:100A4800001BB700000000001F00000002000000AB
:100A58000F0000000100000002000000001BB700AA
:100A680000366E01010000001F00000001000000B8
:100A78000F000000010000000200000000366E01B7
:100A8800006CDC02030000001F00000001000000F1
:100A9800070000000200000001000000808D5B00DC
:100AA800001BB700000000001F000000010000004C
:100AB800070000000200000001000000001BB70052
:100AC80000366E01010000001F0000000100000058
:100AD80003000000020000000100000000366E0163
:100AE800006CDC02030000001F000000030000008F
:100AF800FFFFFFFF0400000001000000808D5B0085
:100B0800001BB700000000001F00000003000000E9
:100B1800000000000400000001000000001BB700F6
:100B280000366E01010000001F00000003000000F5
:100B3800FFFFFFFF040000000100000000366E0107
:100B4800006CDC02030000001F000000020000002F
:100B5800FFFFFFFF0600000001000000808D5B0022
:100B6800AAC2A2000000000023000000010000004B
:100B7800020000000600000001000000AAC2A20056
:100B8800001BB70000000000170000000300000071
:100B9800FFFFFFFF0600000001000000001BB70078
:100BA8000024F400010000002F00000003000000F2
:100BB800FFFFFFFF06000000010000000024F40012
:100BC80080A81201010000001700000002000000C8
:100BD800FFFFFFFF060000000100000080A81201CF
:100BE80055854501020000002300000002000000B6
:100BF800FFFFFFFF0800000001000000808D5B0080
:100C0800001BB700000000001F00000003000000E8
:100C1800FFFFFFFF0800000001000000001BB700F5
:100C280000366E01010000001F00000002000000F5
:100C3800FFFFFFFF080000000100000000366E0102
:100C4800006CDC02030000001F000000010000002F
:100C5800FFFFFFFF0A00000001000000808D5B001D
:100C6800007C920000000000270000000300000044
:100C7800FFFFFFFF0A00000001000000007C920057
:100C8800001BB70000000000130000000200000075
:100C9800FFFFFFFF0A00000001000000001BB70073
:100CA80000F82401010000002700000002000000F5
:100CB800FFFFFFFF0A0000000100000000F8240108
:100CC80000366E0101000000130000000100000062
:100CD800FFFFFFFF0A0000000100000000366E0160
:100CE80000F0490203000000270000000100000096
:100CF800FFFFFFFF0C00000001000000808D5B007B
:100D080000127A00000000002F000000030000001D
:100D1800FFFFFFFF0C0000000100000000127A0036
:100D2800001BB700000000001700000002000000D0
:100D3800FFFFFFFF0C00000001000000001BB700D0
:100D48000024F400010000002F0000000200000051
:100D5800FFFFFFFF0C000000010000000024F4006A
:100D680000366E01010000001700000001000000BD
:100D7800FFFFFFFF0C0000000100000000366E01BD
:100D880080C3C901030000002F000000010000001B
:100D9800FFFFFFFF0C0000000100000080C3C90135
:100DA8000048E801030000002F00000001000000D7
:100DB800FFFFFFFF0E00000001000000808D5B00B8
:100DC800B6A1680000000000370000000300000022
:100DD800FFFFFFFF0E00000001000000B7A1680040
:100DE800001BB700000000001B000000020000000C
:100DF800FFFFFFFF0E00000001000000001BB7000E
:100E08006D43D1000100000037000000020000001F
:100E1800FFFFFFFF0E000000010000006E43D1003D
:100E280000366E01010000001B00000001000000F8
:100E3800FFFFFFFF0E0000000100000000366E01FA
:100E4800DB86A2010300000037000000010000005B
:100E5800FFFFFFFF1000000001000000808D5B0015
:100E6800001BB700000000001F0000000200000087
:100E7800FFFFFFFF1000000001000000001BB7008B
:100E880000366E01010000001F0000000100000094
:100E9800FFFFFFFF1200000001000000808D5B00D3
:100EA800AAC2A20000000000230000000200000007
:100EB800FFFFFFFF1200000001000000ABC2A2000C
:100EC800001BB70000000000110000000100000036
:100ED800FFFFFFFF1200000001000000001BB70029
:100EE80055854501010000002300000001000000B5
:100EF800FFFFFFFF1400000001000000808D5B0071
:100F0800007C9200000000002700000002000000A2
:100F1800FFFFFFFF1400000001000000007C9200AA
:100F2800001BB700000000001300000001000000D3
:100F3800FFFFFFFF1400000001000000001BB700C6
:100F480000F8240101000000270000000100000053
:100F5800FFFFFFFF1600000001000000808D5B000E
:100F6800E82A8500000000002B00000002000000B5
:100F7800FFFFFFFF1600000001000000E92A8500BE
:100F8800001BB70000000000150000000100000071
:100F9800FFFFFFFF1600000001000000001BB70064
:100FA800D1550A01010000002B00000001000000DB
:100FB800FFFFFFFF1800000001000000808D5B00AC
:100FC80000127A00000000002F000000020000005C
:100FD800FFFFFFFF180000000100000000127A0068
:100FE800001BB7000000000017000000010000000F
:100FF800FFFFFFFF1800000001000000001BB70002
:101008000024F400010000002F000000010000008F
:10101800FFFFFFFF1A00000001000000808D5B0049
:1010280027AE70000000000033000000020000003E
:10103800FFFFFFFF1A0000000100000028AE70004B
:10104800001BB700000000001900000001000000AC
:10105800FFFFFFFF1A00000001000000001BB7009F
:101068006658E100010000003300000001000000A4
:10107800FFFFFFFF1C00000001000000808D5B00E7
:10108800B6A1680000000000370000000200000060
:10109800FFFFFFFF1C00000001000000B7A168006F
:1010A800001BB700000000001B000000010000004A
:1010B800FFFFFFFF1C00000001000000001BB7003D
:1010C8006D43D1000100000037000000010000005E
:1010D800FFFFFFFF1E00000001000000808D5B0085
:1010E80000A86100000000003B00000002000000B2
:1010F800FFFFFFFF1E0000000100000000A86100C4
:10110800001BB700000000001D00000001000000E7
:10111800FFFFFFFF1E00000001000000001BB700DA
:101128000050C300010000003B0000000100000067
:10113800FFFFFFFF2000000001000000808D5B0022
:10114800001BB700000000001F00000001000000A5
:10115800FFFFFFFFB06101205462012020660120DB
:10116800C26E0120406F0120586F0120746F01206A
:10117800C26F0120A66F0120DE6F012014700120CC
:1011880002720120C8700120E0700120FC7001206B
:101198004A7101202E710120667101209C71012085
:1011A800EC6B0120AC6B0120326C01205C6C0120DF
:1011B800886C0120CE6C01200E6D01204E6D01203F
:1011C800946D0120D46D0120366E0120806E0120BF
:1011D800867001200E7201202E720120CC78012029
:1011E8006C76012048750120AE7601200477012035
:1011F80024770120247401204474012064740120A0
:101208009E740120D6740120107501207875012084
:10121800C2750120F27501203C7601202C120120B4
:10122800000000006C6962676C6F73730000000057
:10123800000000800E5F0120925F01200E600120F7
:101248008260012098670120C6670120707E012016
:04125800907E012063
:10128000011106CE22CC00102326A4FE2324B4FE96
:1012900003A7018D83A7C18DBE853A85EF607021BC
:1012A000054723ACE18C0100F24062440561828075
:1012B000411106C622C426C2000823AC018C83A4B7
:1012C000C18C83A7C18C3E85EF6010042A86AE8650
:1012D000216581453307A6003A883338C800B387B3
:1012E000B600B306F800B687BA853E862685EF605D
:1012F000500403A7018D83A7C18DBE853A85EF6099
:101300007018010083A7818DF5DF23AC018C0100EB
:10131000B2402244924441018280397106DE22DCCF
:101320008000EF60700EAA873E85EF60100B2A8761
:1013300023A6E18C83A7C18C81EBB707012013851D
:10134000873B9123894739A983A7C18C3E85EF60EC
:1013500070062A8723AAE18C83A7418D81EBB7070A
:1013600001201385473C05238D47EDAE83A7418DB2
:101370003E85EF60100B83A7C18C3E85EF60C07E79
:101380002A8723A8E18C83A7018D81EBB707012071
:101390001385873ECD299147F1A683A7018D3E8510
:1013A000EF60300883A7C18C3E85EF60407E2A87BE
:1013B00023AEE18C03A7018D83A5C18D83A7C18CCA
:1013C000BE86B7170120138607283A85EF60B0075D
:1013D0002326A4FE8327C4FE63DC0700B707012091
:1013E000138507414D218327C4FEB307F0409DAE0E
:1013F00083A7418D81453E85EF60D0082A87FD5740
:101400006319F700B70701201385C743AD29994732
:1014100091AE9D472324F4FE99472322F4FEB7277B
:10142000F400938707402320F4FEB70701201387B9
:101430008736832784FE8A07BA9783C71700232E2F
:10144000F4FCB707012013878736832744FE8A07F9
:10145000BA9783C71700232CF4FCB7270110910714
:101460009843832784FD8546B397F60093C7F7FF1B
:10147000BE86B72701109107758F98C3B727011053
:10148000A1079843832784FD8546B397F600BE865F
:10149000B7270110A107558F98C3B7270110C107BF
:1014A0009843832784FD8546B397F60093C7F7FFDB
:1014B000BE86B7270110C107758F98C3B7270110E3
:1014C000938787039843832784FD8546B397F60067
:1014D000BE86B727011093878703558F98C3B72718
:1014E00001109387C7039843832784FD8546B397EC
:1014F000F600BE86B72701109387C703558F98C3A0
:10150000B7270110938707049843832784FD8546F6
:10151000B397F600BE86B727011093870704558F4F
:1015200098C3B7270110910798438327C4FD8546C8
:10153000B397F600BE86B72701109107558F98C361
:10154000B7270110A10798438327C4FD8546B397A9
:10155000F60093C7F7FFBE86B7270110A107758F66
:1015600098C3B7270110C10798438327C4FD854658
:10157000B397F60093C7F7FFBE86B7270110C107E0
:10158000758F98C3B72701109387870398438327E4
:10159000C4FD8546B397F60093C7F7FFBE86B7270D
:1015A000011093878703758F98C3B727011093871E
:1015B000C70398438327C4FD8546B397F60093C7B6
:1015C000F7FFBE86B72701109387C703758F98C3AF
:1015D000B72701109387070498438327C4FD8546E6
:1015E000B397F600BE86B727011093870704558F7F
:1015F00098C3B7270110E10798438327C4FD8546A8
:10160000B397F600BE86B7270110E107558F98C340
:101610009147A30BF4FC032504FEEF10905B2A878F
:10162000AE87B706012003A6864683A6C6463A853E
:10163000BE85EF1070102A87AE873A85BE85B70742
:10164000012003A6074783A64747EF10E03A2A8701
:10165000AE873A85BE85EF10D051AA872328F4FCC7
:10166000032504FEEF10F0562A87AE87B706012047
:1016700003A6864783A6C6473A85BE85EF10D00BE2
:101680002A87AE873A85BE85B707012003A607479C
:1016900083A64747EF1040362A87AE873A85BE8536
:1016A000EF10304DAA872326F4FCB757021023A071
:1016B0000700B7570210A10723A00700B757021071
:1016C000938707020327C4FC98C3B7570210938778
:1016D000C702032704FD98C3034774FD85679387FA
:1016E00007205D8FB757021098C3B7570210C10784
:1016F0009C432315F4FC0100B7270110F1079C431C
:101700000327C4FD85463397E600F98FF5D7B75711
:101710000210C1079C432314F4FC035784FC835735
:10172000A4FCB307F7402315F4FCB757021023A01D
:101730000700B7270110F10798438327C4FD8546AA
:10174000B397F600BE86B7270110F107558F98C3EF
:101750008357A4FCBE85B707012013858745012860
:10176000813EA1B73E85F2506254216182805D7155
:1017700022D406D62A842EDA32DC36DEBAC0BEC2C5
:10178000C2C4C6C617F5FE5F0325053211C51C4D40
:1017900081E72AC6252332450C455418228636CEC9
:1017A000EF003021B250225461618280011126CABB
:1017B0004AC806CE22CC4EC652C4AA842E8901C580
:1017C0001C4D91E3E5299C4C804499E32685FD213D
:1017D00097F7FFFF938707CD631CF402C040835740
:1017E000C400A18BB1C71C48A1C7FD59294A1C449C
:1017F00083450900FD17B1E91CC463DE0706228694
:10180000A94526857920FD576308F502294535A0AD
:1018100097F7FFFF938707CB6314F4008044C1B7A9
:1018200097F7FFFF938707C6E31BF4FAC04445BF51
:10183000A2852685392A55D97D55F2406244D24485
:101840004249B249224A056182801CC4050963D716
:101850000700184C63CBE700638945011C401387E0
:10186000170018C02380B70059B722862685152097
:10187000E31F35F7D1B71C401387170018C029475D
:101880002380E70061B7AA8517F5FE5F0325C52110
:1018900031BF011122CC26CA4AC806CE4EC6AA8440
:1018A0002E89328401C51C4D91E3092997F7FFFF6A
:1018B000938747BF6319F406C0401C4C1CC4835770
:1018C000C400A18BC9C31C48BDCF1C4808409379F4
:1018D000F90F1379F90F1D8D5C486346F500A28559
:1018E0002685C1242DE51C440505FD171CC41C409C
:1018F0001387170018C0238037015C486389A7004D
:101900008357C400858B81CBA9476316F900A28554
:101910002685412C0DEDF2406244D244B2494A85FD
:1019200042490561828097F7FFFF9387A7B9631447
:10193000F400804459B797F7FFFF9387A7B4E31EDD
:10194000F4F6C0449DBFA285268521203DDD7D594A
:10195000D9B7411122C426C24AC006C697F4FE5F19
:1019600083A484142A892E8489C49C4C99E32685F7
:10197000B12697F7FFFF9387E7B26317F402C040E1
:101980008317C4001397070193F687004183ADEADC
:101990009376070195EA25472320E90093E707049A
:1019A0002316F4007D5571A897F7FFFF938787B141
:1019B0006314F4008044E9B797F7FFFF938787AC7F
:1019C000E310F4FCC0446DBF118B0DC74C5889C99E
:1019D000930744046384F5004A85CD2B232A04022F
:1019E0008357C4002322040093F7B7FD2316F400A5
:1019F0001C481CC08357C40093E787002316F400DB
:101A00001C4881EF8357C4001307002093F7072871
:101A10006385E700A2854A8585298317C40013974B
:101A2000070193F6170041839DC254482324040004
:101A3000B306D04014CC1448014581E6137707085B
:101A400031FFB240224492440249410182809376A0
:101A50002700014691E2504810C4F1BF83D7C5006A
:101A6000011122CC26CA06CE4AC84EC613F78700FB
:101A7000AA842E8475E3D8416347E000B8416344EB
:101A8000E000014575A858546DDF856603A9040080
:101A9000F58F23A00400A5CF68488357C400918B1D
:101AA00099C75C401D8D5C5899C33C401D8D5C54AA
:101AB0000C502A86814626858297FD570357C4001D
:101AC000631DF5009440F54763E3D708B70740204E
:101AD0008507B3D7D700858BBDCB1C4823220400D4
:101AE0001CC085677D8F19C7FD576314F5009C40A6
:101AF00091E368C84C5823A02401C1D5930744043E
:101B00006384F5002685D921232A04029DBF0C5049
:101B10008546014626850297FD57E310F5F89C405F
:101B2000ADDF75476385E70059476395E70023A05C
:101B3000240181BF8357C40093E707042316F400F0
:101B4000F2406244D2444249B2490561828013673F
:101B500007042316E400EDB783A90501E38309F226
:101B600003A905008D8B23A03501330939410147B5
:101B700091E3D84918C4E35620F11C540C50CA868E
:101B80004E8626858297634AA0008357C4007D5500
:101B900093E707042316F40065B7AA993309A9400F
:101BA000D9BF9C49B9CF011122CC06CE2A8411C5D8
:101BB0001C4D81E72EC61922B24597F7FFFF938788
:101BC000678E639BF5004C408397C50095C72285BF
:101BD0006244F240056159B597F7FFFF9387878EFE
:101BE0006394F5000C44CDB797F7FFFF938787897F
:101BF000E39CF5FC4C44C9BFF240624401450561D9
:101C0000828001458280411122C406C62A8423169F
:101C1000B5002317C5002320050023220500232437
:101C200005002322050623280500232A0500232C6E
:101C30000500214681451305C505ED2497170000D1
:101C40009387A7835CD097170000938707861CD4DF
:101C5000971700009387478A5CD4971700009387F3
:101C6000078DB24000D01CD82244410182809705E4
:101C70000000938545F3B1A2411126C213068006E8
:101C80009384F5FFB384C4024AC02E8922C406C6D9
:101C900093854407E92E2A8419C9232005002322AD
:101CA0002501310508C4138684068145A52CB24060
:101CB0002285224492440249410182801C4DBDE3A9
:101CC000411122C406C697070000938787FA1CD5E6
:101CD00023240504232605042328050497F7FFFF82
:101CE00083A7C7552A846314F50085471CCD228538
:101CF0001D2848C02285052808C422852D2048C4F7
:101D0000484001469145013708440546A545E53D53
:101D100048440946C945C53D8547B2401CCC2244CC
:101D2000410182808280411126C297F4FFFF83A483
:101D3000E4509C4C4AC006C622C42A8999E32685F1
:101D4000B53F938484048044DC40FD1763D60700CC
:101D50009C40B1CF8440C5BF0317C40031E7C177B1
:101D600085072322040623200400232204002324C1
:101D700004005CC423280400232A0400232C04004C
:101D8000214681451305C405712A232A0402232C08
:101D900004022324040423260404B240228522449E
:101DA00092440249410182801304840679BF91451F
:101DB0004A85D93588C02A8451FDB1472320F900CE
:101DC000E9BF797122D44AD04ECE52CC5AC85EC6F1
:101DD00006D626D256CA2A892E8A1304850481493A
:101DE000054BFD5B0444832A4400FD1A63D00A02BC
:101DF00000406DF8B250225492540259624AD24ABD
:101E0000424BB24B4E85F2494561828083D7C40074
:101E1000637BFB008397E40063877701A6854A858F
:101E2000029AB3E9A90093848406C1B75971CAD054
:101E30002E898395E500A2D4A6D286D63284B684B4
:101E400063DC05008317C90023A0040093F707088B
:101E500095E3930700400DA03000EF00A073E3432B
:101E600005FE3247BD67F98F7977BA9793B71700A8
:101E70009CC0C5B793070004B6501CC026549654A6
:101E8000065901456561828083D7C500011122CCC6
:101E900006CE26CA4AC8898B2E8489CF930774043C
:101EA0001CC01CC885475CC8F2406244D244424909
:101EB00005618280740030002A898D3FA245AA8482
:101EC0004A85752201ED8317C40013F7072069FFC7
:101ED000F19B93E727002316F400C9B7970700008A
:101EE000938727D92324F9028357C40008C008C860
:101EF00093E707082316F400A2475CC8B24789CFCE
:101F00008315E4004A85C12501C98357C400F19BAC
:101F100093E717002316F4000355C400C98C231659
:101F2000940059B73D432A876373C3029377F70040
:101F3000BDEFADE5937606FF3D8ABA960CC34CC360
:101F40000CC74CC74107E36BD7FE11E28280B30692
:101F5000C3408A069702000096966780A600230772
:101F6000B700A306B7002306B700A305B7002305F3
:101F7000B700A304B7002304B700A303B7002303EB
:101F8000B700A302B7002302B700A301B7002301E3
:101F9000B700A300B7002300B700828093F5F50FC8
:101FA00093968500D58D93960501D58D61B793964F
:101FB00027009702000096968682E78086FA968030
:101FC000C1171D8F3E96E374C3F8A5B7C5C183A79B
:101FD000C5FF011122CC06CE1384C5FF63D30700D1
:101FE0003E942AC6852517F7FE5F130727AE1C43CC
:101FF000324581EB2322040000C36244F2400561B4
:1020000099A5637DF4001040B306C4006396D70021
:102010009443DC43B29614C05CC0F9BF3E87DC43F6
:1020200099C3E37DF4FE14433306D700631F860093
:102030001040B29614C33306D700E390C7FC904318
:10204000DC43B29614C35CC34DBF6375C400B14793
:102050001CC165B71040B306C4006396D700944313
:10206000DC43B29614C05CC040C341BF8280011102
:1020700026CA93843500F1984AC806CE22CC4EC6B3
:10208000A104B1472A8963F4F404B14463E3B404BE
:102090004A854D2B97F6FE5F938646A398423A8475
:1020A00021E417F4FE5F1304A4A21C4089E78145D4
:1020B0004A85512E08C0A6854A857126FD596318A8
:1020C0003507B1472320F9004A85B52B31A0E3DF5E
:1020D00004FAB1472320F9000145F2406244D2449A
:1020E0004249B249056182801C40858F63CE070258
:1020F0002D466376F6001CC03E9404C029A05C40C7
:10210000631287029CC24A853D2B1305B4009307D6
:10211000440061993307F540E301F5FC3A94898F57
:102120001CC065BF5CC3C5B72287404095BF130480
:1021300035007198E30385FCB305A4404A85212648
:10214000E31D35FBBDBF1C46FD171CC663DA070047
:10215000184E63C5E700A9476394F5006FF06FF36D
:102160001C422E851387170018C22380B700828077
:10217000011122CC26CA4AC84EC652C406CE2A89AC
:10218000AE893284B304D6007D5A631494000145AD
:1021900009A8834504004E864A8575370504E31671
:1021A00045FFF2406244D2444249B249224A0561A5
:1021B0008280357122CD26CB4AC94EC706CF52C583
:1021C00056C35AC1DEDEE2DCE6DAAA89AE84328981
:1021D000368401C51C4D91E3D53497E7FFFF938703
:1021E000672C639BF40C83A4490083D7C400A18BA4
:1021F000F5C79C48E5C793070002A304F1029307C3
:10220000000302D22305F10222C6930B500297EA83
:10221000FFFF938A2A2D054C294B4A8483470400EB
:1022200099C36390770FB30C2441630D2401E686B4
:102230004A86A6854E852D3FFD576304F51E9257AD
:10224000E6973ED283470400638D071CFD571309B0
:10225000140002C802CE3ECA02CCA309010482D4F3
:102260008345090015465685C926C247130419003F
:1022700059E913F7070109C713070002A309E1048D
:1022800013F7870009C71307B002A309E1048346C7
:1022900009001307A0026380E608F2474A848146DA
:1022A00025460347040093051400130707FD6379CF
:1022B000E60AB5CA3ECE85A897E7FFFF9387872039
:1022C0006395F40083A489000DB797E7FFFF938718
:1022D000671BE39CF4F083A4C90001BFA6854E856B
:1022E000EFF02FE709D97D55FA406A44DA444A49AC
:1022F000BA492A4A9A4A0A4BF65B665CD65C0D617B
:102300008280050421BF330555413315AC00C98FC8
:102310003EC82289B1B7324793064700184336C6F4
:10232000634907023ACE034704009307E002631FA4
:10233000F704034714009307A002631BF702B24798
:102340000904138747009C433AC663C107023ECA8B
:1023500035A83307E04093E727003ACE3EC8E1B7FF
:10236000B38767032E848546BA9725BFFD57C5B747
:10237000050402CA814681472546034704009305A8
:102380001400130707FD6374E606F1F283450400A9
:102390000D4617E5FFFF13056515412C11CD97E795
:1023A000FFFF9387A7141D8D93070004B397A70021
:1023B000424505045D8D2AC883450400194617E58A
:1023C000FFFF1305E512130914002304B102B12C19
:1023D0002DC19307000095E74247B24713770710D6
:1023E00009CF91073EC69257D2973ED23DB5B387EB
:1023F00067032E848546BA9749B79D07E19BA107DD
:10240000D5B77800970600009386C6D626860C08B6
:102410004E8597000000E7000000FD572A8AE3146C
:10242000F5FC83D7C40093F70704E39E07EA12552F
:1024300065BD7800970600009386C6D326860C08F3
:102440004E85092ED9BF411122C42A842E8597E7D3
:10245000FE5F23A1076806C6EF509031FD57631851
:10246000F50097E7FE5F83A7E76691C31CC0B24003
:10247000224441018280411122C42E848395E500CB
:1024800006C68923634905007C48AA977CC8B240E8
:102490002244410182808357C4007D777D17F98FE4
:1024A0002316F400EDB783D7C500011122CC26CA4C
:1024B0004AC84EC606CE93F70710AA842E843289E6
:1024C000B68991C78395E500894601462D22835739
:1024D000C4007D777D17F98F8315E4002316F4007F
:1024E0006244F240CE864A86B24942492685D244A9
:1024F00005613DA8411122C42E848395E50006C6DE
:10250000DD28FD570357C400631BF500FD77FD1759
:10251000F98F2316F400B24022444101828085677E
:10252000D98F2316F40068C8FDB78395E5001DA870
:10253000411122C42A842E85B285368697E7FE5F34
:1025400023AA075806C6EF505029FD576318F50017
:1025500097E7FE5F83A7075891C31CC0B24022448F
:1025600041018280411122C42A842E8597E7FE5FB3
:1025700023A2075606C6EF50F013FD576318F50067
:1025800097E7FE5F83A7075591C31CC0B240224462
:1025900041018280411122C42A842E85B28597E7A9
:1025A000FE5F23A9075206C6EF50F012FD576318CD
:1025B000F50097E7FE5F83A7E75191C31CC0B240C7
:1025C000224441018280411122C42A842E8597E74A
:1025D000FE5F23A1075006C6EF505012FD57631847
:1025E000F50097E7FE5F83A7E74E91C31CC0B2409A
:1025F000224441018280411122C42A842E85B28561
:10260000368697E7FE5F23A7074C06C6EF501011EA
:10261000FD576318F50097E7FE5F83A7A74B91C3AB
:102620001CC0B24022444101828093F5F50F2A96E6
:102630006314C5000145828083470500E38DB7FE22
:102640000505FDB782808280797152CC9C493A8A17
:10265000984522D426D24ECE56CA06D64AD05AC85B
:102660005EC6AA892E84B284B68A63D3E700BA878D
:102670009CC00347340419C385079CC01C4093F7D2
:10268000070281C79C4089079CC003290400137975
:102690006900631A0900130B9401FD5B5C449840C8
:1026A000998F634CF90483473404B336F0001C401F
:1026B00093F70702A5EB13063404D6854E85029ADC
:1026C000FD576303F5041C4011469840998B544410
:1026D00081446397C700B384E64063D30400814418
:1026E0001C4418486354F700998FBE94014969044B
:1026F0007D5B63982405014509A885465A86D685E1
:102700004E85029A631E75017D55B2502254925433
:102710000259F249624AD24A424BB24B4561828029
:102720000509ADBF3307D40013060003A301C70496
:102730000347540493871600A2978906A381E704F0
:102740009DBF85462286D6854E85029AE30E65FB9F
:10275000050945B7797122D426D24AD04ECE06D685
:1027600052CC56CA5AC803C8850193078007AA8469
:102770002E843289B68963EE07019307200693867B
:10278000350463ED07016305081C93078005630AA0
:10279000F812930A24042301040515A89307D8F915
:1027A00093F7F70F5546E366F6FE17E6FFFF1306AD
:1027B00026D78A07B2979C43B29782871C43938A95
:1027C0002504938647009C4314C32381F504854761
:1027D0005DA29C41084313F60708930545000DC20E
:1027E0001C410CC363D807001307D002B307F040A5
:1027F000A301E40417E6FFFF130606D02948A1A0B1
:1028000013F607041C410CC371DEC207C187D9BF90
:1028100090411C43137506089385470001C50CC3FE
:102820009C4339A0137606040CC37DDA83D70700D6
:102830001307F00617E6FFFF130606CC6304E80E45
:102840002948A3010404584018C4634507000C40FC
:10285000ED990CC099E3B68A19CFB68A33F707030E
:10286000FD1A3297034707002380EA003E87B3D75B
:102870000703E37507FFA147631EF8001C40858B23
:1028800091CB58401C4863C7E70093070003A38F10
:10289000FAFEFD1AB386564114C84E87CA867000E8
:1028A000A285268555337D5A631B450D7D55B25053
:1028B000225492540259F249624AD24A424B45612B
:1028C0008280A382050517E6FFFF1306E6C20C40CF
:1028D000084313F805081C411105630D080208C3DD
:1028E00013F7150001C793E505020CC04148B1FB81
:1028F00018401377F7FD18C0A9B79C4193E707026A
:102900009CC193078007A302F40417E6FFFF130698
:10291000E6BF75BF13F8050408C3E30308FCC2074C
:10292000C1837DBF214831BF90411C43CC491378FE
:102930000608138547006306080008C39C438CC340
:1029400001A808C3137606049C4375DA2390B700E8
:1029500023280400B68A91B71C43D0418145938651
:10296000470014C383AA07005685C13101C533054A
:10297000554148C05C401CC8A301040439BF144839
:102980005686CA8526858299E30245F31C40898BC9
:102990008DE7B2474844E35CF5F03E8509BF8546C4
:1029A0005686CA8526858299E30265F1050A5C444C
:1029B0003247998FE345FAFEE9BF014A930A940131
:1029C0007D5BF5B7411122C42A842E85B2853686F7
:1029D00097E7FE5F23A0071006C6EF50C056FD57CD
:1029E0006318F50097E7FE5F83A7C70E91C31CC06D
:1029F000B24022444101828079714AD013D9450105
:102A000026D24ECE52CC5AC862C49394C50006D684
:102A100022D456CA5EC61379F97F2A8A328B368C45
:102A2000B18093D9F501630409089307F07F630A25
:102A3000F90C935AD5018E04B3E49A00B70A8000CA
:102A4000B3EA540113143500130919C0814B13154F
:102A5000CC009354C50013554C019375F57F135C5E
:102A6000FC01F9C19307F07F638BF51013953400D7
:102A70009357DB015D8DB7048000C98C931F3B0029
:102A8000138515C0814713972B005D8F7D1739463D
:102A9000B3C68901B305A9406365E61017E6FFFFD9
:102AA000130686AD0A073297184332970287B3EAB6
:102AB000A40063820A069DC82685EF00F0179307DD
:102AC00055FF71476349F702F54A130485FFB38A3E
:102AD000FA40B3948400B35A5A01B3EA9A0033140B
:102AE0008A009305D0C03389A5408DB7EF00D0147C
:102AF00013050502E9B7930485FDB31A9A00014452
:102B0000CDB7B3EAA400638C0A002A84A68A13090D
:102B1000F07F8D4B2DBF01440149854B0DBF014412
:102B20001309F07F894B25B7B3EF640163820F0669
:102B30009DC82685EF005010AA85938755FF7147E1
:102B40006349F702F546938F85FF9D8E3395F40117
:102B5000B356DB00B3E4A600B31FFB019306D0C05D
:102B60003385B64005B75A85EF00100D9305050271
:102B7000E9B7138585FDB314AB00814FC5B7B3EF3B
:102B80006401638B0F00DA8F1305F07F8D47E5BD7D
:102B9000814401458547C5BD81441305F07F8947C0
:102BA000DDB563E6540163969A2A6364F42B1396A9
:102BB000FA01135714009317F40193DA1A003364DF
:102BC000E6001395840093D88F01B3E8A8004181F3
:102BD00033DEAA02939E080193DE0E01135704010F
:102BE00013938F00B3FAAA0272863388CE03C20A07
:102BF00033675701637C070146971306FEFF63673F
:102C00001701637507011306EEFF46973307074167
:102C1000335EA702420441803377A702F2823388F1
:102C2000CE034207418F637C070146979302FEFF64
:102C300063671701637507019302EEFF469733043C
:102C4000074142064168B3625600130EF8FF13D6DF
:102C5000020133F7C201135F0301337EC301B303E3
:102C6000EE02B304C6033307EF02B30FE6033306E5
:102C7000970013D70301329763739700C29F1356CF
:102C800007017E96C16FFD1F3378F7014208B3F349
:102C9000F3011E986367C4009684631EC40263FC3C
:102CA00007039A9733B7670046973A949384F2FFE5
:102CB00063E688006391880263EF67006366C4007F
:102CC000631B860063F907019A9733B7670046973D
:102CD0009384E2FF3A9433880741118CB3B707011C
:102CE0001D8CFD5F6387880EB35FA4021357080134
:102CF0003374A4027E86B387FE034204598C637C3E
:102D0000F40046941386FFFF636714016375F400B3
:102D10001386EFFF46941D8C3357A40242081358C4
:102D200008013374A402BA87B38EEE0242043364FE
:102D30008800637CD40146949307F7FF636714010E
:102D40006375D4019307E7FF469442065D8E93179F
:102D50000601C183135706013308EF023304D4413F
:102D6000330FFF02B38EC703330EC70393D70E0191
:102D7000729FFA9763F4C70141673A9813D7070126
:102D8000429741687D1833F507014205B3FE0E01F5
:102D900076956366E400631FE418B28F1DC94694FC
:102DA000930FF6FF636114036366E4006313E41892
:102DB000637DA3009317130033B367009A98930FB2
:102DC000E6FF46943E836314E4006304650093EFDA
:102DD0001F009387F53F635BF00A13F77F0001CF75
:102DE00013F7FF0011466308C70013864F00B33F77
:102DF000F601FE94B28F37070001658F19C7B70738
:102E000000FFFD17FD8C938705401307E07F6342A9
:102E1000F70693DF3F001397D4013367F70113D50B
:102E20003400D2073706F07F3205B2502254F18FBA
:102E300031815D8DFE06B367D50092540259F24987
:102E4000624AD24A424BB24B224C3A85BE8545611A
:102E50008280FD158147B5B3CE86D684A28FDE87EA
:102E60000D47638AE70A0547638EE70A0947E3923D
:102E7000E7F6014501479307F07F65B7E286CDB7D6
:102E8000B7040800814F81468D47D9BF05451D8D88
:102E9000130780036348A7087D476349A704938508
:102EA000E541B397B40033D7AF00B395BF00D98FD6
:102EB000B335B000CD8F33D5A40013F7770001CF21
:102EC00013F7F70011466308C70013874700B337AD
:102ED000F7003E95BA8737078000698F39E71317E7
:102EE000D5018D835D8F0D81814725BF0557B307C0
:102EF000F74013060002B3D7F40001476306C5008C
:102F00001387E5433397E4003367F7013337E00075
:102F1000D98F01455DB73705080001479307F07F5A
:102F2000814601B701450147C1B7014501478547C2
:102F3000CDBD7E86B28F61BD79714ECE93D94501EC
:102F400022D426D252CC56CA5EC69394C50006D669
:102F50004AD05AC893F9F97F2A84B28BB68AB180D5
:102F600013DAF501638109089307F07F6383F90C95
:102F70009357D5018E04DD8CB7078000DD8C1319C3
:102F80003500938919C0014B13D54A011394CA0027
:102F90001375F57F318093DAFA0155CD9307F07FF1
:102FA0006301F51093D7DB010E045D8CB707800039
:102FB0005D8C130515C093973B00014793162B00BA
:102FC000D98E4E95FD16394833465A0193051500A2
:102FD000636AD80E17D5FFFF1305C55D8A06AA964A
:102FE0009442AA96828633E9A400630D090485C839
:102FF00026859921130755FFF14763C6E702F54778
:10300000130985FF998FB3942401B357F400DD8C25
:10301000331924019309D0C0B389A940ADB7292938
:1030200013050502C1BF930485FDB3149400014943
:10303000D5B733E9A400630B09002A899309F07F0F
:103040000D4B99B781448149054B3DBF814493099C
:10305000F07F094B15BFB3677401A1CF05C8228566
:10306000E12E930655FFF14763C7D70275479307D3
:1030700085FF158F3314F40033D7EB00598CB397C9
:10308000FB001307D0C03305A74005BF5E856D2642
:1030900013050502F9B7130485FD33948B008147AE
:1030A000CDB7B367740191CBDE871305F07F0D4771
:1030B00031B701440145054711B701441305F07FBD
:1030C0000947EDBD416F930EFFFF1357090193D8D8
:1030D00007013379D901B3F7D70133882803B30641
:1030E000F902B30FF7023303F80113D806011A9857
:1030F000330E17036373F8017A9E935308013378F4
:10310000D801B3F6D601135F0401B372D4014208AB
:103110003698B30E5702B306590233092F0333030F
:10312000D90113D906011A993307E7036374D9014A
:1031300041631A97935E0901C169BA9E1387F9FF2B
:103140003379E900F98E13D404014209F98C3387ED
:1031500097023699CA933303F402B3869802B38771
:103160008802B388660093560701C69663F366002B
:10317000CE9793D80601C169B38FF8009387F9FF02
:10318000B3889202FD8E7D8FC206BA96B3075402B1
:10319000B3049F0233038F02BE9413D40801A29498
:1031A00063F3F4004E93C167FD1733F7F400B3F8EF
:1031B000F80042071E9E469733392E017697330456
:1031C0002701369EB336DE00B308F401338FD800F2
:1031D0003337D70133342401598CC180B3B8F80197
:1031E000B336DF002694B3E6D80036941A9493578A
:1031F0007F0126045D8C93179E00B3E70701B33768
:10320000F000135E7E0113179F00B3E7C701D98F4B
:1032100037070001618F4DCB13D71700858BD98FEE
:103220001317F401D98F05809386F53F6350D00AB8
:1032300013F7770001CF13F7F70011456308A700D4
:1032400013874700B337F7003E94BA87370700016A
:10325000618F19C7370700FF7D17798C938605406A
:103260001307E07F634ED70E13D737009317D401AF
:10327000D98F0D80139746013204B706F07F758F02
:103280003180598C7E06B2503367C4002254925468
:103290000259F249624AD24A424BB24B3E85BA8544
:1032A0004561828052862684CA875A878946630987
:1032B000D70A8D46630FD7088546E317D7F6014432
:1032C00081479DA05686DDB7AA85B9BF0545158DF6
:1032D00013078003E345A7FE7D476349A704938551
:1032E000E5413317B400B3D6A700B397B700558FA5
:1032F000B337F000D98F3354A40013F7770001CF10
:1033000013F7F70091466308D70013874700B337D8
:10331000F7003E94BA8737078000618F39E71317AB
:10332000D4018D83D98F0D808146A9B70557158F9C
:10333000130800023357E4008146630605019385B4
:10334000E543B316B400D58FB337F000D98F0144ED
:103350006DB73704080081479306F07F014619BF17
:10336000014481479306F07F31B701448147854688
:1033700011B713D74501370810009307F8FF1377EB
:10338000F77F1306E03FED8FAA86FD816351E604C7
:103390001306F0410D8E1385F5FF635BC7020145EF
:1033A00085E913053043198D7D46B3E70701634A6C
:1033B000A6001307D7BEB397E70033D5A6005D8DEF
:1033C000828013053041198D33D5A70082800145D5
:1033D0008280411106C622C426C221CD9357F541F1
:1033E00033C4A7001D8C9354F5012285B120130727
:1033F000E041A947098F63C8A702AD47898F5505EA
:10340000B357F4003314A4002685B2075207B183E2
:103410007E05D98FB24033E7A7002285224492442B
:10342000BA85410182805515B317A4002685014451
:10343000E9BF01478147E5BFC1676376F50293079E
:10344000F00FB3B7A7008E07130700021D8F335587
:10345000F50097D7FFFF9387A7193E950345050011
:103460003305A740828037070001C147E36EE5FCC2
:10347000E147D9BF011122CE00102326A4FE032765
:10348000C4FEB7170080938787AA6315F700B707B4
:10349000000211A081473E857244056182800111BE
:1034A00022CE00102326A4FE0327C4FEB7170080F7
:1034B000938787AA6314F700894711A081473E8547
:1034C000724405618280011122CE00102326A4FEE1
:1034D0002324B4FE832784FE91E7B70700809387F7
:1034E000070921A8032784FE85476317F700B7075C
:1034F00000809387070911A081473E8572440561CA
:103500008280011122CE00102326A4FE2324B4FEC3
:10351000832784FE99E38D4709A8032784FE854706
:103520006314F7009D4711A081473E8572440561F1
:1035300082805D7186C6A2C4CAC2CEC052DE56DC8D
:103540005ADA5ED862D666D48008232EA4FA83277E
:10355000C4FB3E8505372326A4FC0327C4FCB167C2
:10356000F117BA979C432324F4FC0327C4FCB167EA
:10357000E117BA979C432322F4FC0327C4FCB167EC
:10358000F117BA979C43032784FCE318F7FC8327C1
:1035900084FC3E8C814C93190C000149832744FC28
:1035A0003E8A814A336B4901B3EB59015A87DE8762
:1035B0003A85BE85B640264416498649725AE25A73
:1035C000525BC25B325CA25C61618280797106D61B
:1035D00022D44AD24ED00018232EA4FC232CB4FCB3
:1035E0002328C4FC232AD4FC8327C4FD2326F4FE0D
:1035F0008327C4FE3E85BD3D2324A4FE832784FD8E
:103600008E073E87832784FE3E9791679107BA977E
:103610003E87FD571CC3832784FD8E073E87832783
:1036200084FE3E979167BA973E87832704FD1CC3AB
:10363000832744FD13D907008149832784FD8E0722
:103640003E87832784FE3E9791679107BA974A8702
:1036500098C381473E85B250225412598259456120
:103660008280011106CE22CC0010232604FEF3270F
:1036700040F12326F4FE8327C4FE3E85EF40E0554B
:103680002324A4FE032584FEEF40C052AA873E8572
:10369000F240624405618280397106DE22DC8000DE
:1036A0002326A4FC0325C4FCDD3B2324A4FE83279E
:1036B000C4FC2322F4FE832744FEDC43A9EF232627
:1036C00004FE81A08325C4FE0325C4FCED3B23201A
:1036D000A4FE8325C4FE0325C4FC2535232EA4FCAB
:1036E000832704FE9C43DC4F8326C4FC01468325CC
:1036F000C4FD032504FE82978327C4FE8507232685
:10370000F4FE0327C4FE832784FEE34DF7FA8327E4
:1037100044FE0547D8C30100F25062542161828003
:10372000397106DE22DC80002326A4FC2324B4FCAD
:103730002322C4FC2320D4FCFD572326F4FEEF10E3
:10374000C0492320A4FE232404FE213F232EA4FCF1
:103750000325C4FCA933232CA4FC032704FE8547BE
:103760006308F700832704FE81C78327C4FE49A0AE
:10377000232204FE91A0832544FE0325C4FC51337B
:10378000232AA4FC832544FE0325C4FC2D3B2324CB
:10379000A4FE0327C4FD832784FE6318F7000327D4
:1037A00084FC832744FD6300F702232404FE83275F
:1037B00044FE85072322F4FE032744FE832784FD6D
:1037C000E34BF7FA11A00100832784FE85C383270A
:1037D00084FE9C43DC4F832604FC032644FC8325A3
:1037E00084FC032584FE82972326A4FE8327C4FE3F
:1037F0003E85F250625421618280797122D6001890
:10380000232EA4FC232CB4FC232AC4FC2328D4FCA0
:10381000FD572326F4FE8327C4FE3E8532544561BE
:103820008280011106CE22CC00102326A4FEEF10C8
:10383000C03AAA873E85F240624405618280797170
:1038400006D622D40018232EA4FC232CB4FCFD574A
:103850002326F4FE39352324A4FE832784FE95C352
:10386000032784FD854763E0E702832784FE9C43AA
:10387000DC43832584FD032584FE82972326A4FE52
:1038800021A0010011A001008327C4FE3E85B25093
:10389000225445618280397106DE22DC80002326B5
:1038A000A4FC2324B4FCFD572326F4FE832784FCC8
:1038B000C9C7232404FE75332320A4FE0325C4FCBA
:1038C000F93E232EA4FC232204FE91A0832544FE6E
:1038D0000325C4FC3D31232CA4FC832544FE032591
:1038E000C4FCD5362324A4FE032704FE832784FECC
:1038F0006318F700032784FC832784FD6300F70225
:10390000232404FE832744FE85072322F4FE032795
:1039100044FE8327C4FDE34BF7FA11A0010083277F
:1039200084FE81CF832784FE9C43DC53832584FC63
:10393000032584FE82972326A4FE8327C4FE3E85AA
:10394000F250625421618280397106DE22DC8000EF
:103950002326A4FC2324B4FCFD572326F4FE83274E
:1039600084FCD9C7232404FEED392320A4FE0325BB
:10397000C4FCEFF0DFB2232EA4FC232204FE99A0A6
:10398000832544FE0325C4FCAD3E232CA4FC8325E3
:1039900044FE0325C4FCEFF01FB32324A4FE032739
:1039A00004FE832784FE6318F700032784FC832723
:1039B00084FD6300F702232404FE832744FE850769
:1039C0002322F4FE032744FE8327C4FDE34AF7FACB
:1039D00011A00100832784FE81CF832784FE9C43AE
:1039E0009C57832584FC032584FE82972326A4FE0E
:1039F0008327C4FE3E85F250625421618280797132
:103A000006D622D40018232EA4FC232CB4FC232A8F
:103A1000C4FCFD572326F4FE8327C4FD2324F4FEB3
:103A20000325C4FDEFF01FA52322A4FE032784FD78
:103A300091476301F70C032784FD914763C1E70EAB
:103A4000032784FD8D476306F706032784FD8D4712
:103A500063C7E70C032784FD85476308F700032746
:103A600084FD89476303F7025DA8832744FDD5CB16
:103A7000032584FEEFF0FFAB2A87AE87832644FD43
:103A800098C2DCC2232604FE69A8832744FDC1CF67
:103A9000832744FD9C432320F4FE832704FE8A07EA
:103AA0003E87832744FEBA9723A00700232604FEFF
:103AB0009DA8832744FDB5CB832744FD9C43232049
:103AC000F4FE832704FE8A073E87832744FEBA97C5
:103AD0003E8785471CC30F008004832704FE8A07A6
:103AE0003E87832744FEBA979C432326F4FE232671
:103AF00004FE25A8232604FE832744FD8DCB8327BF
:103B000044FD9C432320F4FE832704FE8A073E875E
:103B1000832744FEBA979C432326F4FE09A801009C
:103B200001A8010031A0010021A0010011A00100A5
:103B30008327C4FE3E85B25022544561828079714C
:103B400006D622D40018232EA4FC232CB4FCEF406C
:103B5000A00BAA872326F4FE9307C4FE3E86894560
:103B60000325C4FD693DAA873E85B25022544561B4
:103B70008280797106D622D40018232EA4FC232C2F
:103B8000B4FCEF406008AA872326F4FE9307C4FE26
:103B90003E868D450325C4FD9D35AA873E85B250DE
:103BA000225445618280011122CE00102326A4FEFA
:103BB0000327C4FE938701816314F700814711A096
:103BC000FD573E85724405618280011122CE0010AE
:103BD0002326A4FE0327C4FE938701816317F70001
:103BE000B727F4009387074011A081473E857244B0
:103BF00005618280011122CE00102326A4FE032736
:103C0000C4FE938701816317F700B707008093878D
:103C1000070911A081473E85724405618280011128
:103C200022CE00102326A4FE0327C4FE9387018121
:103C30006314F700814711A081473E8572440561F6
:103C40008280011122CE00102326A4FE8327C4FE09
:103C5000634CF000B71700800327C4FE0A07938760
:103C600007AABA979C4311A081473E85724405611B
:103C70008280011122CE0010F32740F12326F4FEAA
:103C80008327C4FE3E85724405618280011122CEE5
:103C90000010A147F3A707302326F4FE0100724469
:103CA00005618280011122CE0010A147F3B70730D1
:103CB0002326F4FE0100724405618280011122CEA8
:103CC0000010A147F3A747302326F4FE01007244F9
:103CD00005618280011122CE0010A147F3B7473061
:103CE0002326F4FE0100724405618280011122CE78
:103CF000001093070008F3A747302326F4FE0100C5
:103D0000724405618280011122CE001093070008E1
:103D1000F3B747302326F4FE010072440561828028
:103D2000011122CE0010856793870780F3A74730E3
:103D30002326F4FE0100724405618280011122CE27
:103D40000010856793870780F3B747302326F4FE7A
:103D50000100724405618280797122D60018232EF9
:103D6000A4FC8327C4FD0547B317F7002326F4FE00
:103D70008327C4FEF3A747302324F4FE0100325406
:103D800045618280797122D60018232EA4FC8327F6
:103D9000C4FD0547B317F7002326F4FE8327C4FEAE
:103DA000F3B747302324F4FE01003254456182808A
:103DB000011106CE22CC00102326A4FE2324B4FE3B
:103DC00013054006EF30D071011106CE22CC001051
:103DD0002326A4FE2324B4FE1305800CEF3050707C
:103DE0005D7186C696C49AC29EC022DE2ADC2EDA97
:103DF00032D836D63AD43ED242D046CE72CC76CAEB
:103E00007AC87EC680081305C012EF30706D1D7130
:103E100086CE96CC9ACA9EC8A2C6AAC4AEC2B2C06A
:103E200036DE3ADC3EDA42D846D672D476D27AD042
:103E30007ECE80103D3D2A87B71700800A07938702
:103E400007AABA979C432326F4FA8327C4FA85C7A6
:103E50000325C4FA45332324A4FA832784FA83A7CD
:103E6000070E2322F4FA832784FA83A7870D83257C
:103E700044FA0D4582970100F640E6425643C64398
:103E80003644264596450646F2566257D257425862
:103E9000B258225E925E025FF24F256173002030BD
:103EA000797106D622D40018232EA4FC232CB4FC4E
:103EB000C9332A87B71700800A07938707AABA97DA
:103EC0009C432326F4FEF32720342324F4FE832787
:103ED000C4FE95C70325C4FE313B2322A4FE8327DD
:103EE00084FE93F7F73F032744FE9387870E8A07E4
:103EF000BA979C438325C4FD0325C4FE8297010025
:103F0000B2502254456182801D7186CE96CC9ACAE9
:103F10009EC8A2C6AAC4AEC2B2C036DE3ADC3EDA41
:103F200042D846D672D476D27AD07ECE80109133E3
:103F30002A87B71700800A07938707AABA979C4376
:103F40002326F4FA8327C4FA85C70325C4FA5D3112
:103F50002324A4FA832784FA83A707142322F4FADC
:103F6000832784FA83A78713832544FA1D45829704
:103F70000100F640E6425643C64336442645964580
:103F80000646F2566257D2574258B258225E925EA7
:103F9000025FF24F256173002030011122CE001024
:103FA0002326A4FE2324B4FE01007244056182800E
:103FB000797106D622D40018232EA4FC232CB4FC3D
:103FC0004D39AA873E85B5392326A4FE0325C4FEB4
:103FD000EF10402D2320A4FE2322B4FE032704FE6D
:103FE000832744FE294581453306A70032883338AC
:103FF000E800B386B700B307D800BE863287B6871D
:10400000BA853E860325C4FEEF1020300100B25071
:104010002254456182800000000000000000000082
:104020000000000000000000000000000000000090
:104030000000000000000000000000000000000080
:104040000000000000000000000000000000000070
:104050000000000000000000000000000000000060
:104060000000000000000000000000000000000050
:104070000000000000000000000000000000000040
:10408000197186DE96DC9ADA9ED8A2D6AAD4AED270
:10409000B2D0B6CEBACCBECAC2C8C6C6F2C4F6C288
:1040A000FAC07EDE0001EFF0DFBC2A87B717008080
:1040B0000A07938707AABA979C432326F4FAF327A3
:1040C00020342324F4FAF32710342322F4FAF327BC
:1040D00030342320F4FAF3275030232EF4F88327CA
:1040E000C4FAFDCB0325C4FAEFF0DFB0232CA4F80B
:1040F000832784FA93F7F73F232AF4F8832784FA77
:1041000063DE070A032744F9930700086312F702E6
:10411000832784F983A787392326F4F8832784F932
:1041200083A707398325C4F8032544F982976DA036
:10413000032744F9AD4763D7E7008327C4F993F712
:10414000F7039DEF832684F9032744F9BA8786078E
:10415000BA978E07B69783A787092326F4F8832694
:1041600084F9032744F9BA878607BA978E07B6976A
:1041700083A707098325C4F8032544F98297A9A8D2
:104180008327C4F913F7F70389476317F704F32765
:1041900070302328F4F8832784F983A7C70D2326DA
:1041A000F4F8832704F99C432324F4F8832784F844
:1041B0008325C4F8032544F9829739A8032784F995
:1041C000832744F99387870E8A07BA979C438325F0
:1041D00044F90325C4FA8297F650E6525653C65363
:1041E0003654265596550656F6466647D6474648EF
:1041F000B648264E964E064FF25F09617300203096
:1042000000000000000000000000000000000000AE
:10421000000000000000000000000000000000009E
:10422000000000000000000000000000000000008E
:10423000000000000000000000000000000000007E
:10424000000000000000000000000000000000006E
:10425000000000000000000000000000000000005E
:10426000000000000000000000000000000000004E
:10427000000000000000000000001D7186CE96CCFA
:104280009ACA9EC8A2C6AAC4AEC2B2C036DE3ADC82
:104290003EDA42D846D672D476D27AD07ECE80101C
:1042A000EFF03F9D2A87B71700800A07938707AA78
:1042B000BA979C432326F4FA8327C4FA8DC70325B3
:1042C000C4FAEFF03F932324A4FA832784FA83A748
:1042D00087212322F4FA832784FA83A707218325E1
:1042E00044FA414582970100F640E6425643C643F0
:1042F0003644264596450646F2566257D2574258EE
:10430000B258225E925E025FF24F25617300203048
:104310001D7186CE96CC9ACA9EC8A2C6AAC4AEC249
:10432000B2C036DE3ADC3EDA42D846D672D476D215
:104330007AD07ECE8010EFF0DF932A87B717008007
:104340000A07938707AABA979C432326F4FA832780
:10435000C4FA8DC70325C4FAEFF0DF892324A4FA39
:10436000832784FA83A707232322F4FA832784FA76
:1043700083A78722832544FA454582970100F640AA
:10438000E6425643C6433644264596450646F2560F
:104390006257D2574258B258225E925E025FF24F85
:1043A0002561730020301D7186CE96CC9ACA9EC8B6
:1043B000A2C6AAC4AEC2B2C036DE3ADC3EDA42D8E9
:1043C00046D672D476D27AD07ECE8010EFF07F8A35
:1043D0002A87B71700800A07938707AABA979C43D2
:1043E0002326F4FA8327C4FA8DC70325C4FAEFF015
:1043F0007F802324A4FA832784FA83A78724232297
:10440000F4FA832784FA83A70724832544FA4945CD
:1044100082970100F640E6425643C643364426459D
:1044200096450646F2566257D2574258B258225E17
:10443000925E025FF24F2561730020301D7186CEBF
:1044400096CC9ACA9EC8A2C6AAC4AEC2B2C036DE74
:104450003ADC3EDA42D846D672D476D27AD07ECED4
:104460008010EFF01F812A87B71700800A07938713
:1044700007AABA979C432326F4FA8327C4FA8DC768
:104480000325C4FAEFF00FF72324A4FA832784FA54
:1044900083A707262322F4FA832784FA83A7872594
:1044A000832544FA4D4582970100F640E642564383
:1044B000C6433644264596450646F2566257D257BD
:1044C0004258B258225E925E025FF24F256173003D
:1044D00020301D7186CE96CC9ACA9EC8A2C6AAC4A8
:1044E000AEC2B2C036DE3ADC3EDA42D846D672D42C
:1044F00076D27AD07ECE8010EFF0AFF72A87B7174A
:1045000000800A07938707AABA979C432326F4FAE8
:104510008327C4FA8DC70325C4FAEFF0AFED232437
:10452000A4FA832784FA83A787272322F4FA832710
:1045300084FA83A70727832544FA5145829701000F
:10454000F640E6425643C64336442645964506465F
:10455000F2566257D2574258B258225E925E025FBC
:10456000F24F2561730020301D7186CE96CC9ACA19
:104570009EC8A2C6AAC4AEC2B2C036DE3ADC3EDADB
:1045800042D846D672D476D27AD07ECE8010EFF062
:104590004FEE2A87B71700800A07938707AABA97B2
:1045A0009C432326F4FA8327C4FA8DC70325C4FA53
:1045B000EFF04FE42324A4FA832784FA83A7072982
:1045C0002322F4FA832784FA83A78728832544FAD1
:1045D000554582970100F640E6425643C6433644AD
:1045E000264596450646F2566257D2574258B2586B
:1045F000225E925E025FF24F2561730020301D71D2
:1046000086CE96CC9ACA9EC8A2C6AAC4AEC2B2C072
:1046100036DE3ADC3EDA42D846D672D476D27AD04A
:104620007ECE8010EFF0EFE42A87B71700800A07EC
:10463000938707AABA979C432326F4FA8327C4FAE0
:104640008DC70325C4FAEFF0EFDA2324A4FA8327F9
:1046500084FA83A7872A2322F4FA832784FA83A77C
:10466000072A832544FA594582970100F640E6421D
:104670005643C6433644264596450646F25662578B
:10468000D2574258B258225E925E025FF24F2561C5
:10469000730020301D7186CE96CC9ACA9EC8A2C6E1
:1046A000AAC4AEC2B2C036DE3ADC3EDA42D846D642
:1046B00072D476D27AD07ECE8010EFF08FDB2A874C
:1046C000B71700800A07938707AABA979C43232647
:1046D000F4FA8327C4FA8DC70325C4FAEFF08FD10B
:1046E0002324A4FA832784FA83A7072C2322F4FA2D
:1046F000832784FA83A7872B832544FA5D45829715
:104700000100F640E6425643C643364426459645E8
:104710000646F2566257D2574258B258225E925E0F
:10472000025FF24F2561730020301D7186CE96CC5A
:104730009ACA9EC8A2C6AAC4AEC2B2C036DE3ADCCD
:104740003EDA42D846D672D476D27AD07ECE801067
:10475000EFF02FD22A87B71700800A07938707AA9E
:10476000BA979C432326F4FA8327C4FA8DC70325FE
:10477000C4FAEFF02FC82324A4FA832784FA83A76E
:10478000872D2322F4FA832784FA83A7072D832514
:1047900044FA614582970100F640E6425643C6431B
:1047A0003644264596450646F2566257D257425839
:1047B000B258225E925E025FF24F25617300203094
:1047C0001D7186CE96CC9ACA9EC8A2C6AAC4AEC295
:1047D000B2C036DE3ADC3EDA42D846D672D476D261
:1047E0007AD07ECE8010EFF0CFC82A87B71700802E
:1047F0000A07938707AABA979C432326F4FA8327CC
:10480000C4FA8DC70325C4FAEFF0CFBE2324A4FA5F
:10481000832784FA83A7072F2322F4FA832784FAB5
:1048200083A7872E832544FA654582970100F640C9
:10483000E6425643C6433644264596450646F2565A
:104840006257D2574258B258225E925E025FF24FD0
:104850002561730020301D7186CE96CC9ACA9EC801
:10486000A2C6AAC4AEC2B2C036DE3ADC3EDA42D834
:1048700046D672D476D27AD07ECE8010EFF06FBF5B
:104880002A87B71700800A07938707AABA979C431D
:104890002326F4FA8327C4FA8DC70325C4FAEFF060
:1048A0006FB52324A4FA832784FA83A787302322B1
:1048B000F4FA832784FA83A70730832544FA6945ED
:1048C00082970100F640E6425643C64336442645E9
:1048D00096450646F2566257D2574258B258225E63
:1048E000925E025FF24F2561730020301D7186CE0B
:1048F00096CC9ACA9EC8A2C6AAC4AEC2B2C036DEC0
:104900003ADC3EDA42D846D672D476D27AD07ECE1F
:104910008010EFF00FB62A87B71700800A07938739
:1049200007AABA979C432326F4FA8327C4FA8DC7B3
:104930000325C4FAEFF00FAC2324A4FA832784FAEA
:1049400083A707322322F4FA832784FA83A78731C7
:10495000832544FA6D4582970100F640E6425643AE
:10496000C6433644264596450646F2566257D25708
:104970004258B258225E925E025FF24F2561730088
:1049800020301D7186CE96CC9ACA9EC8A2C6AAC4F3
:10499000AEC2B2C036DE3ADC3EDA42D846D672D477
:1049A00076D27AD07ECE8010EFF0AFAC2A87B717E0
:1049B00000800A07938707AABA979C432326F4FA34
:1049C0008327C4FA8DC70325C4FAEFF0AFA22324CE
:1049D000A4FA832784FA83A787332322F4FA832750
:1049E00084FA83A70733832544FA7145829701002F
:1049F000F640E6425643C6433644264596450646AB
:104A0000F2566257D2574258B258225E925E025F07
:104A1000F24F2561730020301D7186CE96CC9ACA64
:104A20009EC8A2C6AAC4AEC2B2C036DE3ADC3EDA26
:104A300042D846D672D476D27AD07ECE8010EFF0AD
:104A40004FA32A87B71700800A07938707AABA9748
:104A50009C432326F4FA8327C4FA8DC70325C4FA9E
:104A6000EFF04F992324A4FA832784FA83A707350C
:104A70002322F4FA832784FA83A78734832544FA10
:104A8000754582970100F640E6425643C6433644D8
:104A9000264596450646F2566257D2574258B258B6
:104AA000225E925E025FF24F2561730020301D711D
:104AB00086CE96CC9ACA9EC8A2C6AAC4AEC2B2C0BE
:104AC00036DE3ADC3EDA42D846D672D476D27AD096
:104AD0007ECE8010EFF0EF992A87B71700800A0783
:104AE000938707AABA979C432326F4FA8327C4FA2C
:104AF0008DC70325C4FAEFF0EF8F2324A4FA832790
:104B000084FA83A787362322F4FA832784FA83A7BB
:104B10000736832544FA794582970100F640E6423C
:104B20005643C6433644264596450646F2566257D6
:104B3000D2574258B258225E925E025FF24F256110
:104B4000730020301D7186CE96CC9ACA9EC8A2C62C
:104B5000AAC4AEC2B2C036DE3ADC3EDA42D846D68D
:104B600072D476D27AD07ECE8010EFF08F902A87E2
:104B7000B71700800A07938707AABA979C43232692
:104B8000F4FA8327C4FA8DC70325C4FAEFF08F86A1
:104B90002324A4FA832784FA83A707382322F4FA6C
:104BA000832784FA83A78737832544FA7D45829734
:104BB0000100F640E6425643C64336442645964534
:104BC0000646F2566257D2574258B258225E925E5B
:104BD000025FF24F256173002030011122CE0010D8
:104BE000F32750302326F4FE8327C4FE93F7F70300
:104BF0002326F4FE0327C4FE8D476303F702032731
:104C0000C4FE8D4763E2E7020327C4FE8547630BBA
:104C1000F7000327C4FE89476318F7008D4731A0CA
:104C2000914721A0854711A081473E8572440561C7
:104C30008280797122D60018232EA4FC232CB4FC88
:104C4000F32750302326F4FE8327C4FE93F707FC96
:104C50002326F4FE832784FD2324F4FE0327C4FDCA
:104C600091476305F7040327C4FD914763E8E7060E
:104C70000327C4FD8D4763E3E7060327C4FD894787
:104C8000637BF7008327C4FDA1C70327C4FD8547C5
:104C90006309F702A1A0832784FE739077308327EE
:104CA000C4FE93E72700739057300DA8832784FE36
:104CB000739077308327C4FE93E7370073905730A3
:104CC00031A8832784FE93E717007390573039A0EB
:104CD000832784FEF19B739057300100010032540A
:104CE00045618280011122CE00102326A4FE0327F5
:104CF000C4FEFD4763C6E7020327C4FE8D47634930
:104D0000F7028327C4FE05473317F700C57793875B
:104D10008788F98FB337F00093F7F70F81EB09A875
:104D20000327C4FE930700086314F700854719A002
:104D3000010081473E85724405618280797106D603
:104D400022D40018232EA4FC232CB4FC232AC4FC58
:104D5000232604FE8327C4FD99E3FD5749A80327B2
:104D600084FDFD4763E0E708832784FD1397270050
:104D7000B707012093870775BA979C4382878327DB
:104D800044FD81C7EFE09FF08DA0EFE0BFF1B1A837
:104D9000832744FD81C7EFE07FF281A8EFE09FF316
:104DA000A9A0832744FD81C7EFE05FF43DA8EFE0B1
:104DB0009FF525A8832744FD81C7EFE07FF635A046
:104DC000EFE0DFF71DA0832744FD99C7832784FD0B
:104DD0003E85EFE07FF811A8832784FD3E85EFE054
:104DE0007FFA21A0FD572326F4FE8327C4FE3E85CB
:104DF000B250225445618280797122D60018232E48
:104E0000A4FC232CB4FC232AC4FC8327C4FD232642
:104E1000F4FE032784FDAD4763C2E702832744FD08
:104E200091CF0327C4FE832784FD9387870E8A07CB
:104E3000BA97032744FD98C3814711A0FD573E85CB
:104E4000325445618280797106D622D40018232E0F
:104E5000A4FC8327C4FD2322F4FE832744FEDC4305
:104E6000DDEF232604FEB9A0832644FE0327C4FEFB
:104E7000BA878607BA978E07B69723A807088326AE
:104E800044FE0327C4FEBA878607BA978E07B697F3
:104E900023AA0708832644FE0327C4FEBA87860791
:104EA000BA978E07B69723AC07088327C4FE8507F9
:104EB0002326F4FE0327C4FEFD47E3D7E7FA2324A5
:104EC00004FE1DA0032744FE832784FE9387870EDC
:104ED0008A07BA9737470120130707DB98C3832750
:104EE00084FE85072324F4FE032784FEAD47E3DB1D
:104EF000E7FCF32750302320F4FEB7070120938707
:104F00004713032704FE6318F700B7470120938572
:104F100007080145393B832744FE0547D8C30100F4
:104F2000B250225445618280797106D622D400188D
:104F3000232EA4FC232CB4FC232AC4FC2328D4FC59
:104F4000232604FE8327C4FD2324F4FE032584FDC9
:104F5000513BAA8799E3D55765A2032784FD9307A0
:104F600000086318F700EFF05FC7AA8799C3CD5711
:104F700041AA832744FDB9CF032784FD9307000886
:104F8000631FF700832784FE032744FD23A8E73827
:104F9000832784FE032704FD23ACE73885A28326FC
:104FA00084FE032784FDBA878607BA978E07B697D3
:104FB000032744FD23A8E708832684FE032784FDF6
:104FC000BA878607BA978E07B697032704FD23ACE6
:104FD000E7082DA2032784FD930700086301F70C5F
:104FE000032784FD9307000863C7E710032784FDA8
:104FF000FD4763C2E710032784FDC1476350F70CE8
:10500000032784FDAD47630BF70A032784FDAD47F3
:1050100063C3E70E032784FD8D476308F70003276A
:1050200084FD9D476300F704F9A0832684FE0327CF
:1050300084FDBA878607BA978E07B697374701204F
:10504000130707EA23A8E708832684FE032784FDC5
:10505000BA878607BA978E07B697032704FD23AA57
:10506000E70869A8832684FE032784FDBA8786079C
:10507000BA978E07B69737470120130707FB23A877
:10508000E708832684FE032784FDBA878607BA973C
:105090008E07B697032704FD23AAE70885A0832778
:1050A00084FE374701201307A7F923A8E738832791
:1050B00084FE032704FD23ACE73889A0832684FE01
:1050C000032784FDBA878607BA978E07B6973747B6
:1050D0000120130787DC23A8E708832684FE032723
:1050E00084FDBA878607BA978E07B697032704FD13
:1050F00023AAE70821A0D1572326F4FE8327C4FE64
:105100003E85B250225445618280011106CE22CCE8
:1051100000102326A4FE2324B4FE832784FE054624
:10512000BE850325C4FEEFF07FC1AA873E85F2400D
:10513000624405618280011106CE22CC0010232634
:10514000A4FE2324B4FE832784FE0146BE850325E6
:10515000C4FEEFF0BFBEAA873E85F24062440561FF
:105160008280011106CE22CC00102326A4FEEFF08F
:10517000DFA6AA873E85F240624405618280011164
:1051800006CE22CC00102326A4FE2324B4FE8327BF
:1051900084FE99EBB747012093850708032584FE19
:1051A000EFF03FA981470DA0032784FE8547631CCC
:1051B000F700B7870120938507D8032584FEEFF019
:1051C0005FA7814711A0FD573E85F240624405610B
:1051D0008280011122CE00102326A4FE2324B4FED7
:1051E0002322C4FE81473E85724405618280397165
:1051F00022DE80002326A4FC014581452324A4FE51
:105200002326B4FEF32500B82322B4FEF32500B014
:105210002320B4FEF32500B8232EB4FC032544FE5E
:105220008325C4FDE310B5FE832544FE2E88814806
:10523000931708000147832504FE2E868146B36537
:10524000C7002324B4FED58F2326F4FE032784FE53
:105250008327C4FE3A85BE857254216182807971AC
:1052600006D622D44AD24ED00018232EA4FC83277F
:10527000C4FD81E70149814921A80325C4FDEFE070
:10528000DF942326A4FE8327C4FE3E89FD87BE89C2
:105290004A87CE873A85BE85B25022541259825928
:1052A00045618280797106D622D40018232EA4FC91
:1052B000814701482320F4FE232204FF0325C4FD77
:1052C000EFE05F932326A4FE8327C4FE8DC78327C8
:1052D000C4FE83A7C7132324F4FE832784FE81CF53
:1052E000832784FE9C43F847930704FE3E8685454A
:1052F000032584FE0297032704FE832744FE3A8594
:10530000BE85B250225445618280797106D622D47E
:1053100026D20018232EA4FC2328B4FC232AC4FC84
:10532000FD572326F4FE0325C4FDEFE0BF8C2324A4
:10533000A4FE832784FE8DCF832784FE83A7C71313
:105340002322F4FE832744FE85C7832744FE9C4323
:10535000A44B0325C4FDEFE01F85AA87032604FDA7
:10536000832644FDBE85032544FE82942326A4FEA5
:105370008327C4FE3E85B2502254925445618280F8
:10538000011122CE00102326A4FEB71700809387B8
:1053900087AA3E85724405618280011122CE0010E9
:1053A0002326A4FE9D473E8572440561828001113B
:1053B00022CE00102326A4FEB7170080938787AA69
:1053C0003E85724405618280011122CE00102326A1
:1053D000A4FE8D473E85724405618280797106D6B0
:1053E00022D40018232EA4FC232CB4FCFD57232622
:1053F000F4FE0325C4FDEFE0EFFF2324A4FE832782
:1054000084FE9DC7832784FE83A7C70D2322F4FE55
:10541000832744FE91CF832744FE9C43F84793079C
:1054200084FD3E868D45032544FE02972326A4FE77
:105430008327C4FE3E85B250225445618280797133
:1054400006D622D40018232EA4FC232CB4FCFD572E
:105450002326F4FE0325C4FDEFE0CFF92324A4FEA8
:10546000832784FE9DC7832784FE83A7C70D23223D
:10547000F4FE832744FE91CF832744FE9C43F847E4
:10548000930784FD3E868945032544FE0297232623
:10549000A4FE8327C4FE3E85B2502254456182801B
:1054A000797106D622D40018232EA4FC232CB4FC38
:1054B000232604FE0325C4FDEFE0CFF32324A4FE3E
:1054C000832784FE9DC7832784FE83A7C70D2322DD
:1054D000F4FE832744FE91CF832744FE9C43F84784
:1054E000930784FD3E869145032544FE02972326BB
:1054F000A4FE8327C4FE3E85B250225445618280BB
:10550000011106CE22CC00102326A4FE0325C4FEE2
:10551000EFE04FEEAA873E85F2406244056182804B
:10552000797106D622D40018232EA4FC232CB4FCB7
:10553000232AC4FC0325C4FDEFE0CFEB2326A4FE01
:105540008327C4FE99CB032644FD832584FD0325D0
:10555000C4FEEFF07F8AAA8711A0FD573E85B250A6
:10556000225445618280011122CE00102326A4FE20
:105570002324B4FE832784FE83D7070013F7370064
:105580008D476314F700914711A089473E85724407
:1055900005618280797122D60018232EA4FCF3279E
:1055A00010342326F4FE8327C4FE3E853254456121
:1055B0008280011122CE00102326A4FE2324B4FEF3
:1055C000832784FE7390173481473E8572440561BA
:1055D0008280011106CE22CC00102326A4FE0325D2
:1055E000C4FEEFE0CFE3AA873E85F2406244056146
:1055F0008280011122CE00102326A4FE0327C4FEC0
:10560000B7070080938707466315F700B707000CBC
:1056100011A081473E85724405618280011122CE2E
:1056200000102326A4FE0327C4FEB707008093873B
:1056300007466315F7009307500311A081473E8585
:10564000724405618280011122CE00102326A4FE3F
:105650000327C4FEB7070080938707466314F7004B
:105660009D4711A081473E857244056182800111EA
:1056700022CE00102326A4FE2324B4FE832784FE1A
:1056800091E7B70700809387070911A081473E85FE
:10569000724405618280011122CE00102326A4FEEF
:1056A0002324B4FE832784FE99E3AD4711A08147EC
:1056B0003E85724405618280011122CE00102326AE
:1056C000A4FE8327C4FE99E3814711A0FD573E85C0
:1056D000724405618280797106D622D40018232E87
:1056E000A4FC232CB4FC0325C4FD21372326A4FEEF
:1056F000832784FD1397C7008327C4FE3E97B7070F
:1057000020009107BA979C433E85B25022544561D0
:105710008280797106D622D40018232EA4FC232C73
:10572000B4FC232AC4FC0325C4FDE1352326A4FED2
:10573000832784FD1397C7008327C4FE3E97B707CE
:1057400020009107BA973E87832744FD1CC30100C0
:10575000B250225445618280797106D622D4001855
:10576000232EA4FC232CB4FC232AC4FC0325C4FD53
:1057700049352326A4FE832784FD1397C70083277A
:10578000C4FE3E97B7072000BA973E87832744FDA3
:105790001CC381473E85B250225445618280797195
:1057A00006D622D40018232EA4FC232CB4FC0325F7
:1057B000C4FD81352326A4FE832784FD1397C700EB
:1057C0008327C4FE3E97B7072000BA979C433E85C7
:1057D000B250225445618280797106D622D40018D5
:1057E000232EA4FC232CB4FC232AC4FC0325C4FDD3
:1057F00009352326A4FE0325C4FDB135AA87232439
:10580000F4FE832784FE85C7032744FD832784FE97
:10581000637FF700832784FD8A073E878327C4FEC2
:10582000BA973E87832744FD1CC3814711A0FD57CB
:105830003E85B250225445618280797106D622D4C9
:105840000018232EA4FC232CB4FC0325C4FD5533DF
:105850002326A4FE832784FD8A073E878327C4FE70
:10586000BA979C433E85B25022544561828079713B
:1058700006D622D40018232EA4FC232CB4FC232A01
:10588000C4FC2328D4FC0325C4FDA5332326A4FE91
:10589000832784FD139777008327C4FEBA970327D5
:1058A00044FD15870A073E978967BA979C432324CE
:1058B000F4FE832704FD81CF832744FDFD8B05473C
:1058C000B317F7003E87832784FED98F29A8832743
:1058D00044FDFD8B0547B317F70093C7F7FF3E87DD
:1058E000832784FEF98F032784FD9316770003270F
:1058F000C4FE3697832644FD95868A06BA960967C4
:1059000036971CC381473E85B25022544561828040
:10591000011106CE22CC00102326A4FE2324B4FEBF
:105920001305C012EF20C03B797106D622D40018AF
:10593000232EA4FC232CB4FC832784FD2326F4FE11
:10594000EFE02FB3AA873E85853B2324A4FE832561
:1059500084FE0325C4FE41332322A4FE0325C4FE96
:10596000EFF0DFCBAA872320F4FE032744FE832732
:1059700004FE6372F7040327C4FE832744FE8A07EC
:10598000BA979C478DCB0327C4FE832744FE8A0722
:10599000BA9703A88700032644FE8326C4FE032784
:1059A00044FEBA878607BA978E07B69783A7070F74
:1059B000BE8532850298032644FE832584FE032596
:1059C000C4FE813B0100B25022544561828039718E
:1059D00006DE22DC80002326A4FC8327C4FC2322CD
:1059E000F4FE832744FEDC43639A0712232604FE59
:1059F00031AA0325C4FCEFF07FC22320A4FE832537
:105A0000C4FE0325C4FCEFF09FC6232EA4FC83250F
:105A1000C4FE0325C4FCEFF01FC8232CA4FC83277D
:105A2000C4FD9C439C430325C4FD8297232404FEAC
:105A300085A88146032684FE8325C4FE032544FEF3
:105A40003D35032784FE832704FE6356F704014691
:105A5000832584FE0325C4FC4133032744FE8327AA
:105A600084FE8A07BA9723A40700832644FE0327EF
:105A700084FEBA878607BA978E07B69723A6070EC5
:105A8000832644FE032784FEBA878607BA978E07CB
:105A9000B69723A8070E832784FE85072324F4FEE8
:105AA000032784FE9307F03FE3D5E7F801468325FB
:105AB000C4FE0325C4FCEFF03FCA8327C4FD9C430A
:105AC000DC4F832644FE0146832584FD0325C4FD67
:105AD00082978327C4FD9C43D84F832644FEB76733
:105AE000012013868792832584FD0325C4FD029738
:105AF0008327C4FD9C43DC53832584FD0325C4FD1B
