:020000042001D9
:100000009711FF5F9381012A97020000938282017A
:100010007390523093021000638402007350107C7E
:100020009702000093824211739052301301000036
:1000300063140100138101F4732540F1814213031D
:100040000040137101FF6385A2001A918502D5BF9C
:10005000970000009380C00763830000829073259F
:1000600040F181450146ED209300000063830000CC
:100070008290970200009382C20073905230032353
:100080000000F5BF000000008280A14673B3063077
:10009000914263C555001376350011CA230005004F
:1000A0000505FD15E347B0FE731003308280232061
:1000B00005001105F115E34EB0FC7310033082808A
:1000C000232003001103E34D73FE82800684970210
:1000D000FFDF938222F3638C02049702FFDF938297
:1000E00062F2F32740F1A14673B006300A8397030A
:1000F000FFDF938323318A9363037300D1376398BF
:1001000057021703FF5F1303E3EF9713FF5F938318
:10011000E39B630373006D371703FFE7130383EE5D
:100120009703FFE7938303EE63037300513FA280BD
:1001300082800000F322203473231034F323303400
:10014000D5BF411122C6000801003244410182801E
:1001500006849711FF5F9381E114930200006311FD
:10016000550E97920000938262F61703FF5F130308
:1001700063E99713FF5F93836395638C6200635A0F
:10018000730003A5020091022320A3001103E34A98
:1001900073FE971200009382E2011703FFE7130337
:1001A00063E69703FFE79383E3E5638C6200635A9A
:1001B000730003A5020091022320A3001103E34A68
:1001C00073FE0F100000971200009382A2FE170327
:1001D000FF5F130323E39703FF5F9383A3E2638C23
:1001E0006200635A730003A5020091022320A3005A
:1001F0001103E34A73FE0F1000001713FF5F130390
:10020000E38C9383C1B3635773002320030011036E
:10021000E34D73FE1712FF5F1302428B11C2029669
:10022000173500001305A525EF304021EF30402899
:100230001745000013052559EF304020EF402057A7
:100240000937FD5673B0463073B04634F32710308B
:10025000372704007D8F09C773B0363073B026305E
:10026000370704007D8F19C373B006184167130761
:100270008702F98F89CBF32700300967D98F7390F4
:10028000073073503000F327103037072000F98F04
:1002900099C7F327003093E707207390073005458F
:1002A00097050000938545321706000013060632B5
:1002B0003120EF30E019A28082808280411106C295
:1002C000F32240F1130300006385620073005010B5
:0C02D000F5BFEF10604A924041018280AF
:0C02E000EC020120100301203C0301206F
:1002EC00411106C622C40008F16793850720B71791
:1002FC000080138587A3EF40A04F0100B240224439
:10030C0041018280011106CE22CC0010EF70E01B5F
:10031C002326A4FE8327C4FE99C7B7170080138534
:10032C0007A9EF7040230100F2406244056182800E
:10033C00011106CE22CC0010EF7020192326A4FE4A
:10034C008325C4FEB7170080138507A9EF80F02A18
:0A035C000100F24062440561828056
:1003680000100F0000110F0000120F000013010110
:1003780000140100001501020016010300170F0008
:100388000000000000010001000200020003000359
:1003980000040F0000050F0000080F0000090F00FF
:1003A800000A0200000B0201000C0202000D020309
:1003B800496E746572727570742074616B656E0035
:1003C800000000000000F03F0000000000000000F6
:1003D8000000000000000000000000000000000015
:1003E8000000000000000000000000000000000005
:1003F80000000000000000000000000000000000F5
:1004080000000000000000000000000000000000E4
:1004180000000000000000000000000000000000D4
:100428000000000000000000232D302B20000000F9
:10043800686C4C00656667454647000030313233CA
:1004480034353637383941424344454600000000C8
:100458003031323334353637383961626364656632
:1004680000000000A4220000BA2200007A22000046
:100478007A2200007A2200007A220000BA220000C4
:100488007A2200007A2200007A2200007A220000F4
:1004980010240000F8220000E22300007A22000065
:1004A8007A220000402400007A220000F82200008E
:1004B8007A2200007A220000EA23000000010202EA
:1004C80003030303040404040404040405050505E4
:1004D80005050505050505050505050506060606C0
:1004E80006060606060606060606060606060606A4
:1004F8000606060606060606060606060707070790
:100508000707070707070707070707070707070773
:100518000707070707070707070707070707070763
:100528000707070707070707070707070707070753
:10053800070707070707070707070707080808083F
:100548000808080808080808080808080808080823
:100558000808080808080808080808080808080813
:100568000808080808080808080808080808080803
:1005780008080808080808080808080808080808F3
:1005880008080808080808080808080808080808E3
:1005980008080808080808080808080808080808D3
:1005A80008080808080808080808080808080808C3
:1005B800080808080808080808080808CC050120E1
:1005C800000000006C6962676C6F737300000000C4
:1005D800FE3A0000B03B0000083B0000B03B0000C2
:1005E800A23B0000B03B0000083B0000FE3A0000C0
:1005F800FE3A0000A23B0000083B0000E43A00007D
:10060800E43A0000E43A00000C3B0000AA3F000076
:10061800AA3F0000C23F0000A43F0000A43F000022
:1006280050400000C23F0000A43F000050400000BE
:10063800A43F0000C23F0000A23F0000A23F00000C
:10064800A23F000050400000A04A0120464C012073
:100658002A4C01200000000000000000424F012049
:10066800764F0120284B0120024C01209E4C01208E
:10067800504D0120000000000000000000000000B4
:100688000000000000000000000000000000000062
:1006980000000000024E0120D449012000000000A3
:1006A8000000000000000000000000003861012088
:1006B8009E6101209E6101204A6101209E61012006
:1006C8009E6101209E6101205C6101209E610120E4
:1006D8009E6101209E6101206E6101209E610120C2
:1006E8009E6101209E6101209E61012080610120A0
:1006F80080610120806101208061012080610120EA
:1007080080610120806101208061012080610120D9
:1007180080610120806101208061012080610120C9
:100728008061012080610120806101200062012038
:10073800386501201C650120000000000000000051
:100748000000000000000000E2620120000000003C
:10075800C4640120F06401200000000000000000D3
:100768000000000000000000000000000000000081
:1007780000000000000000008C650120000000005F
:100788000000000000000000000000000000000061
:10079800A8650120186601205E660120C466012054
:1007A8003A67012050670120646701207A670120B9
:1007B8008E670120F067012052680120B26801208D
:1007C800D268012018690120466901206469012066
:1007D80084690120806D01200000000000000000F5
:1007E8000000000000000000000000000000000001
:1007F800D86E0120000000009A6F0120EA6F0120E6
:1008080000000000000000006A7001203A7001201A
:10081800EC6B01208A6B0120000000000000000042
:100828000000000000000000927001202E710120DD
:10083800CA7101203E720120010000002000000062
:10084800001BB70000366E01010000001F00000009
:10085800030000003F00000001000000200000002D
:1008680000366E01006CDC02030000001F0000006F
:10087800020000003F00000001000000100000001E
:10088800808D5B00001BB700000000001F00000007
:10089800030000003F0000000100000010000000FD
:1008A800001BB70000366E01010000001F000000A9
:1008B800020000003F0000000100000010000000DE
:1008C80000366E01006CDC02030000001F0000000F
:1008D800020000001F0000000100000008000000E6
:1008E800808D5B00001BB700000000001F000000A7
:1008F800030000001F0000000100000008000000C5
:10090800001BB70000366E01010000001F00000048
:10091800020000001F0000000100000008000000A5
:1009280000366E01006CDC02030000001F000000AE
:10093800020000000F000000010000000400000099
:10094800808D5B00001BB700000000001F00000046
:10095800030000000F000000010000000400000078
:10096800001BB70000366E01010000001F000000E8
:10097800020000000F000000010000000400000059
:1009880000366E01006CDC02030000001F0000004E
:100998000200000007000000010000000200000043
:1009A800808D5B00001BB700000000001F000000E6
:1009B800020000000F00000001000000020000001B
:1009C800001BB70000366E01010000001F00000088
:1009D800010000000F0000000100000002000000FC
:1009E80000366E01006CDC02030000001F000000EE
:1009F80001000000070000000200000001000000E4
:100A0800808D5B00001BB700000000001F00000085
:100A180001000000070000000200000001000000C3
:100A2800001BB70000366E01010000001F00000027
:100A380001000000030000000200000001000000A7
:100A480000366E01006CDC02030000001F0000008D
:100A580003000000FFFFFFFF04000000010000008A
:100A6800808D5B00001BB700000000001F00000025
:100A78000300000000000000040000000100000066
:100A8800001BB70000366E01010000001F000000C7
:100A980003000000FFFFFFFF04000000010000004A
:100AA80000366E01006CDC02030000001F0000002D
:100AB80002000000FFFFFFFF060000000100000029
:100AC800808D5B00AAC2A200000000002300000085
:100AD8000100000002000000060000000100000004
:100AE800AAC2A200001BB700000000001700000007
:100AF80003000000FFFFFFFF0600000001000000E8
:100B0800001BB7000024F400010000002F000000C3
:100B180003000000FFFFFFFF0600000001000000C7
:100B28000024F40080A81201010000001700000052
:100B380002000000FFFFFFFF0600000001000000A8
:100B480080A812015585450102000000230000001D
:100B580002000000FFFFFFFF080000000100000086
:100B6800808D5B00001BB700000000001F00000024
:100B780003000000FFFFFFFF080000000100000065
:100B8800001BB70000366E01010000001F000000C6
:100B980002000000FFFFFFFF080000000100000046
:100BA80000366E01006CDC02030000001F0000002C
:100BB80001000000FFFFFFFF0A0000000100000025
:100BC800808D5B00007C9200000000002700000080
:100BD80003000000FFFFFFFF0A0000000100000003
:100BE800007C9200001BB70000000000130000000A
:100BF80002000000FFFFFFFF0A00000001000000E4
:100C0800001BB70000F824010100000027000000C5
:100C180002000000FFFFFFFF0A00000001000000C3
:100C280000F8240100366E010100000013000000E6
:100C380001000000FFFFFFFF0A00000001000000A4
:100C480000366E0100F04902030000002700000092
:100C580001000000FFFFFFFF0C0000000100000082
:100C6800808D5B0000127A00000000002F00000059
:100C780003000000FFFFFFFF0C0000000100000060
:100C880000127A00001BB7000000000017000000E7
:100C980002000000FFFFFFFF0C0000000100000041
:100CA800001BB7000024F400010000002F00000022
:100CB80002000000FFFFFFFF0C0000000100000021
:100CC8000024F40000366E01010000001700000047
:100CD80001000000FFFFFFFF0C0000000100000002
:100CE80000366E0180C3C901030000002F00000018
:100CF80001000000FFFFFFFF0C00000001000000E2
:100D080080C3C9010048E801030000002F0000006B
:100D180001000000FFFFFFFF0E00000001000000BF
:100D2800808D5B00B6A1680000000000370000005D
:100D380003000000FFFFFFFF0E000000010000009D
:100D4800B7A16800001BB700000000001B000000EE
:100D580002000000FFFFFFFF0E000000010000007E
:100D6800001BB7006D43D1000100000037000000F0
:100D780002000000FFFFFFFF0E000000010000005E
:100D88006E43D10000366E01010000001B00000018
:100D980001000000FFFFFFFF0E000000010000003F
:100DA80000366E01DB86A201030000003700000058
:100DB80001000000FFFFFFFF10000000010000001D
:100DC800808D5B00001BB700000000001F000000C2
:100DD80002000000FFFFFFFF1000000001000000FC
:100DE800001BB70000366E01010000001F00000064
:100DF80001000000FFFFFFFF1200000001000000DB
:100E0800808D5B00AAC2A200000000002300000041
:100E180002000000FFFFFFFF1200000001000000B9
:100E2800ABC2A200001BB7000000000011000000C8
:100E380001000000FFFFFFFF12000000010000009A
:100E4800001BB70055854501010000002300000084
:100E580001000000FFFFFFFF140000000100000078
:100E6800808D5B00007C92000000000027000000DD
:100E780002000000FFFFFFFF140000000100000057
:100E8800007C9200001BB700000000001300000067
:100E980001000000FFFFFFFF140000000100000038
:100EA800001BB70000F82401010000002700000023
:100EB80001000000FFFFFFFF160000000100000016
:100EC800808D5B00E82A8500000000002B000000F0
:100ED80002000000FFFFFFFF1600000001000000F5
:100EE800E92A8500001BB70000000000150000007B
:100EF80001000000FFFFFFFF1600000001000000D6
:100F0800001BB700D1550A01010000002B000000AA
:100F180001000000FFFFFFFF1800000001000000B3
:100F2800808D5B0000127A00000000002F00000096
:100F380002000000FFFFFFFF180000000100000092
:100F480000127A00001BB700000000001700000024
:100F580001000000FFFFFFFF180000000100000073
:100F6800001BB7000024F400010000002F0000005F
:100F780001000000FFFFFFFF1A0000000100000051
:100F8800808D5B0027AE7000000000003300000079
:100F980002000000FFFFFFFF1A0000000100000030
:100FA80028AE7000001BB700000000001900000008
:100FB80001000000FFFFFFFF1A0000000100000011
:100FC800001BB7006658E100010000003300000074
:100FD80001000000FFFFFFFF1C00000001000000EF
:100FE800808D5B00B6A1680000000000370000009B
:100FF80002000000FFFFFFFF1C00000001000000CE
:10100800B7A16800001BB700000000001B0000002B
:1010180001000000FFFFFFFF1C00000001000000AE
:10102800001BB7006D43D10001000000370000002D
:1010380001000000FFFFFFFF1E000000010000008C
:10104800808D5B0000A86100000000003B000000EC
:1010580002000000FFFFFFFF1E000000010000006B
:1010680000A86100001BB700000000001D00000080
:1010780001000000FFFFFFFF1E000000010000004C
:10108800001BB7000050C300010000003B00000037
:1010980001000000FFFFFFFF20000000010000002A
:1010A800808D5B00001BB700000000001F000000DF
:1010B80001000000FFFFFFFF627501200676012096
:1010C800CA7901206C820120EA8201200283012072
:1010D8001E8301206C830120508301208883012016
:1010E800BE830120AC850120728401208A840120FE
:1010F800A6840120F4840120D884012010850120D1
:1011080046850120967F0120567F0120DC7F012043
:10111800068001203280012078800120B8800120DB
:10112800F88001203E8101207E810120E08101209C
:101138002A82012030840120B8850120D885012029
:10114800788C0120168A0120F2880120588A012013
:10115800AE8A0120CE8A0120CE870120EE870120A9
:101168000E8801204888012080880120BA88012043
:10117800228901206C8901209C890120E6890120AF
:1011880000000080C072012044730120C073012058
:1011980034740120427B0120707B01207090012073
:0411A8008E90012004
:10120000011122CE0010F32740302326F4FE0327DD
:10121000C4FE856793870780F98F85EB0327C4FE9B
:10122000856793870780D98F2326F4FE8327C4FE22
:1012300073904730B727000C23A00700B727000C96
:10124000910723A00700814711A0FD573E857244F6
:1012500005618280011106CE22CC0010B717000C68
:101260009C432326F4FEB707200C91079C432324BC
:10127000F4FE032584FEEF10105B2A87AE873A85C3
:10128000BE85EF10F0622A87AE87B706012003A65D
:10129000863C83A6C63C3A85BE85EF1040712A87FE
:1012A000AE873A85BE85EF101052AA872322F4FE3E
:1012B000B71700809386C7B6032744FEBA87860710
:1012C000BA978A07B697DC4391CFB7170080938609
:1012D000C7B6032744FEBA878607BA978A07B69728
:1012E0009C4382970100F2406244056182800111B3
:1012F00006CE22CC0010F32700302326F4FE8327ED
:10130000C4FEA18B95EB232404FE832784FE7390F7
:101310004730B71701209387073873905730CD3582
:101320008327C4FE93E787002326F4FE8327C4FEA9
:1013300073900730814711A0FD573E85F24062440B
:101340000561828000000000000000000000000035
:10135000000000000000000000000000000000008D
:10136000000000000000000000000000000000007D
:10137000000000000000000000000000000000006D
:101380001D7186CE96CC9ACA9EC8A2C6AAC4AEC209
:10139000B2C036DE3ADC3EDA42D846D672D476D2D5
:1013A0007AD07ECE8010731505340CC150C114C59F
:1013B00058C5F32720342326F4FA8327C4FA63DFC1
:1013C00007008327C4FA9D8B91EB8327C4FA8D8B8A
:1013D00091E78327C4FAAD8B91C3AD3D58451445C1
:1013E00050410C4173150534730020300100F64064
:1013F000E6425643C6433644264596450646F256CF
:101400006257D2574258B258225E925E025FF24F44
:101410002561730020300000000000000000000083
:1014200000000000000000000000000000000000BC
:10143000000000000000000000000000797122D6CA
:101440000018232EA4FC232CB4FC0327C4FDCD4795
:1014500063F4E700FD57E5A8B70701201387873637
:101460008327C4FD8A07BA9783C717002326F4FE93
:10147000B7270110910798438327C4FE8546B39789
:10148000F600BE86B72701109107558F98C3B7277E
:10149000011098438327C4FE8546B397F60093C78F
:1014A000F7FFBE86B7270110758F98C3B7270110C5
:1014B000A10798438327C4FE8546B397F60093C7D8
:1014C000F7FFBE86B7270110A107758F98C3B7270E
:1014D00001109387070498438327C4FE8546B3977A
:1014E000F60093C7F7FFBE86B7270110938707045E
:1014F000758F98C3032784FD85476312F702B727CA
:101500000110C10798438327C4FE8546B397F600B0
:10151000BE86B7270110C107558F98C305A883273A
:1015200084FD9DE3B7270110C10798438327C4FEBC
:101530008546B397F60093C7F7FFBE86B72701101D
:10154000C107758F98C319A0FD5711A081473E852B
:10155000325445618280797122D60018232EA4FC72
:10156000232CB4FC232AC4FC2328D4FC0327C4FD69
:10157000CD4763F4E700FD5745AA032744FD9D4787
:1015800063F4E700FD574DA2B707012013878736A4
:101590008327C4FD8A07BA9783C717002326F4FE62
:1015A0008327C4FE13878700832684FDB717008036
:1015B0001386C7B6BA878607BA978A07B29794C3C5
:1015C0008327C4FE13878700B71700809386C7B6AA
:1015D000BA878607BA978A07B6970547D8C383277D
:1015E000C4FE13878700B71700809386C7B6BA87F3
:1015F0008607BA978A07B697032744FD98C78327BB
:10160000C4FE13878700FD4763F3E702B727000C8A
:10161000910798438327C4FEDD078546B397F600FC
:10162000BE86B727000C9107558F98C339A8B727F6
:10163000000C98438327C4FEA1078546B397F600A4
:10164000BE86B727000C558F98C30327C4FEB70783
:101650000003A107BA978A073E87832744FD1CC36E
:10166000032704FD8D47630EF708032704FD8D470C
:1016700063EBE70A032704FD89476302F7060327A4
:1016800004FD894763E1E70A832704FD99C703271F
:1016900004FD85476303F70279A0B7270110E1072E
:1016A00098438327C4FE8546B397F600BE86B727C6
:1016B0000110E107558F98C3BDA0B727011093878C
:1016C000070298438327C4FE8546B397F600BE867B
:1016D000B727011093870702558F98C3A9A0B72792
:1016E00001109387870298438327C4FE8546B397EA
:1016F000F600BE86B727011093878702558F98C3DF
:101700001DA0B72701109387070398438327C4FEC2
:101710008546B397F600BE86B72701109387070367
:10172000558F98C3010081473E85325445618280C0
:10173000411122C60008B7870010A1073707020031
:101740001307176798C30100B7870010A1079C43D0
:10175000B7870010A1079443B7870010A10741671E
:10176000558F98C3B717008037D7121323A0E7AA65
:101770000100324441018280011106CE22CC0010CA
:10178000453FB5362324A4FE85461546B7170120EC
:101790009385677C0D45C13385450D45453123242F
:1017A000A4FE232604FE31A08327C4FE850723263A
:1017B000F4FE0327C4FEE1679387F769E3D6E7FEEB
:1017C0007300501001A0011106CE22CC0010B70703
:1017D00001201385873B2520B727011093874702F7
:1017E0009C432326F4FEB727011093874702032763
:1017F000C4FE98C30100F2406244056182805D71BD
:1018000022D406D62A842EDA32DC36DEBAC0BEC234
:10181000C2C4C6C617F5FE5F0325052911C51C4DB8
:1018200081E72AC6F12032450C455418228636CE6F
:101830000521B250225461618280411122C406C642
:101840002A842316B5002317C50023200500232270
:101850000500232405002322050623280500232A4A
:101860000500232C0500214681451305C505CD2A19
:10187000970700009387676A5CD0970700009387FB
:10188000E76C1CD497070000938727715CD49707F7
:1018900000009387E773B24000D01CD82244410176
:1018A000828097150000938585AAB1A2411126C2B6
:1018B000130680069384F5FFB384C4024AC02E89C0
:1018C00022C406C69385440781242A8419C923208B
:1018D000050023222501310508C4138684068145AD
:1018E0004122B24022852244924402494101828031
:1018F0001C4DBDE3411122C406C697070000938723
:1019000087FA1CD52324050423260504232805046F
:101910009707000083A787872A846314F50085470B
:101920001CCD22851D2848C02285052808C4228593
:101930002D2048C4484001469145013708440546DA
:10194000A545E53D48440946C945C53D8547B240E2
:101950001CCC2244410182808280411126C297041E
:10196000000083A4A4829C4C4AC006C622C42A89D3
:1019700099E32685B53F938484048044DC40FD17B9
:1019800063D607009C40B1CF8440C5BF0317C40095
:1019900031E7C17785072322040623200400232290
:1019A0000400232404005CC423280400232A040028
:1019B000232C0400214681451305C4055520232A04
:1019C0000402232C04022324040423260404B2402A
:1019D00022852244924402494101828013048406F4
:1019E00079BF91454A85D93588C02A8451FDB147D0
:1019F0002320F900E9BF797122D44AD04ECE52CCCF
:101A00005AC85EC606D626D256CA2A892E8A13041A
:101A100085048149054BFD5B0444832A4400FD1A7B
:101A200063D00A0200406DF8B25022549254025919
:101A3000624AD24A424BB24B4E85F249456182809E
:101A400083D7C400637BFB008397E400638777013F
:101A5000A6854A85029AB3E9A90093848406C1B792
:101A60003D432A876373C3029377F700BDEFADE56B
:101A7000937606FF3D8ABA960CC34CC30CC74CC77D
:101A80004107E36BD7FE11E28280B306C3408A06AA
:101A90009702000096966780A6002307B700A3066A
:101AA000B7002306B700A305B7002305B700A304BA
:101AB000B7002304B700A303B7002303B700A302B2
:101AC000B7002302B700A301B7002301B700A300AA
:101AD000B7002300B700828093F5F50F9396850039
:101AE000D58D93960501D58D61B793962700970202
:101AF000000096968682E78086FA9680C1171D8F31
:101B00003E96E374C3F8A5B7011126CA9384350045
:101B1000F1984AC806CE22CC4EC6A104B1472A8904
:101B200063F6F404B14463E5B4044A85EF00B01CE5
:101B300097F6FE5F938686F998423A8429E417F473
:101B4000FE5F1304E4F81C4089E781454A85612E55
:101B500008C0A6854A85412EFD59631A3507B1474D
:101B60002320F9004A85EF00301931A0E3DD04FAA3
:101B7000B1472320F9000145F2406244D244424972
:101B8000B249056182801C40858F63CF07022D46D4
:101B90006376F6001CC03E9404C029A05C40631329
:101BA00087029CC24A85EF0030151305B4009307E5
:101BB000440061993307F540E300F5FC3A94898FBE
:101BC0001CC05DBF5CC3F9BF2287404085BF1304C2
:101BD00035007198E30285FCB305A4404A852126AF
:101BE000E31C35FBADBF1C46FD171CC663D90700BF
:101BF000184E63C5E700A9476393F500D9AE1C42B0
:101C00002E851387170018C22380B7008280011128
:101C100022CC26CA4AC84EC652C406CE2A89AE89EC
:101C20003284B304D6007D5A63149400014509A898
:101C3000834504004E864A857D370504E31645FF3B
:101C4000F2406244D2444249B249224A056182804C
:101C5000357122CD26CB4AC94EC706CF52C556C3D1
:101C60005AC1DEDEE2DCE6DAAA89AE843289368445
:101C700001C51C4D91E3AD3997E7FFFF9387877747
:101C8000639CF40C83A4490083D7C400A18BFDC7D7
:101C90009C48EDC793070002A304F10293070003D9
:101CA00002D22305F10222C6930B500297EAFFFFEE
:101CB000938A4A78054C294B4A848347040099C388
:101CC0006390770FB30C2441630D2401E6864A86A6
:101CD000A6854E852D3FFD576304F51E9257E69766
:101CE0003ED283470400638D071CFD57130914007F
:101CF00002C802CE3ECA02CCA309010482D48345A5
:101D0000090015465685EF00607DC247130419008F
:101D100051E913F7070109C713070002A309E104FA
:101D200013F7870009C71307B002A309E10483462C
:101D300009001307A002638FE606F2474A84814632
:101D400025460347040093051400130707FD637835
:101D5000E60AADCA3ECEBDA097E7FFFF9387876B2B
:101D60006395F40083A4890005B797E7FFFF938785
:101D70006766E39BF4F083A4C90039B7A6854E8556
:101D8000A12609D97D55FA406A44DA444A49BA493C
:101D90002A4A9A4A0A4BF65B665CD65C0D618280E1
:101DA000050421BF330555413315AC00C98F3EC82A
:101DB0002289B1B7324793064700184336C66349B4
:101DC00007023ACE034704009307E002631FF704BB
:101DD000034714009307A002631BF702B2470904EC
:101DE000138747009C433AC663C107023ECA35A821
:101DF0003307E04093E727003ACE3EC8E1B7B38708
:101E000067032E848546BA972DBFFD57C5B70504D5
:101E100002CA814681472546034704009305140002
:101E2000130707FD6374E606F1F2834504000D46CF
:101E300017E5FFFF13058560552511CD97E7FFFFD7
:101E40009387C75F1D8D93070004B397A700424592
:101E500005045D8D2AC883450400194617E5FFFF78
:101E60001305055E130914002304B102852D2DC14D
:101E70009307000095E74247B2471377071009CF51
:101E800091073EC69257D2973ED23DB5B3876703BE
:101E90002E848546BA9749B79D07E19BA107D5B720
:101EA0007800970600009386C6D626860C084E85D5
:101EB00097000000E7000000FD572A8AE314F5FCB4
:101EC00083D7C40093F70704E39E07EA125565BD64
:101ED0007800970600009386C6D326860C084E85A8
:101EE000EF00807CD1BF411122C42A842E8597F750
:101EF000FE5F23A107BE06C6EF106045FD576318BD
:101F0000F50097F7FE5F83A7E7BC91C31CC0B24002
:101F1000224441018280411122C42E848395E50030
:101F200006C6EF00701F634905007C48AA977CC86D
:101F3000B2402244410182808357C4007D777D17DF
:101F4000F98F2316F400EDB783D7C500011122CC19
:101F500026CA4AC84EC606CE93F70710AA842E8416
:101F60003289B68991C78395E50089460146892162
:101F70008357C4007D777D17F98F8315E4002316FE
:101F8000F4006244F240CE864A86B2494249268530
:101F9000D244056101A2411122C42E848395E5003B
:101FA00006C63921FD570357C400631BF500FD77B2
:101FB000FD17F98F2316F400B240224441018280BC
:101FC0008567D98F2316F40068C8FDB78395E500AF
:101FD00011A4011122CC26CA4AC806CE4EC6AA8434
:101FE0002E89328409C51C4D99E3EFF07F9097E765
:101FF000FFFF938727406319F406C0401C4C1CC4A4
:102000008357C400A18BC9C31C48BDCF1C480840DE
:102010009379F90F1379F90F1D8D5C486346F5002C
:10202000A28526851D262DE51C440505FD171CC42B
:102030001C401387170018C0238037015C48638950
:10204000A7008357C400858B81CBA9476316F9008D
:10205000A2852685DD2C0DEDF2406244D244B249C2
:102060004A8542490561828097E7FFFF9387873A57
:102070006314F400804459B797E7FFFF93878735CF
:10208000E31EF4F6C0449DBFA285268535283DDDBC
:102090007D59D9B7411122C42A842E85B28536864E
:1020A00097F7FE5F23A807A206C6EF102032FD5760
:1020B0006318F50097F7FE5F83A7C7A191C31CC003
:1020C000B240224441018280411122C426C24AC04A
:1020D00006C697F4FE5F83A4249D2A892E8491C4AA
:1020E0009C4C81E72685EFF0BF8097E7FFFF938741
:1020F00067306317F402C0408317C40013970701C9
:1021000093F687004183ADEA9376070195EA254768
:102110002320E90093E707042316F4007D5571A8F6
:1021200097E7FFFF9387072F6314F4008044E9B714
:1021300097E7FFFF9387072AE310F4FCC0446DBFC5
:10214000118B0DC74C5889C9930744046384F5006B
:102150004A856526232A04028357C40023220400EB
:1021600093F7B7FD2316F4001C481CC08357C40026
:1021700093E787002316F4001C4881EF8357C400BF
:102180001307002093F707286385E700A2854A8597
:102190007D248317C4001397070193F6170041832A
:1021A0009DC2544823240400B306D04014CC1448E4
:1021B000014581E61377070831FFB240224492447B
:1021C00002494101828093762700014691E25048FE
:1021D00010C4F1BF411122C42A842E8597F7FE5FF7
:1021E00023AA078E06C6EF10C00AFD576318F50034
:1021F00097F7FE5F83A7078E91C31CC0B2402244AD
:102200004101828083D7C500011122CC26CA06CEA7
:102210004AC84EC613F78700AA842E8475E3D841B6
:102220006347E000B8416344E000014575A8585495
:102230006DDF856603A90400F58F23A00400A5CFF8
:1022400068488357C400918B99C75C401D8D5C58CA
:1022500099C33C401D8D5C540C502A8681462685CE
:102260008297FD570357C400631DF5009440F5475E
:1022700063E3D708B70740208507B3D7D700858B1E
:10228000BDCB1C48232204001CC085677D8F19C765
:10229000FD576314F5009C4091E368C84C5823A097
:1022A0002401C1D5930744046384F5002685B12435
:1022B000232A04029DBF0C508546014626850297BD
:1022C000FD57E310F5F89C40ADDF75476385E700E7
:1022D00059476395E70023A0240181BF8357C400B9
:1022E00093E707042316F400F2406244D2444249C3
:1022F000B24905618280136707042316E400EDB735
:1023000083A90501E38309F203A905008D8B23A0AE
:10231000350133093941014791E3D84918C4E356DF
:1023200020F11C540C50CA864E8626858297634A3B
:10233000A0008357C4007D5593E707042316F400DB
:1023400065B7AA993309A940D9BF9C49A5C3011112
:1023500022CC06CE2A8419C51C4D89E72EC6EFF083
:102360002FD9B24597E7FFFF9387C708639BF50016
:102370004C408397C50095C722856244F2400561B1
:1023800051B597E7FFFF9387E7086394F5000C4486
:10239000CDB797E7FFFF9387E703E39CF5FC4C4439
:1023A000C9BFF240624401450561828001458280D7
:1023B000411122C42A842E85B285368697E7FE5FB6
:1023C00023AA077006C6EF005073FD576318F50087
:1023D00097E7FE5F83A7077091C31CC0B2402244F9
:1023E000410182805971CAD02E898395E500A2D41B
:1023F000A6D286D63284B68463DC05008317C90072
:1024000023A0040093F707088DE39307004005A07D
:1024100030002D2BE34405FE3247BD67F98F7977F5
:10242000BA9793B717009CC0CDB793070004B65076
:102430001CC026549654065901456561828083D795
:10244000C500011122CC06CE26CA4AC8898B2E842B
:1024500089CF930774041CC01CC885475CC8F24030
:102460006244D244424905618280740030002A8966
:10247000953FA245AA844A85EFF00FE901ED831745
:10248000C40013F7072061FFF19B93E72700231691
:10249000F400C1B797F7FFFF9387E7402324F902C1
:1024A0008357C40008C008C893E707082316F40040
:1024B000A2475CC8B24789CF8315E4004A85C12191
:1024C00001C98357C400F19B93E717002316F4005A
:1024D0000355C400C98C2316940051B793F5F50F2A
:1024E0002A966314C5000145828083470500E38D69
:1024F000B7FE0505FDB782808280C5C183A7C5FFF1
:10250000011122CC06CE1384C5FF63D307003E948D
:102510002AC6D53717E7FE5F1307475B1C433245D2
:1025200081EB2322040000C36244F2400561E9B755
:10253000637DF4001040B306C4006396D700944353
:10254000DC43B29614C05CC0F9BF3E87DC4399C33C
:10255000E37DF4FE14433306D700631F860010406A
:10256000B29614C33306D700E390C7FC9043DC4314
:10257000B29614C35CC34DBF6375C400B1471CC1A0
:1025800065B71040B306C4006396D7009443DC439C
:10259000B29614C05CC040C341BF8280797152CCF6
:1025A0009C493A8A984522D426D24ECE56CA06D69F
:1025B0004AD05AC85EC6AA892E84B284B68A63D32A
:1025C000E700BA879CC00347340419C385079CC041
:1025D0001C4093F7070281C79C4089079CC00329D0
:1025E000040013796900631A0900130B9401FD5B61
:1025F0005C449840998F634CF90483473404B336A4
:10260000F0001C4093F70702A5EB13063404D685AF
:102610004E85029AFD576303F5041C40114698400D
:10262000998B544481446397C700B384E64063D3D5
:10263000040081441C4418486354F700998FBE94E9
:10264000014969047D5B63982405014509A8854615
:102650005A86D6854E85029A631E75017D55B25005
:10266000225492540259F249624AD24A424BB24B26
:10267000456182800509ADBF3307D400130600030E
:10268000A301C7040347540493871600A297890641
:10269000A381E7049DBF85462286D6854E85029A92
:1026A000E30E65FB050945B7797122D426D24AD0DD
:1026B0004ECE06D652CC56CA5AC803C885019307D7
:1026C0008007AA842E843289B68963EE07019307B6
:1026D00020069386350463ED07016305081C930704
:1026E0008005630AF812930A24042301040515A83F
:1026F0009307D8F993F7F70F5546E366F6FE17E60A
:10270000FFFF1306E6D68A07B2979C43B2978287EB
:102710001C43938A2504938647009C4314C323815A
:10272000F50485475DA29C41084313F6070893050D
:1027300045000DC21C410CC363D807001307D0022B
:10274000B307F040A301E40417E6FFFF1306C6CF6A
:102750002948A1A013F607041C410CC371DEC2076F
:10276000C187D9BF90411C43137506089385470064
:1027700001C50CC39C4339A0137606040CC37DDA53
:1027800083D707001307F00617E6FFFF1306C6CB33
:102790006304E80E2948A3010404584018C46345A3
:1027A00007000C40ED990CC099E3B68A19CFB68AA0
:1027B00033F70703FD1A3297034707002380EA0027
:1027C0003E87B3D70703E37507FFA147631EF800F1
:1027D0001C40858B91CB58401C4863C7E70093078A
:1027E0000003A38FFAFEFD1AB386564114C84E8724
:1027F000CA867000A285268555337D5A631B450D18
:102800007D55B250225492540259F249624AD24A3A
:10281000424B45618280A382050517E6FFFF130640
:10282000A6C20C40084313F805081C411105630DAE
:10283000080208C313F7150001C793E505020CC091
:102840004148B1FB18401377F7FD18C0A9B79C4168
:1028500093E707029CC193078007A302F40417E6DD
:10286000FFFF1306A6BF75BF13F8050408C3E303F3
:1028700008FCC207C1837DBF214831BF90411C4382
:10288000CC4913780608138547006306080008C37F
:102890009C438CC301A808C3137606049C4375DAD5
:1028A0002390B70023280400B68A91B71C43D04177
:1028B00081459386470014C383AA0700568539399A
:1028C00001C53305554148C05C401CC8A301040440
:1028D00039BF14485686CA8526858299E30245F396
:1028E0001C40898B8DE7B2474844E35CF5F03E8598
:1028F00009BF85465686CA8526858299E30265F119
:10290000050A5C443247998FE345FAFEE9BF014A64
:10291000930A94017D5BF5B7411122C42A842E8568
:10292000B285368697E7FE5F23A6071A06C6EF0034
:10293000701FFD576318F50097E7FE5F83A787199F
:1029400091C31CC0B240224441018280411122C483
:102950002A842E85B28597E7FE5F23AD071606C64B
:10296000EF005015FD576318F50097E7FE5F83A74A
:10297000671691C31CC0B2402244410182804111BC
:1029800022C42A842E8597E7FE5F23A5071406C676
:10299000EF00B014FD576318F50097E7FE5F83A7BB
:1029A000671391C31CC0B2402244410182803708A2
:1029B00010007D180111B377B80013D745013378A3
:1029C000D80013D3460122CC8E071374F77F135718
:1029D000D50126CAD98F93D4F5011357D601931583
:1029E00035000E0806CE4AC84EC61373F37F130592
:1029F000F07FFD82336707010E066315A300336580
:102A0000C70019E193C61600330864406398962204
:102A10006353000F63180302B366C700638106584F
:102A20001305F8FF09E92E963335B600BA97AA9731
:102A3000B2850544B9A89306F07F631DD80013043E
:102A4000F07F4DA29306F07F630ED418B706800086
:102A5000558F42859306800363CBA608FD4663C26B
:102A6000A606130800023308A840B3160701B3589E
:102A7000A60033160601B3E616013336C000558EA4
:102A80003357A7002E963335B6003E97B307A700FD
:102A9000B285370780007D8F63060714050413078E
:102AA000F07F630BE448370780FF7D17F98F13F53C
:102AB000150013D71500598D9395F701C98D85839E
:102AC00015A2930605FE93080002B356D7000148ED
:102AD00063081501130800043305A8403318A70044
:102AE0003366C8003336C000558E014761BF598E2A
:102AF0003336C000DDBF630B080A330583400DE4A5
:102B0000B3E6B700638106429306F5FF99E6B295F6
:102B1000BA9733B6C500B29729BF1308F07F631D7B
:102B20000501BA87B28521BF9306F07FE30BD3FE80
:102B3000B7068000D58FAA86130580036343D506A8
:102B40007D45634BD502130800023308D840339506
:102B50000701B3D8D500B395050133651501B33529
:102B6000B0004D8DB3D7D700B305C500BA9733B6C3
:102B7000C500B2971A8431BF138506FE9308000280
:102B800033D8A70001456387160113050004158D8E
:102B90003395A7004D8D3335A0003365A8008147DC
:102BA000E1B733E5B7003335A000D5BF9306140075
:102BB00013F5E67F3DE1B3E6B70029E46389063605
:102BC000B366C70085C22E96BA973335B600AA976A
:102BD000370780007D8FB28511C7370780FF7D17CB
:102BE000F98F054413F77500630A073413F7F500EE
:102BF00091466305D734138745003335B700AA974C
:102C0000BA852DAE99DE598EE30B06E28144B707F3
:102C1000400081451304F07F15A61305F07F638BF8
:102C2000A6302E963335B600BA97AA971395F701BA
:102C30000582B365C500858336846DB76356000D84
:102C400063110308B366C700638B06341305F8FFEE
:102C500011E93386C54033B5C500998F898FB28598
:102C60000544B1A09306F07FE30BD8DC9306800304
:102C700063C8A608FD4663CFA60413080002330804
:102C8000A840B3160701B358A60033160601B3E6F1
:102C900016013336C000558E3357A7003386C54022
:102CA00033B5C5003387E740B307A740B28537097E
:102CB000800033F727011DD77D1933F92701AE892D
:102CC0005DAA9306F07FE30FD4F0B7068000558F1E
:102CD000428569BF930605FE93080002B356D700EC
:102CE000014863081501130800043305A840331890
:102CF000A7003366C8003336C000558E014779BF40
:102D0000598E3336C000DDBF6305080C33058340A0
:102D10001DE833E8B700630608281308F5FF631BB6
:102D20000800B305B640B307F7403336B600918FBD
:102D3000B6843DB79308F07F63101503BA87B28558
:102D40001304F07F7DA01308F07FE30903FF370829
:102D50008000B3E707012A8813058003634605074F
:102D60007D45634D050393080002B3880841339500
:102D7000170133DE0501B39515013365C501B33580
:102D8000B0004D8DB3D70701B305A640B307F74098
:102D90003336B600918F1A84B68411BF130508FE2E
:102DA000130E0002B3D8A70001456308C80113053C
:102DB0000004330505413395A7004D8D3335A00040
:102DC00033E5A8008147C9B733E5B7003335A00024
:102DD000D5BF130514001375E57F25E933E8B70067
:102DE0003365C70021E8631808006300051CBA8733
:102DF000B285B684C5BBE30705DE3388C540B3B8EA
:102E000005013385E74033051541B7088000B378E5
:102E10001501638A0800B305B640B307F74033369F
:102E2000B600918FF9B7B365A80063840518AA8727
:102E3000C2854DBB63180800630F0516BA87B285BB
:102E4000B684F5BEE30D05BED1B3B389C54033B535
:102E500035013389E7403309A940370580003375D0
:102E6000A9003DC5B309B640B307F7403336360174
:102E70003389C740B684630309064A85E52A1307E8
:102E800085FFFD4763C1E70693070002998F331959
:102E9000E900B3D7F900B3E72701B395E900634E22
:102EA0008706018F930617007D466344D6041307F7
:102EB0000002158F3396E70033D5D500B395E500B2
:102EC000498EB335B000D18DB3D7D700014419BBBB
:102ED000B3E52901CDF181470144D1A84E85592A96
:102EE0001305050269BF930785FDB397F900814576
:102EF0007DB705171306000233D7E7000145638746
:102F0000C60013050004158D3395A7004D8D33358C
:102F1000A000B365A700814755BF198C370780FF14
:102F20007D17F98FC1B1BA87B2852A8465B9BA878E
:102F3000B2854DB91304F07F814781453707800082
:102F40007D8F11CB05041307F07F630BE406370771
:102F500080FF7D17F98F1397D70113D53500598D51
:102F60001307F07F8D836319E4005D8D814709C5E8
:102F7000B70708000145814413174401B706F07FE5
:102F8000B207F2406244758FB183FE04D98F33E7F4
:102F900097004249D244B249BA8505618280428491
:102FA00091B1BA87B2852A84A9B581478145814408
:102FB00071B78147EDBF81458144B707400099B99A
:102FC0008147814549BF13D7450137081000930752
:102FD000F8FF1377F77F1306E03FED8FAA86FD8198
:102FE0006351E6041306F0410D8E1385F5FF635B14
:102FF000C702014585E913053043198D7D46B3E7C6
:103000000701634AA6001307D7BEB397E70033D57D
:10301000A6005D8D828013053041198D33D5A70040
:10302000828001458280411122C406C62A8421C1C2
:1030300091201307E041A947098F63C4A702AD4758
:10304000898F5505B357F4003314A400B24022858C
:10305000B20722445207B183B366F700B685410137
:103060008280930755FFB317F4000144C5B7814729
:103070000147E9BFC1676376F5029307F00FB3B765
:10308000A7008E07130700021D8F3355F50097D751
:10309000FFFF938767433E95034505003305A7402F
:1030A000828037070001C147E36EE5FCE147D9BFE5
:1030B000011122CC26CA4AC84EC62E89AA8906CE3C
:1030C000B920AA842E844E86CA864E85CA85EF1002
:1030D000605B0DE5014681464E85CA85EF10000C08
:1030E000635E05008D2693071002014681461CC1D0
:1030F000B6853285EF009036AA842E84F240A285F0
:1031000062444249B2492685D24405618280411118
:103110003708F07F22C426C206C6B376B800AA8458
:103120002E84639406032A86AE86EF1080112A86C9
:10313000AE862685A285312BAA842E84B240A28534
:1031400022442685924441018280AE872A876341CA
:10315000B002939615008582C98EEDD291C92A8658
:10316000AE86EFF0DF842A86AE86EF00302FE9B717
:1031700093D6474163870610370610009305F6FF84
:10318000938616C0ED8FD18F13F6160011C6135615
:10319000F7018607B297060713DE16408607935697
:1031A000F701B697060759450146814537082000C3
:1031B000B388050163C71701B3850801B3871741B9
:1031C00042969356F70186077D15B6970607135862
:1031D000180079FD81461303000237080080B30808
:1031E000A80063C6F5006395B702636317033385D0
:1031F0000801AE8E63D6080063440500938E150067
:103200008D8F63731701FD1733071741C296F6853B
:103210009358F70186077D13C697060713581800C1
:10322000E31F03FAD98F91C7FD576391F606050690
:103230008146935716403707E03F058ABA97858243
:1032400001C637070080D98E13174E01B6843304A8
:10325000F700EDB59357B700AD155607E5DF370515
:10326000100033F6A70005C213060002158E335670
:10327000C7001385F6FF3317D700D18FB386A5405B
:10328000E5BD8145E1BF86078506E1BF8506F99A60
:103290004DB7011106CE22CC00102326A4FE6522D4
:1032A0002A87930780051CC3FD573E85F240624480
:1032B00005618280011106CE22CC00102326A4FED7
:1032C0002324B4FE49222A87930780FA1CC3FD57A2
:1032D0003E85F240624405618280011122CE0010D9
:1032E0002326A4FE8327C4FEFD1793B7170093F788
:1032F000F70F3E85724405618280011106CE22CC13
:1033000000102326A4FE2324B4FE2322C4FE252A73
:103310002A87930780051CC3FD573E85F24062440F
:1033200005618280011106CE22CC00102326A4FE66
:103330002324B4FE2322C4FE39222A879307800562
:103340001CC3FD573E85F24062440561828079715D
:1033500006D622D40018232EA4FCB717008083A71A
:1033600087AA2326F4FE138701F49387017463145C
:10337000F700FD57B9A0B717008003A787AA8327D6
:10338000C4FD3E97938701746376F702B7170080F8
:1033900003A787AA8327C4FD3E97B717008023A4FD
:1033A000E7AA8325C4FD0325C4FEEFC01FCE8327F3
:1033B000C4FE01A8B71700801387017423A4E7AAED
:1033C000FD573E85B250225445618280797106D600
:1033D00022D40018232EA4FC232CB4FC232AC4FCE2
:1033E0000327C4FD85476309F700B1282A8793079F
:1033F00080051CC3FD5735A8832784FD2324F4FED4
:10340000232604FE05A0032784FE8327C4FEBA9763
:1034100083C707003E85EF10003C8327C4FE850765
:103420002326F4FE0327C4FE832744FDE36DF7FC47
:1034300081473E85B250225445618280AA858146EB
:1034400001460145E9A017D5FE5F0325E5658280A9
:10345000411122C406C697070000938747132A84A8
:1034600099C381451D2217E5FFFF032525D21C5571
:1034700091C382972285EF50B043411122C426C2E6
:1034800017D4FFFF130404E797D4FFFF938484E667
:10349000058C06C6098411E4B240224492444101DD
:1034A00082807D1493172400A6979C438297E5B7EA
:1034B000411122C426C217D4FFFF1304A4E297D4FB
:1034C000FFFF938424E2818C4AC006C689840149A7
:1034D0006315990217D4FFFF1304C4E097D4FFFFCC
:1034E000938444E0818C89840149631D9900B24032
:1034F000224492440249410182801C400509110482
:103500008297F9B71C40050911048297F9BFAA8870
:1035100017D5FE5F1305455C1C4191EF17D7FE5F81
:103520001307475C18C113050000BA8709C51C4181
:103530002324F708BA87D8437D487D556346E804BD
:10354000638D080203A88708630008041315270089
:10355000429510C10323081005463316E600336375
:10356000C300232068102320D50889466397D8001C
:1035700083264810558E2322C810930617000A0789
:10358000D4C3BA978CC701458280797156CA5AC88C
:103590005EC662C406D622D426D24AD04ECE52CCC3
:1035A00066C22A8BAE8A97DBFE5F938BEB52054C8B
:1035B00083A40B0081CCC04083A984081309F4FFC5
:1035C0000A04338A89002694635F0900B2502254AA
:1035D00092540259F249624AD24A424BB24B224CAF
:1035E000924C45618280638C0A00639609007D19C4
:1035F000711A7114D1BF8327CA07E39A57FFD840C5
:103600005C407D176318270323A22401EDD383AC0C
:1036100044006388090083A6091033172C01F98E32
:1036200089EE8297D84083A70B00E31397F9E380D4
:10363000F4FCBDBF23220400D1BF83A6491083251B
:10364000CAFF758F01E75A858297E9BF2E85829759
:10365000D1BF370810007D180111B377B80013D718
:1036600045013378D80013D3460122CC8E0713745A
:10367000F77F1357D5010E0826CAD98F93D4F501C9
:103680001357D6011373F37F06CE4AC84EC6FD8288
:1036900033670701931535000E06330864406398BD
:1036A000D4226353000F63180302B366C700638319
:1036B00006581305F8FF09E92E963335B600BA9778
:1036C000AA97B2850544B9A89306F07F631DD80078
:1036D0001304F07F4DA29306F07F630ED418B70653
:1036E0008000558F42859306800363CBA608FD4674
:1036F00063C2A606130800023308A840B3160701E8
:10370000B358A60033160601B3E616013336C000DF
:10371000558E3357A7002E963335B6003E97B30724
:10372000A700B285370780007D8F63060714050464
:103730001307F07F630DE448370780FF7D17F98F8B
:1037400013F5150013D71500598D9395F701C98D01
:10375000858315A2930605FE93080002B356D70091
:10376000014863081501130800043305A840331805
:10377000A7003366C8003336C000558E014761BFCD
:10378000598E3336C000DDBF630B080A3305834012
:103790000DE4B3E6B700638306429306F5FF99E6AE
:1037A000B295BA9733B6C500B29729BF1308F07F18
:1037B000631D0501BA87B28521BF9306F07FE30B35
:1037C000D3FEB7068000D58FAA8613058003634316
:1037D000D5067D45634BD502130800023308D84057
:1037E00033950701B3D8D500B395050133651501AD
:1037F000B335B0004D8DB3D7D700B305C500BA9728
:1038000033B6C500B2971A8431BF138506FE9308FC
:10381000000233D8A7000145638716011305000491
:10382000158D3395A7004D8D3335A0003365A80065
:103830008147E1B733E5B7003335A000D5BF930624
:10384000140013F5E67F3DE1B3E6B70029E4638B8E
:103850000636B366C70085C22E96BA973335B600D2
:10386000AA97370780007D8FB28511C7370780FF81
:103870007D17F98F054413F77500630C073413F7B0
:10388000F50091466307D734138745003335B700F9
:10389000AA97BA853DAE99DE598EE30B06E28144C4
:1038A000B707400081451304F07F25A61305F07F7C
:1038B000638DA6302E963335B600BA97AA97139526
:1038C000F7010582B365C500858336846DB76356FD
:1038D000000D63110308B366C700638D063413053A
:1038E000F8FF11E93386C54033B5C500998F898F3C
:1038F000B2850544B1A09306F07FE30BD8DC9306B4
:10390000800363C8A608FD4663CFA604130800021F
:103910003308A840B3160701B358A60033160601B2
:10392000B3E616013336C000558E3357A7003386F1
:10393000C54033B5C5003387E740B307A740B2851C
:103940003709800033F727011DD77D1933F9270187
:10395000AE895DAA9306F07FE30FD4F0B70680002E
:10396000558F428569BF930605FE93080002B35642
:10397000D700014863081501130800043305A84067
:103980003318A7003366C8003336C000558E014790
:1039900079BF598E3336C000DDBF6305080C33058F
:1039A00083401DE833E8B700630808281308F5FFD3
:1039B000631B0800B305B640B307F7403336B600C3
:1039C000918FB6843DB79308F07F63101503BA87D3
:1039D000B2851304F07F7DA01308F07FE30903FF95
:1039E00037088000B3E707012A8813058003634680
:1039F00005077D45634D050393080002B388084120
:103A00003395170133DE0501B39515013365C50103
:103A1000B335B0004D8DB3D70701B305A640B3074A
:103A2000F7403336B600918F1A84B68411BF130560
:103A300008FE130E0002B3D8A70001456308C801B1
:103A400013050004330505413395A7004D8D33352B
:103A5000A00033E5A8008147C9B733E5B700333587
:103A6000A000D5BF130514001375E57F25E933E8E1
:103A7000B7003365C70021E8631808006302051C1E
:103A8000BA87B285B684C5BBE30705DE3388C54077
:103A9000B3B805013385E74033051541B708800009
:103AA000B3781501638A0800B305B640B307F74041
:103AB0003336B600918FF9B7B365A8006386051851
:103AC000AA87C2854DBB6318080063010518BA8731
:103AD000B285B684F5BEE30D05BED1B3B389C5404A
:103AE00033B535013389E7403309A94037058000F4
:103AF0003375A90025C9B309B640B307F74033367B
:103B000036013389C740B684630409064A85EFF05D
:103B10006FD6130785FFFD4763C2E70693070002D0
:103B2000998F3319E900B3D7F900B3E72701B395AB
:103B3000E900634F8706018F930617007D466345B2
:103B4000D60413070002158F3396E70033D5D5004E
:103B5000B395E500498EB335B000D18DB3D7D7000A
:103B6000014411BBB3E52901C5F181470144D9A83E
:103B70004E85EFF02FD01305050261BF930785FD39
:103B8000B397F900814575B705171306000233D7BF
:103B9000E70001456387C60013050004158D3395C2
:103BA000A7004D8D3335A000B365A70081474DBFF9
:103BB000198C370780FF7D17F98F75B9BA87B285E1
:103BC0002A8455B9BA87B2857DB11304F07F814745
:103BD0008145370780007D8F11CB05041307F07FE7
:103BE000630BE406370780FF7D17F98F1397D70122
:103BF00013D53500598D1307F07F8D836319E400C9
:103C00005D8D814709C5B707080001458144131739
:103C10004401B706F07FB207F2406244758FB1836A
:103C2000FE04D98F33E797004249D244B249BA859E
:103C300005618280428481B1BA87B2852A8499B5B0
:103C400081478145814471B78147EDBF81458144FA
:103C5000B707400089B98147814549BF79714AD08A
:103C600013D9450126D24ECE52CC5AC862C4939481
:103C7000C50006D622D456CA5EC61379F97F2A8AB1
:103C8000328B368CB18093D9F50163040908930710
:103C9000F07F630AF90C935AD5018E04B3E49A00BD
:103CA000B70A8000B3EA540113143500130919C090
:103CB000814B1315CC009354C50013554C019375DB
:103CC000F57F135CFC01F9C19307F07F638BF5105E
:103CD000139534009357DB015D8DB7048000C98CC8
:103CE000931F3B00138515C0814713972B005D8FF1
:103CF0007D173946B3C68901B305A9406365E6104F
:103D000017D6FFFF1306868D0A073297184332979E
:103D10000287B3EAA40063820A069DC82685EFF0F5
:103D20006FB5930755FF71476349F702F54A1304CE
:103D300085FFB38AFA40B3948400B35A5A01B3EAB8
:103D40009A0033148A009305D0C03389A5408DB7FB
:103D5000EFF04FB213050502E9B7930485FDB31ADE
:103D60009A000144CDB7B3EAA400638C0A002A8408
:103D7000A68A1309F07F8D4B2DBF01440149854B65
:103D80000DBF01441309F07F894B25B7B3EF6401E0
:103D900063820F069DC82685EFF0CFADAA85938775
:103DA00055FF71476349F702F546938F85FF9D8E56
:103DB0003395F401B356DB00B3E4A600B31FFB0157
:103DC0009306D0C03385B64005B75A85EFF08FAA69
:103DD00093050502E9B7138585FDB314AB00814F48
:103DE000C5B7B3EF6401638B0F00DA8F1305F07F63
:103DF0008D47E5BD814401458547C5BD8144130517
:103E0000F07F8947DDB563E6540163969A2A6364BF
:103E1000F42B1396FA01135714009317F40193DA55
:103E20001A003364E6001395840093D88F01B3E839
:103E3000A800418133DEAA02939E080193DE0E01A1
:103E40001357040113938F00B3FAAA0272863388C2
:103E5000CE03C20A33675701637C070146971306F6
:103E6000FEFF63671701637507011306EEFF4697B0
:103E700033070741335EA702420441803377A7022C
:103E8000F2823388CE034207418F637C0701469755
:103E90009302FEFF63671701637507019302EEFF4C
:103EA00046973304074142064168B3625600130E39
:103EB000F8FF13D6020133F7C201135F0301337E0B
:103EC000C301B303EE02B304C6033307EF02B30F1B
:103ED000E6033306970013D7030132976373970005
:103EE000C29F135607017E96C16FFD1F3378F701FD
:103EF0004208B3F3F3011E986367C4009684631EFF
:103F0000C40263FC07039A9733B7670046973A9455
:103F10009384F2FF63E688006391880263EF670091
:103F20006366C400631B860063F907019A9733B781
:103F3000670046979384E2FF3A9433880741118CD7
:103F4000B3B707011D8CFD5F6387880EB35FA402C2
:103F5000135708013374A4027E86B387FE0342041C
:103F6000598C637CF40046941386FFFF6367140149
:103F70006375F4001386EFFF46941D8C3357A4023B
:103F80004208135808013374A402BA87B38EEE02B4
:103F9000420433648800637CD40146949307F7FF9E
:103FA000636714016375D4019307E7FF46944206E3
:103FB0005D8E93170601C183135706013308EF0284
:103FC0003304D441330FFF02B38EC703330EC7034C
:103FD00093D70E01729FFA9763F4C70141673A982D
:103FE00013D70701429741687D1833F50701420551
:103FF000B3FE0E0176956366E400631FE418B28F8A
:104000001DC94694930FF6FF636114036366E400D1
:104010006313E418637DA3009317130033B36700A1
:104020009A98930FE6FF46943E836314E40063047A
:10403000650093EF1F009387F53F635BF00A13F76A
:104040007F0001CF13F7FF0011466308C7001386F6
:104050004F00B33FF601FE94B28F37070001658F22
:1040600019C7B70700FFFD17FD8C9387054013079D
:10407000E07F6342F70693DF3F001397D401336775
:10408000F70113D53400D2073706F07F3205B2505E
:104090002254F18F31815D8DFE06B367D5009254B5
:1040A0000259F249624AD24A424BB24B224C3A85FB
:1040B000BE8545618280FD158147B5B3CE86D68425
:1040C000A28FDE870D47638AE70A0547638EE70AFA
:1040D0000947E392E7F6014501479307F07F65B78B
:1040E000E286CDB7B7040800814F81468D47D9BF1E
:1040F00005451D8D130780036348A7087D47634965
:10410000A7049385E541B397B40033D7AF00B395C7
:10411000BF00D98FB335B000CD8F33D5A40013F7CE
:10412000770001CF13F7F70011466308C700138724
:104130004700B337F7003E95BA8737078000698F8D
:1041400039E71317D5018D835D8F0D81814725BF19
:104150000557B307F74013060002B3D7F400014731
:104160006306C5001387E5433397E4003367F7011F
:104170003337E000D98F01455DB7370508000147A7
:104180009307F07F814601B701450147C1B701455B
:1041900001478547CDBD7E86B28F61BD37071000D0
:1041A0007D1713D84501B378B700AA872A831378FF
:1041B000F87F13D5F501930EF07F93D54601758FE7
:1041C000328E93F5F57FFD826318D801B3EEF800C7
:1041D00063840E06094582806396D501B36EC700DD
:1041E000E39A0EFE631C0804B3E7F80093B71700C8
:1041F00099E1598E0DCE81EB6314D50063D9050189
:104200000DC57D5582807D5591C63685828063546B
:10421000B80065D98280E36517FF639CE800E3611D
:104220006EFEE368C3FF0145828005458280E5FF9D
:10423000C1BFE3E0E8FEC5BFE38205FBD5FD8147D2
:104240004DBF79714ECE93D9450122D426D252CC9E
:1042500056CA5EC69394C50006D64AD05AC893F98A
:10426000F97F2A84B28BB68AB18013DAF5016381B3
:1042700009089307F07F6385F90C9357D5018E04E5
:10428000DD8CB7078000DD8C13193500938919C0C8
:10429000014B13D54A011394CA001375F57F318081
:1042A00093DAFA0161C19307F07F6305F51093D7A4
:1042B000DB010E045D8CB70780005D8C130515C013
:1042C00093973B00014793162B00D98E4E95FD1610
:1042D000394833465A0193051500636ED80E17C549
:1042E000FFFF130565338A06AA969442AA96828632
:1042F00033E9A400630F09048DC82685EFE09FD73A
:10430000130755FFF14763C7E702F547130985FF18
:10431000998FB3942401B357F400DD8C3319240131
:104320009309D0C0B389A940A5B7EFE0BFD4130566
:104330000502F9B7930485FDB31494000149CDB784
:1043400033E9A400630B09002A899309F07F0D4B20
:1043500089B781448149054B2DBF81449309F07F82
:10436000094B05BFB3677401B1CF0DC82285EFE0DB
:104370007FD0930655FFF14763C8D702754793076F
:1043800085FF158F3314F40033D7EB00598CB397A6
:10439000FB001307D0C03305A7402DB75E85EFE0C3
:1043A0007FCD13050502F1B7130485FD33948B000F
:1043B0008147C5B7B367740191CBDE871305F07FE2
:1043C0000D4711B7014401450547F5BD01441305EB
:1043D000F07F0947CDBD416F930EFFFF13570901D1
:1043E00093D807013379D901B3F7D701338828036C
:1043F000B306F902B30FF7023303F80113D806012D
:104400001A98330E17036373F8017A9E93530801C9
:104410003378D801B3F6D601135F0401B372D40127
:1044200042083698B30E5702B306590233092F03D8
:104430003303D90113D906011A993307E7036374CB
:10444000D90141631A97935E0901C169BA9E138726
:10445000F9FF3379E900F98E13D404014209F98C8C
:10446000338797023699CA933303F402B3869802CE
:10447000B3878802B388660093560701C69663F334
:104480006600CE9793D80601C169B38FF800938771
:10449000F9FFB3889202FD8E7D8FC206BA96B307EC
:1044A0005402B3049F0233038F02BE9413D4080155
:1044B000A29463F3F4004E93C167FD1733F7F40041
:1044C000B3F8F80042071E9E469733392E017697BF
:1044D00033042701369EB336DE00B308F401338F70
:1044E000D8003337D70133342401598CC180B3B895
:1044F000F801B336DF002694B3E6D80036941A9458
:1045000093577F0126045D8C93179E00B3E7070144
:10451000B337F000135E7E0113179F00B3E7C701A6
:10452000D98F37070001618F4DCB13D71700858BCB
:10453000D98F1317F401D98F05809386F53F635007
:10454000D00A13F7770001CF13F7F700114563087E
:10455000A70013874700B337F7003E94BA873707A1
:104560000001618F19C7370700FF7D17798C93868B
:1045700005401307E07F634ED70E13D7370093171C
:10458000D401D98F0D80139746013204B706F07F0E
:10459000758F3180598C7E06B2503367C400225427
:1045A00092540259F249624AD24A424BB24B3E857A
:1045B000BA854561828052862684CA875A87894691
:1045C0006309D70A8D46630FD7088546E317D7F6E8
:1045D000014481479DA05686DDB7AA85B9BF054530
:1045E000158D13078003E345A7FE7D476349A704A4
:1045F0009385E5413317B400B3D6A700B397B7004E
:10460000558FB337F000D98F3354A40013F77700D8
:1046100001CF13F7F70091466308D70013874700CF
:10462000B337F7003E94BA8737078000618F39E7C8
:104630001317D4018D83D98F0D808146A9B70557F3
:10464000158F130800023357E40081466306050105
:104650009385E543B316B400D58FB337F000D98FF7
:1046600001446DB73704080081479306F07F014687
:1046700019BF014481479306F07F31B70144814758
:10468000854611B7370710009307F7FF33F7B700D8
:10469000D181F58F93F5F57FD1821308F07F93F6E2
:1046A000F67F63950501498F054509EB1307F07FF8
:1046B00001456395E600D18F3335F000828001110A
:1046C00006CE22CC0010B717008083A787ADA9EFD4
:1046D000B7170080054723ACE7ACB7070120138765
:1046E000C72EB70701209387072E63F1E704B707AA
:1046F00001209387072E2326F4FE31A88327C4FECA
:104700009C432324F4FE832784FE82978327C4FEE0
:1047100091072326F4FE0327C4FEB70701209387E1
:10472000C72EE31DF7FC21A0010011A00100F240FB
:10473000624405618280011106CE22CC0010B717B9
:10474000008083A7C7ADA9EFB7170080054723AE48
:10475000E7ACB70701201387072FB707012093871E
:10476000072F63F1E704B70701209387072F23265C
:10477000F4FE31A88327C4FE9C432324F4FE832740
:1047800084FE82978327C4FE91072326F4FE032725
:10479000C4FEB70701209387072FE31DF7FC21A074
:1047A000010011A00100F2406244056182804111C4
:1047B00006C622C4000821370100B240224441014C
:1047C0008280411106C622C40008B5370100B240FC
:1047D000224441018280011106CE22CC0010232602
:1047E000A4FE8325C4FEB7170080138587A32D2858
:1047F000AA873E85F240624405618280011106CE9F
:1048000022CC00102326A4FE2324B4FE8327C4FE5A
:104810009C439C43832584FE0325C4FE82970100AC
:10482000F240624405618280011106CE22CC001064
:104830002326A4FE2324B4FE8327C4FE9C43DC432A
:10484000832584FE0325C4FE8297AA873E85F24015
:10485000624405618280011106CE22CC001023261D
:10486000A4FE2324B4FE8327C4FE9C43DC4B832593
:1048700084FE0325C4FE8297AA873E85F2406244E7
:1048800005618280011122CE00102326A4FE032799
:10489000C4FE938701816315F700B707000211A0DA
:1048A00081473E85724405618280011122CE00104D
:1048B0002326A4FE0327C4FE938701816314F70017
:1048C000894711A081473E857244056182800111AC
:1048D00022CE00102326A4FE2324B4FE832784FEC8
:1048E00091E7B70700809387070921A8032784FE73
:1048F00085476317F700B70700809387070911A062
:1049000081473E85724405618280011122CE0010EC
:104910002326A4FE2324B4FE832784FE99E38D4737
:1049200009A8032784FE85476314F7009D4711A05B
:1049300081473E857244056182805D7186C6A2C44E
:10494000CAC2CEC052DE56DC5ADA5ED862D666D40F
:104950008008232EA4FA8327C4FB3E85253723260F
:10496000A4FC0327C4FCB167F117BA979C43232426
:10497000F4FC0327C4FCB167E117BA979C432322D8
:10498000F4FC0327C4FCB167F117BA979C430327D3
:1049900084FCE318F7FC832784FC3E8C814C93193C
:1049A0000C000149832744FC3E8A814A336B49014C
:1049B000B3EB59015A87DE873A85BE85B640264457
:1049C00016498649725AE25A525BC25B325CA25C5B
:1049D00061618280797106D622D44AD24ED0001805
:1049E000232EA4FC232CB4FC2328C4FC232AD4FCAF
:1049F0008327C4FD2326F4FE8327C4FE3E85593554
:104A00002324A4FE832784FD8E073E87832784FE0C
:104A10003E9791679107BA973E87FD571CC383273E
:104A200084FD8E073E87832784FE3E979167BA9761
:104A30003E87832704FD1CC3832744FD13D9070049
:104A40008149832784FD8E073E87832784FE3E9716
:104A500091679107BA974A8798C381473E85B250BC
:104A600022541259825945618280011106CE22CC0E
:104A70000010232604FEF32740F12326F4FE8327AB
:104A8000C4FE3E85EF4080452324A4FE032584FE1A
:104A9000EF406042AA873E85F24062440561828011
:104AA000397106DE22DC80002326A4FC0325C4FC29
:104AB000ED3B2324A4FE8327C4FC2322F4FE83279A
:104AC00044FEDC43A9EF232604FE81A08325C4FE17
:104AD0000325C4FCED3B2320A4FE8325C4FE03254F
:104AE000C4FC2535232EA4FC832704FE9C43DC4F05
:104AF0008326C4FC01468325C4FD032504FE82975A
:104B00008327C4FE85072326F4FE0327C4FE8327DC
:104B100084FEE34DF7FA832744FE0547D8C301001E
:104B2000F250625421618280397106DE22DC8000FD
:104B30002326A4FC2324B4FC2322C4FC2320D4FC7D
:104B4000FD572326F4FEEF10E0442320A4FE232487
:104B500004FE213F232EA4FC0325C4FCB933232CDF
:104B6000A4FC032704FE85476308F700832704FE9F
:104B700081C78327C4FE49A0232204FE91A0832578
:104B800044FE0325C4FC5133232AA4FC832544FEA0
:104B90000325C4FC2D3B2324A4FE0327C4FD832747
:104BA00084FE6318F700032784FC832744FD630019
:104BB000F702232404FE832744FE85072322F4FE04
:104BC000032744FE832784FDE34BF7FA11A001007D
:104BD000832784FE85C3832784FE9C43DC4F832682
:104BE00004FC032644FC832584FC032584FE829771
:104BF0002326A4FE8327C4FE3E85F2506254216121
:104C00008280797122D60018232EA4FC232CB4FCB8
:104C1000232AC4FC2328D4FCFD572326F4FE832733
:104C2000C4FE3E85325445618280011106CE22CCFD
:104C300000102326A4FEEF10E035AA873E85F2403F
:104C4000624405618280797106D622D40018232E31
:104C5000A4FC232CB4FCFD572326F4FE3935232471
:104C6000A4FE832784FE95C3032784FD854763E064
:104C7000E702832784FE9C43DC43832584FD0325D0
:104C800084FE82972326A4FE21A0010011A001002A
:104C90008327C4FE3E85B25022544561828039711B
:104CA00006DE22DC80002326A4FC2324B4FCFD576E
:104CB0002326F4FE832784FCC9C7232404FE75330E
:104CC0002320A4FE0325C4FCCD36232EA4FC2322DE
:104CD00004FE91A0832544FE0325C4FC3D31232C12
:104CE000A4FC832544FE0325C4FCD5362324A4FE5E
:104CF000032704FE832784FE6318F700032784FC40
:104D0000832784FD6300F702232404FE832744FEE7
:104D100085072322F4FE032744FE8327C4FDE34BCB
:104D2000F7FA11A00100832784FE81CF832784FE38
:104D30009C43DC53832584FC032584FE8297232631
:104D4000A4FE8327C4FE3E85F25062542161828016
:104D5000397106DE22DC80002326A4FC2324B4FC67
:104D6000FD572326F4FE832784FCC9C7232404FEB1
:104D7000ED392320A4FE0325C4FC053E232EA4FC0C
:104D8000232204FE91A0832544FE0325C4FCB53EE6
:104D9000232CA4FC832544FE0325C4FC0D3E2324C0
:104DA000A4FE032704FE832784FE6318F70003276D
:104DB00084FC832784FD6300F702232404FE8327F9
:104DC00044FE85072322F4FE032744FE8327C4FD07
:104DD000E34BF7FA11A00100832784FE81CF8327DC
:104DE00084FE9C439C57832584FC032584FE829784
:104DF0002326A4FE8327C4FE3E85F250625421611F
:104E00008280797106D622D40018232EA4FC232C8C
:104E1000B4FC232AC4FCFD572326F4FE8327C4FDDB
:104E20002324F4FE0325C4FDEFF0DFA52322A4FE16
:104E3000032784FD91476301F70C032784FD914705
:104E400063C1E70E032784FD8D476306F70603273A
:104E500084FD8D4763C7E70C032784FD85476308FE
:104E6000F700032784FD89476303F7025DA88327C2
:104E700044FDD5CB032584FEEFF03FAC2A87AE87F7
:104E8000832644FD98C2DCC2232604FE69A883273A
:104E900044FDC1CF832744FD9C432320F4FE832798
:104EA00004FE8A073E87832744FEBA9723A00700A3
:104EB000232604FE9DA8832744FDB5CB832744FD0C
:104EC0009C432320F4FE832704FE8A073E87832722
:104ED00044FEBA973E8785471CC30F008004832792
:104EE00004FE8A073E87832744FEBA979C43232605
:104EF000F4FE232604FE25A8232604FE832744FD72
:104F00008DCB832744FD9C432320F4FE832704FE9E
:104F10008A073E87832744FEBA979C432326F4FEE4
:104F200009A8010001A8010031A0010021A0010091
:104F300011A001008327C4FE3E85B2502254456172
:104F40008280797106D622D40018232EA4FC232C4B
:104F5000B4FCEF30507BAA872326F4FE9307C4FEEF
:104F60003E8689450325C4FD693DAA873E85B2502A
:104F7000225445618280797106D622D40018232EEE
:104F8000A4FC232CB4FCEF301078AA872326F4FE6F
:104F90009307C4FE3E868D450325C4FD9D35AA8733
:104FA0003E85B250225445618280011122CE00100C
:104FB0002326A4FE0327C4FE938781816314F70090
:104FC000814711A0FD573E85724405618280011121
:104FD00022CE00102326A4FE0327C4FE93878181DE
:104FE0006317F700B727F4009387074011A08147A4
:104FF0003E85724405618280011122CE0010232675
:10500000A4FE0327C4FE938781816317F700B707C7
:1050100000809387070911A081473E85724405618E
:105020008280011122CE00102326A4FE0327C4FE95
:10503000938781816314F700814711A081473E85E2
:10504000724405618280011122CE00102326A4FE45
:105050008327C4FE634AF0000327C4FE0A07938730
:10506000C180BA979C4311A081473E857244056177
:105070008280011122CE0010F32740F12326F4FE96
:105080008327C4FE3E85724405618280011122CED1
:105090000010A147F3A707302326F4FE0100724455
:1050A00005618280011122CE0010A147F3B70730BD
:1050B0002326F4FE0100724405618280011122CE94
:1050C0000010A147F3A747302326F4FE01007244E5
:1050D00005618280011122CE0010A147F3B747304D
:1050E0002326F4FE0100724405618280011122CE64
:1050F000001093070008F3A747302326F4FE0100B1
:10510000724405618280011122CE001093070008CD
:10511000F3B747302326F4FE010072440561828014
:10512000011122CE0010856793870780F3A74730CF
:105130002326F4FE0100724405618280011122CE13
:105140000010856793870780F3B747302326F4FE66
:105150000100724405618280797122D60018232EE5
:10516000A4FC8327C4FD0547B317F7002326F4FEEC
:105170008327C4FEF3A747302324F4FE01003254F2
:1051800045618280797122D60018232EA4FC8327E2
:10519000C4FD0547B317F7002326F4FE8327C4FE9A
:1051A000F3B747302324F4FE010032544561828076
:1051B000011106CE22CC00102326A4FE2324B4FE27
:1051C00013054006EF30D055011106CE22CC001059
:1051D0002326A4FE2324B4FE1305800CEF30505484
:1051E0005D7186C696C49AC29EC022DE2ADC2EDA83
:1051F00032D836D63AD43ED242D046CE72CC76CAD7
:105200007AC87EC680081305C012EF3070511D7138
:1052100086CE96CC9ACA9EC8A2C6AAC4AEC2B2C056
:1052200036DE3ADC3EDA42D846D672D476D27AD02E
:105230007ECE80103D3D2A870A079387C180BA97AA
:105240009C432326F4FA8327C4FA85C70325C4FAAE
:1052500065332324A4FA832784FA83A7070E232225
:10526000F4FA832784FA83A7870D832544FA0D4532
:1052700082970100F640E6425643C643364426452F
:1052800096450646F2566257D2574258B258225EA9
:10529000925E025FF24F256173002030797106D66D
:1052A00022D40018232EA4FC232CB4FCD9332A8743
:1052B0000A079387C180BA979C432326F4FEF327FD
:1052C00020342324F4FE8327C4FE95C70325C4FE9F
:1052D00025332322A4FE832784FE93F7F73F032779
:1052E00044FE9387870E8A07BA979C438325C4FDA3
:1052F0000325C4FE82970100B2502254456182808A
:105300001D7186CE96CC9ACA9EC8A2C6AAC4AEC249
:10531000B2C036DE3ADC3EDA42D846D672D476D215
:105320007AD07ECE8010B1332A870A079387C18056
:10533000BA979C432326F4FA8327C4FA85C703252A
:10534000C4FA5D392324A4FA832784FA83A70714B7
:105350002322F4FA832784FA83A78713832544FA48
:105360001D4582970100F640E6425643C643364447
:10537000264596450646F2566257D2574258B258CD
:10538000225E925E025FF24F2561730020300111B0
:1053900022CE00102326A4FE2324B4FE0100724472
:1053A00005618280797106D622D40018232EA4FCD0
:1053B000232CB4FC7D39AA873E8571312326A4FEB7
:1053C0000325C4FEEF10A0292320A4FE2322B4FE4F
:1053D000032704FE832744FE294581453306A700A1
:1053E00032883338E800B386B700B307D800BE86EA
:1053F0003287B687BA853E860325C4FEEF10802C1F
:105400000100B2502254456182800000000000007B
:10541000000000000000000000000000000000008C
:10542000000000000000000000000000000000007C
:10543000000000000000000000000000000000006C
:10544000000000000000000000000000000000005C
:10545000000000000000000000000000000000004C
:10546000000000000000000000000000000000003C
:10547000000000000000000000000000000000002C
:10548000197186DE96DC9ADA9ED8A2D6AAD4AED25C
:10549000B2D0B6CEBACCBECAC2C8C6C6F2C4F6C274
:1054A000FAC07EDE0001F1362A870A079387C180A1
:1054B000BA979C432326F4FAF32720342324F4FAE2
:1054C000F32710342322F4FAF32730342320F4FA9C
:1054D000F3275030232EF4F88327C4FAFDCB03259D
:1054E000C4FAEFF07FB1232CA4F8832784FA93F752
:1054F000F73F232AF4F8832784FA63DE070A032799
:1055000044F9930700086312F702832784F983A7FD
:1055100087392326F4F8832784F983A7073983255D
:10552000C4F8032544F982976DA0032744F9AD47D9
:1055300063D7E7008327C4F993F7F7039DEF83262A
:1055400084F9032744F9BA878607BA978E07B69776
:1055500083A787092326F4F8832684F9032744F9CF
:10556000BA878607BA978E07B69783A70709832558
:10557000C4F8032544F98297A9A88327C4F913F72F
:10558000F70389476317F704F32770302328F4F8EB
:10559000832784F983A7C70D2326F4F8832704F90A
:1055A0009C432324F4F8832784F88325C4F8032537
:1055B00044F9829739A8032784F9832744F993870C
:1055C000870E8A07BA979C43832544F90325C4FABA
:1055D0008297F650E6525653C65336542655965582
:1055E0000656F6466647D6474648B648264E964E75
:1055F000064FF25F096173002030000000000000D8
:10560000000000000000000000000000000000009A
:10561000000000000000000000000000000000008A
:10562000000000000000000000000000000000007A
:10563000000000000000000000000000000000006A
:10564000000000000000000000000000000000005A
:10565000000000000000000000000000000000004A
:10566000000000000000000000000000000000003A
:10567000000000001D7186CE96CC9ACA9EC8A2C6B4
:10568000AAC4AEC2B2C036DE3ADC3EDA42D846D652
:1056900072D476D27AD07ECE8010EFF09F9D2A878A
:1056A0000A079387C180BA979C432326F4FA83277D
:1056B000C4FA8DC70325C4FAEFF01F942324A4FA7B
:1056C000832784FA83A787212322F4FA832784FA85
:1056D00083A70721832544FA414582970100F640BC
:1056E000E6425643C6433644264596450646F2569C
:1056F0006257D2574258B258225E925E025FF24F12
:105700002561730020301D7186CE96CC9ACA9EC842
:10571000A2C6AAC4AEC2B2C036DE3ADC3EDA42D875
:1057200046D672D476D27AD07ECE8010EFF07F94B7
:105730002A870A079387C180BA979C432326F4FAE5
:105740008327C4FA8DC70325C4FAEFF0FF8A232408
:10575000A4FA832784FA83A707232322F4FA832752
:1057600084FA83A78722832544FA4545829701005E
:10577000F640E6425643C64336442645964506461D
:10578000F2566257D2574258B258225E925E025F7A
:10579000F24F2561730020301D7186CE96CC9ACAD7
:1057A0009EC8A2C6AAC4AEC2B2C036DE3ADC3EDA99
:1057B00042D846D672D476D27AD07ECE8010EFF020
:1057C0005F8B2A870A079387C180BA979C43232659
:1057D000F4FA8327C4FA8DC70325C4FAEFF0DF81FA
:1057E0002324A4FA832784FA83A787242322F4FAA4
:1057F000832784FA83A70724832544FA494582979F
:105800000100F640E6425643C643364426459645D7
:105810000646F2566257D2574258B258225E925EFE
:10582000025FF24F2561730020301D7186CE96CC49
:105830009ACA9EC8A2C6AAC4AEC2B2C036DE3ADCBC
:105840003EDA42D846D672D476D27AD07ECE801056
:10585000EFF03F822A870A079387C180BA979C435B
:105860002326F4FA8327C4FA8DC70325C4FAEFF080
:10587000AFF82324A4FA832784FA83A707262322D8
:10588000F4FA832784FA83A78725832544FA4D45B4
:1058900082970100F640E6425643C6433644264509
:1058A00096450646F2566257D2574258B258225E83
:1058B000925E025FF24F2561730020301D7186CE2B
:1058C00096CC9ACA9EC8A2C6AAC4AEC2B2C036DEE0
:1058D0003ADC3EDA42D846D672D476D27AD07ECE40
:1058E0008010EFF00FF92A870A079387C180BA97D3
:1058F0009C432326F4FA8327C4FA8DC70325C4FAF0
:10590000EFF08FEF2324A4FA832784FA83A7872755
:105910002322F4FA832784FA83A70727832544FAEE
:10592000514582970100F640E6425643C64336444D
:10593000264596450646F2566257D2574258B25807
:10594000225E925E025FF24F2561730020301D716E
:1059500086CE96CC9ACA9EC8A2C6AAC4AEC2B2C00F
:1059600036DE3ADC3EDA42D846D672D476D27AD0E7
:105970007ECE8010EFF0EFEF2A870A079387C18071
:10598000BA979C432326F4FA8327C4FA8DC70325CC
:10599000C4FAEFF06FE62324A4FA832784FA83A7DE
:1059A00007292322F4FA832784FA83A787288325EB
:1059B00044FA554582970100F640E6425643C643F5
:1059C0003644264596450646F2566257D257425807
:1059D000B258225E925E025FF24F25617300203062
:1059E0001D7186CE96CC9ACA9EC8A2C6AAC4AEC263
:1059F000B2C036DE3ADC3EDA42D846D672D476D22F
:105A00007AD07ECE8010EFF0CFE62A870A07938700
:105A1000C180BA979C432326F4FA8327C4FA8DC722
:105A20000325C4FAEFF04FDD2324A4FA832784FA78
:105A300083A7872A2322F4FA832784FA83A7072AD5
:105A4000832544FA594582970100F640E6425643C1
:105A5000C6433644264596450646F2566257D25707
:105A60004258B258225E925E025FF24F2561730087
:105A700020301D7186CE96CC9ACA9EC8A2C6AAC4F2
:105A8000AEC2B2C036DE3ADC3EDA42D846D672D476
:105A900076D27AD07ECE8010EFF0AFDD2A870A076B
:105AA0009387C180BA979C432326F4FA8327C4FACC
:105AB0008DC70325C4FAEFF02FD42324A4FA83273B
:105AC00084FA83A7072C2322F4FA832784FA83A776
:105AD000872B832544FA5D4582970100F640E64214
:105AE0005643C6433644264596450646F256625707
:105AF000D2574258B258225E925E025FF24F256141
:105B0000730020301D7186CE96CC9ACA9EC8A2C65C
:105B1000AAC4AEC2B2C036DE3ADC3EDA42D846D6BD
:105B200072D476D27AD07ECE8010EFF08FD42A87CE
