:020000042001D9
:100000009711FF5F9381012A97020000938282017A
:100010007390523093021000638402007350107C7E
:100020009702000093824211739052301301000036
:1000300063140100138101CE732540F18142130343
:100040000040137101FF6385A2001A918502D5BF9C
:10005000970000009380C00763830000829073259F
:1000600040F181450146ED209300000063830000CC
:100070008290970200009382C20073905230032353
:100080000000F5BF000000008280A14673B3063077
:10009000914263C555001376350011CA230005004F
:1000A0000505FD15E347B0FE731003308280232061
:1000B00005001105F115E34EB0FC7310033082808A
:1000C000232003001103E34D73FE82800684970210
:1000D000FFDF938222F3638C02049702FFDF938297
:1000E00062F2F32740F1A14673B006300A8397030A
:1000F000FFDF938323318A9363037300D1376398BF
:1001000057021703FF5F1303E3EF9713FF5F938318
:10011000E39B630373006D371703FFE7130383EE5D
:100120009703FFE7938303EE63037300513FA280BD
:1001300082800000F322203473231034F323303400
:10014000D5BF411122C6000801003244410182801E
:1001500006849711FF5F9381E114930200006311FD
:10016000550E977200009382E2241703FF5F13037A
:1001700063E99713FF5F93836395638C6200635A0F
:10018000730003A5020091022320A3001103E34A98
:1001900073FE97120000938262E41703FFE71303D4
:1001A00063E69703FFE79383E3E5638C6200635A9A
:1001B000730003A5020091022320A3001103E34A68
:1001C00073FE0F10000097120000938222E11703C4
:1001D000FF5F130323E39703FF5F9383A3E2638C23
:1001E0006200635A730003A5020091022320A3005A
:1001F0001103E34A73FE0F1000001713FF5F130390
:10020000E38C9383418D6357730023200300110314
:10021000E34D73FE1712FF5F1302428B11C2029669
:1002200017750000130505E6EF60D061EF60B06858
:10023000177500001305E512EF60D060EF70C01075
:100240000937FD5673B0463073B04634F32710308B
:10025000372704007D8F09C773B0363073B026305E
:10026000370704007D8F19C373B006184167130761
:100270008702F98F89CBF32700300967D98F7390F4
:10028000073073503000F327103037072000F98F04
:1002900099C7F327003093E707207390073005458F
:1002A00097150000938585CF17160000130646CFDB
:1002B0003120EF60705AA28082808280411106C294
:1002C000F32240F1130300006385620073005010B5
:0C02D000F5BFEF10004692404101828013
:0C02E000EC020120180301204203012061
:1002EC00011106CE22CC0010EF40B07A2326A4FEDA
:1002FC008327C4FE99C7B7170080138507A9EF5051
:10030C0000020100F240624405618280011106CEB8
:10031C0022CC0010EF40F0772326A4FE8325C4FEE8
:10032C00B7170080138507A9EF60F0090100F240B0
:10033C00624405618280411106C622C40008F1673F
:10034C0093850720B7170080138587A3EF60901360
:0A035C000100B240224441018280FA
:1003700000100F0000110F0000120F000013010108
:1003800000140100001501020016010300170F0000
:100390000000000000010001000200020003000351
:1003A00000040F0000050F0000080F0000090F00F7
:1003B000000A0200000B0201000C0202000D020301
:1003C00053504920496E6974206572726F72000043
:1003D00041542B5253540D0A000000000A0A000039
:1003E000080000008038010000000000000000004C
:1003F00000000000000000000000000000000000FD
:1004000000000000000000000000000000000000EC
:1004100000000000000000000000000000000000DC
:1004200000000000000000000000000000000000CC
:1004300000000000000000000000000000000000BC
:1004400000000000000000000000000000000000AC
:10045000000000000000000000000000000000009C
:100460006A280120102A0120F42901200000000040
:10047000000000000A2D01203E2D0120F22801205D
:10048000CC290120682A01201A2B0120000000003D
:10049000000000000000000000000000000000005C
:1004A000000000000000000000000000CC2B012034
:1004B000A227012000000000000000000000000052
:1004C00000000000FC3E0120623F0120623F01204D
:1004D0000E3F0120623F0120623F0120623F012068
:1004E000203F0120623F0120623F0120623F012046
:1004F000323F0120623F0120623F0120623F012024
:10050000623F0120443F0120443F0120443F01203D
:10051000443F0120443F0120443F0120443F01204B
:10052000443F0120443F0120443F0120443F01203B
:10053000443F0120443F0120443F0120443F01202B
:10054000443F0120C43F0120FA420120DE42012045
:10055000000000000000000000000000000000009B
:10056000A64001200000000086420120B242012086
:10057000000000000000000000000000000000007B
:10058000000000000000000000000000000000006B
:100590004E430120000000000000000000000000A9
:1005A00000000000000000006A430120DA4301203F
:1005B0002044012086440120FC44012016450120EE
:1005C0002A4501204445012058450120BA45012013
:1005D0001C4601207C4601209C460120E246012069
:1005E000104701202E4701204E470120484B012093
:1005F00000000000000000000000000000000000FB
:100600000000000000000000A04C012000000000DD
:10061000624D0120B24D01200000000000000000EA
:10062000324E0120024E0120B649012054490120DA
:1006300000000000000000000000000000000000BA
:100640005A4E0120F64E0120924F01200650012003
:100650000100000020000000001BB70000366E0102
:10066000010000001F000000030000003F00000028
:10067000010000002000000000366E01006CDC026A
:10068000030000001F000000020000003F00000007
:100690000100000010000000808D5B00001BB7000F
:1006A000000000001F000000030000003F000000E9
:1006B0000100000010000000001BB70000366E01B2
:1006C000010000001F000000020000003F000000C9
:1006D000010000001000000000366E01006CDC021A
:1006E000030000001F000000020000001F000000C7
:1006F0000100000008000000808D5B00001BB700B7
:10070000000000001F000000030000001F000000A8
:100710000100000008000000001BB70000366E0159
:10072000010000001F000000020000001F00000088
:10073000010000000800000000366E01006CDC02C1
:10074000030000001F000000020000000F00000076
:100750000100000004000000808D5B00001BB7005A
:10076000000000001F000000030000000F00000058
:100770000100000004000000001BB70000366E01FD
:10078000010000001F000000020000000F00000038
:10079000010000000400000000366E01006CDC0265
:1007A000030000001F00000002000000070000001E
:1007B0000100000002000000808D5B00001BB700FC
:1007C000000000001F000000020000000F000000F9
:1007D0000100000002000000001BB70000366E019F
:1007E000010000001F000000010000000F000000D9
:1007F000010000000200000000366E01006CDC0207
:10080000030000001F0000000100000007000000BE
:100810000200000001000000808D5B00001BB7009B
:10082000000000001F0000000100000007000000A1
:100830000200000001000000001BB70000366E013E
:10084000010000001F000000010000000300000084
:10085000020000000100000000366E01006CDC02A6
:10086000030000001F00000003000000FFFFFFFF67
:100870000400000001000000808D5B00001BB70039
:10088000000000001F000000030000000000000046
:100890000400000001000000001BB70000366E01DC
:1008A000010000001F00000003000000FFFFFFFF29
:1008B000040000000100000000366E01006CDC0244
:1008C000030000001F00000002000000FFFFFFFF08
:1008D0000600000001000000808D5B00AAC2A2009B
:1008E00000000000230000000100000002000000E2
:1008F0000600000001000000AAC2A200001BB70011
:10090000000000001700000003000000FFFFFFFFD1
:100910000600000001000000001BB7000024F400E6
:10092000010000002F00000003000000FFFFFFFF98
:1009300006000000010000000024F40080A812015D
:10094000010000001700000002000000FFFFFFFF91
:10095000060000000100000080A812015585450135
:10096000020000002300000002000000FFFFFFFF64
:100970000800000001000000808D5B00001BB70034
:10098000000000001F00000003000000FFFFFFFF49
:100990000800000001000000001BB70000366E01D7
:1009A000010000001F00000002000000FFFFFFFF29
:1009B000080000000100000000366E01006CDC023F
:1009C000030000001F00000001000000FFFFFFFF08
:1009D0000A00000001000000808D5B00007C920096
:1009E000000000002700000003000000FFFFFFFFE1
:1009F0000A00000001000000007C9200001BB7000C
:100A0000000000001300000002000000FFFFFFFFD5
:100A10000A00000001000000001BB70000F82401DC
:100A2000010000002700000002000000FFFFFFFFA0
:100A30000A0000000100000000F8240100366E01E9
:100A4000010000001300000001000000FFFFFFFF95
:100A50000A0000000100000000366E0100F04902AB
:100A6000030000002700000001000000FFFFFFFF5F
:100A70000C00000001000000808D5B0000127A0075
:100A8000000000002F00000003000000FFFFFFFF38
:100A90000C0000000100000000127A00001BB700EB
:100AA000000000001700000002000000FFFFFFFF31
:100AB0000C00000001000000001BB7000024F4003F
:100AC000010000002F00000002000000FFFFFFFFF8
:100AD0000C000000010000000024F40000366E014C
:100AE000010000001700000001000000FFFFFFFFF1
:100AF0000C0000000100000000366E0180C3C90137
:100B0000030000002F00000001000000FFFFFFFFB6
:100B10000C0000000100000080C3C9010048E8018A
:100B2000030000002F00000001000000FFFFFFFF96
:100B30000E00000001000000808D5B00B6A168007F
:100B4000000000003700000003000000FFFFFFFF6F
:100B50000E00000001000000B7A16800001BB700F4
:100B6000000000001B00000002000000FFFFFFFF6C
:100B70000E00000001000000001BB7006D43D10013
:100B8000010000003700000002000000FFFFFFFF2F
:100B90000E000000010000006E43D10000366E011F
:100BA000010000001B00000001000000FFFFFFFF2C
:100BB0000E0000000100000000366E01DB86A2017D
:100BC000030000003700000001000000FFFFFFFFEE
:100BD0001000000001000000808D5B00001BB700CA
:100BE000000000001F00000002000000FFFFFFFFE8
:100BF0001000000001000000001BB70000366E016D
:100C0000010000001F00000001000000FFFFFFFFC7
:100C10001200000001000000808D5B00AAC2A2004B
:100C2000000000002300000002000000FFFFFFFFA3
:100C30001200000001000000ABC2A200001BB700C0
:100C4000000000001100000001000000FFFFFFFF96
:100C50001200000001000000001BB700558545018F
:100C6000010000002300000001000000FFFFFFFF63
:100C70001400000001000000808D5B00007C9200E9
:100C8000000000002700000002000000FFFFFFFF3F
:100C90001400000001000000007C9200001BB7005F
:100CA000000000001300000001000000FFFFFFFF34
:100CB0001400000001000000001BB70000F8240130
:100CC000010000002700000001000000FFFFFFFFFF
:100CD0001600000001000000808D5B00E82A8500FE
:100CE000000000002B00000002000000FFFFFFFFDB
:100CF0001600000001000000E92A8500001BB70073
:100D0000000000001500000001000000FFFFFFFFD1
:100D10001600000001000000001BB700D1550A01B9
:100D2000010000002B00000001000000FFFFFFFF9A
:100D30001800000001000000808D5B0000127A00A6
:100D4000000000002F00000002000000FFFFFFFF76
:100D5000180000000100000000127A00001BB7001C
:100D6000000000001700000001000000FFFFFFFF6F
:100D70001800000001000000001BB7000024F40070
:100D8000010000002F00000001000000FFFFFFFF36
:100D90001A00000001000000808D5B0027AE70008B
:100DA000000000003300000002000000FFFFFFFF12
:100DB0001A0000000100000028AE7000001BB70000
:100DC000000000001900000001000000FFFFFFFF0D
:100DD0001A00000001000000001BB7006658E10087
:100DE000010000003300000001000000FFFFFFFFD2
:100DF0001C00000001000000808D5B00B6A16800AF
:100E0000000000003700000002000000FFFFFFFFAD
:100E10001C00000001000000B7A16800001BB70023
:100E2000000000001B00000001000000FFFFFFFFAA
:100E30001C00000001000000001BB7006D43D10042
:100E4000010000003700000001000000FFFFFFFF6D
:100E50001E00000001000000808D5B0000A8610002
:100E6000000000003B00000002000000FFFFFFFF49
:100E70001E0000000100000000A86100001BB70078
:100E8000000000001D00000001000000FFFFFFFF48
:100E90001E00000001000000001BB7000050C3004E
:100EA000010000003B00000001000000FFFFFFFF09
:100EB0002000000001000000808D5B00001BB700D7
:100EC000000000001F00000001000000FFFFFFFF06
:100ED0002A530120CE5301209A5701203C60012063
:100EE000BA600120D2600120EE6001203C61012047
:100EF00020610120586101208E6101207C63012066
:100F0000426201205A62012076620120C4620120FF
:100F1000A8620120E062012016630120665D0120C5
:100F2000265D0120AC5D0120D65D0120025E01201E
:100F3000485E0120885E0120C85E01200E5F01200E
:100F40004E5F0120B05F0120FA5F012000620120A6
:100F500088630120A8630120466A0120E66701201A
:100F6000C2660120286801207E6801209E68012059
:100F70009E650120BE650120DE6501201866012006
:100F8000506601208A660120F26601203C6701203C
:100F90006C670120B6670120A00F0120000000004F
:100FA0006C6962676C6F73730000000000000000E2
:100FB00000000080885001200C5101208851012040
:100FC000FC5101201259012040590120706E01206E
:040FD0008E6E012000
:10100000797122D60018232EA4FC232604FE31A0D9
:101010008327C4FE85072326F4FE8327C4FE032707
:10102000C4FDE3E7E7FE0100010032544561828020
:10103000797106D622D426D20018232EA4FC232CA4
:10104000B4FCB284032784FD85476304F700FD5791
:10105000A5AAD840E1679387076A63F4E700F557CC
:10106000A5A203C70400A14763F4E700F157A9AAAA
:10107000B717008003A707AADC408607B357F7021B
:10108000C207C183FD172317F4FE8327C4FD03277E
:1010900084FD98C3D8408327C4FDD8CB984C8327C0
:1010A000C4FD98D7D8488327C4FDD8D39844832754
:1010B000C4FD98CFD8448327C4FDD8CF9848832750
:1010C000C4FD98D303C704008327C4FD2388E70029
:1010D000B7270110938787039843B7270110938799
:1010E00087031367070198C3B72701109387C703C6
:1010F0009843B72701109387C7033D9B98C3B72731
:101100000110938787039843B727011093878703BC
:101110001367870098C3B72701109387C7039843C5
:10112000B72701109387C7035D9B98C3B7270110AA
:10113000938787039843B727011093878703136723
:10114000070298C3B72701109387C7039843B727AF
:1011500001109387C7031377F7FD98C3B7470210B1
:101160000357E4FE98C39C4499C3114711A001475B
:10117000DC4499C3914711A081475D8FB7470210A6
:10118000910798C39C4813F73700DC488A07918B76
:101190005D8F9C4C8E07A18BB366F70083C704005C
:1011A000C2073E87B7070F007D8FB74702109387AE
:1011B0000704558F98C3B7470210D1077D5798C3CE
:1011C0001305803E353D81473E85B25022549254EE
:1011D00045618280797122D60018232EA4FC232C2D
:1011E000B4FC232AC4FC2328D4FC8327C4FD9843E1
:1011F00085476304F700FD5791AAB70701201387BD
:101200000737832784FD8A07BA9783C717002326E9
:10121000F4FE032784FDA9476309F702032784FD31
:10122000B9476302F702032784FDBD47630BF7004C
:10123000032784FDC1476314F7008D4701A8FD57BC
:1012400031A0894721A0854711A081472324F4FEBE
:10125000B72701109387870398438327C4FE8546E9
:10126000B397F600BE86B727011093878703558F83
:1012700098C3B72701109387C70398438327C4FEF9
:101280008546B397F60093C7F7FFBE86B7270110D0
:101290009387C703758F98C3B7470210C107032709
:1012A00084FE98C3B7470210E107032744FD98C3A3
:1012B000032704FD85476312F702B7470210D107E1
:1012C0009843832784FE8546B397F600BE86B747CA
:1012D0000210D107558F98C305A8832704FD9DE30D
:1012E000B7470210D1079843832784FE8546B397FA
:1012F000F60093C7F7FFBE86B7470210D107758F78
:1013000098C319A0F95799A08327C4FD9C5313F7DC
:1013100037008327C4FDDC538A07918B5D8F8327B9
:10132000C4FD9C578E07A18BB366F7008327C4FDCD
:1013300083C70701C2073E87B7070F007D8FB747F6
:10134000021093870704558F98C381473E85325416
:1013500045618280797106D622D40018232EA4FC20
:10136000232CB4FC232AC4FC2328D4FC832704FDAB
:1013700099E3FD5785A0231704FE89A00100B74714
:1013800002109387870498439307F00FE3E9E7FE81
:10139000B747021093878704032744FD98C30100D1
:1013A000B74702109387C70498439307F00FE3F9F8
:1013B000E7FE8357E4FE85072317F4FE8357E4FE18
:1013C000032704FDE3ECE7FA8967138507710D39FC
:1013D000832784FE3E85B250225445618280797114
:1013E00006D622D40018232EA4FC232CB4FC232AD6
:1013F000C4FC2328D4FC832704FD99E3FD5785A072
:10140000231704FE89A00100B747021093878704C1
:1014100098439307F00FE3E9E7FEB747021093877D
:10142000870423A00700B74702109387C7049C4393
:1014300013F7F70F832744FD2380E7008357E4FE6B
:1014400085072317F4FE8357E4FE032704FDE3EC2E
:10145000E7FA8967138507716536832784FE3E8521
:10146000B250225445618280411122C60008B787DC
:101470000010A107370702001307176798C3010080
:10148000B7870010A1079C43B7870010A1079443BA
:10149000B7870010A1074167558F98C3B717008021
:1014A00037D7121323A0E7AA0100324441018280FA
:1014B000797122D60018232EA4FC232CB4FC032718
:1014C000C4FD854763F4E700FD5785A4B717008086
:1014D000138787AC8327C4FD8A07BA97984385474B
:1014E0006314F700F95791A4B717008083A707AAE0
:1014F000032784FD63F4E700F55705ACB7170080B8
:1015000003A707AA832784FDB357F702FD172326F5
:10151000F4FE8327C4FD99C70327C4FD8547630BE9
:10152000F70AFDA2B7270110938787039443B727D3
:101530000110938787034167558F98C3B727011020
:101540009387C7039443B72701109387C703417755
:101550007D17758F98C3B72701109387870394432E
:10156000B72701109387870337070200558F98C369
:10157000B72701109387C7039443B72701109387B8
:10158000C70301777D17758F98C3B7370110A1077F
:1015900023A00700B7370110B10723A00700B73712
:1015A0000110E1070327C4FE98C3B7370110B10744
:1015B0009843B7370110B1071367270098C3B737AF
:1015C0000110A1079843B7370110A107136727003F
:1015D00098C389A2B7270110938707049443B727BC
:1015E0000110938707043707F8FF7D17758F98C39D
:1015F000B7270110938787039443B7270110938778
:10160000870337070800558F98C3B7270110910744
:101610009443B7270110910737070800558F98C3E7
:10162000B7270110A1079443B7270110A107370777
:10163000F8FF7D17758F98C3B7270110C107944332
:10164000B7270110C1073707F8FF7D17758F98C3BB
:10165000B72701109387C7039443B72701109387D7
:10166000C7033707F8FF7D17758F98C3B727011099
:10167000938707049443B72701109387070437071C
:101680000400558F98C3B7270110938787039443AD
:10169000B72701109387870337070400558F98C336
:1016A000B727011091079443B72701109107370717
:1016B000FCFF7D17758F98C3B7270110A1079443CE
:1016C000B7270110A10737070400558F98C3B72724
:1016D0000110C1079443B7270110C1073707FCFF6A
:1016E0007D17758F98C3B72701109387C70394435D
:1016F000B72701109387C7033707FCFF7D17758F46
:1017000098C3B7370210E1070327C4FE98C319A096
:10171000FD5721A8B7170080138787AC8327C4FD26
:101720008A07BA97054798C381473E853254456179
:101730008280717106D722D50019B70701209387DF
:10174000073E83A8070003A847008847CC47904B73
:10175000D44B984FDC4F232814F9232A04F9232C67
:10176000A4F8232EB4F82320C4FA2322D4FA232485
:10177000E4FA2326F4FAB727011091079843B72714
:10178000011091071367074098C3F939F1679385F2
:1017900007200145313BB7373101138507D0EFF002
:1017A0003F86832804F9032844F9032584F9832517
:1017B000C4F9032604FA832644FA032784FA83270C
:1017C000C4FA232814F5232A04F5232CA4F4232E89
:1017D000B4F42320C4F62322D4F62324E4F62326EB
:1017E000F4F6130704F5930704FB3A8685453E8516
:1017F000EFF01F842324A4FE832784FE81CBB70748
:1018000001201385073CF52C9D47A5A2930704FBF7
:1018100085460146BD453E85753A2324A4FE894789
:101820002326F4F8B70700412324F4F8A147232224
:10183000F4FEB7373101138507D0EFF06FFC1307C3
:10184000C4F8930704FB91463A86BD453E85193698
:101850002324A4FE0100B72701109C4393F70740FF
:10186000FDDB832744FE93F7F70F93F7F70793F712
:10187000F70F2304F4F8832744FE9D8393F7F70FB3
:10188000A304F4F8130784F8930704FB91463A86FF
:10189000BD453E85C1342324A4FE0100B7270110B5
:1018A0009C4393F70740FDDB130704FB832644FEAC
:1018B000B70701201386073DBD453A85613C2324C7
:1018C000A4FE0100B72701109C4393F70740FDDBFE
:1018D00085472306F4F81307C4F8930704FB9146E1
:1018E0003A86BD453E85BD342324A4FE0100B727BA
:1018F00001109C4393F70740FDDB130784F893071F
:1019000004FB91463A86BD453E85D13C2324A4FE86
:10191000834794F89E07034784F8BA972322F4FE7E
:101920001307C4F7930704FB832644FE3A86BD459C
:101930003E8575342324A4FEB70701201385C73DD7
:10194000C922232604FE39A88327C4FE130704FFF7
:10195000BA9783C7C7F83E8515208327C4FE85073D
:101960002326F4FE0327C4FE832744FEE36EF7FC20
:1019700001A03E85BA502A544D618280AA8517F590
:10198000FE5F0325651211CD1C4D81EF011106CEBE
:101990002EC62AC455232245B245F24010450561A2
:1019A00019A01045F5BF011122CC06CE2A8401C929
:1019B0001C4D91E732C62EC441233246A24597F70B
:1019C000FFFF938727A66315F60250401C46FD17BC
:1019D0001CC663DF0702184E63C7E70093F7F50FD5
:1019E00029476397E70222856244F240056105A218
:1019F00097F7FFFF938707A56314F6001044F9B724
:101A000097F7FFFF938707A0E312F6FC50447DBFD2
:101A10001C4213F5F50F1387170018C22380B70077
:101A2000F240624405618280011126CA4AC806CE8E
:101A300022CC4EC652C4AA842E8901C51C4D91E306
:101A4000E5299C4C804499E32685FD2197F7FFFF0B
:101A50009387479D631CF402C0408357C400A18B49
:101A6000B1C71C48A1C7FD59294A1C448345090038
:101A7000FD17B1E91CC463DE07062286A945268549
:101A80007920FD576308F502294535A097F7FFFF38
:101A90009387479B6314F4008044C1B797F7FFFF17
:101AA00093874796E31BF4FAC04445BFA285268579
:101AB000392A55D97D55F2406244D2444249B2494F
:101AC000224A056182801CC4050963D70700184CAF
:101AD00063CBE700638945011C401387170018C0DA
:101AE0002380B70059B7228626851520E31F35F7D6
:101AF000D1B71C401387170018C029472380E7007F
:101B000061B7AA8517F5FE5F032505FA31BF0111FC
:101B100022CC26CA4AC806CE4EC6AA842E89328452
:101B200001C51C4D91E3092997F7FFFF9387878F24
:101B30006319F406C0401C4C1CC48357C400A18B1D
:101B4000C9C31C48BDCF1C4808409379F90F1379CD
:101B5000F90F1D8D5C486346F500A2852685C124DA
:101B60002DE51C440505FD171CC41C4013871700F8
:101B700018C0238037015C486389A7008357C400DD
:101B8000858B81CBA9476316F900A2852685412C58
:101B90000DEDF2406244D244B2494A8542490561A2
:101BA000828097F7FFFF9387E7896314F4008044EE
:101BB00059B797F7FFFF9387E784E31EF4F6C04415
:101BC0009DBFA285268521203DDD7D59D9B74111D4
:101BD00022C426C24AC006C697F4FE5F83A4C4ECA2
:101BE0002A892E8489C49C4C99E32685B12697F7CF
:101BF000FFFF938727836317F402C0408317C40055
:101C00001397070193F687004183ADEA93760701A6
:101C100095EA25472320E90093E707042316F400FB
:101C20007D5571A897F7FFFF9387C7816314F40070
:101C30008044E9B797E7FFFF9387C77CE310F4FC84
:101C4000C0446DBF118B0DC74C5889C9930744041C
:101C50006384F5004A85C52B232A04028357C400F8
:101C60002322040093F7B7FD2316F4001C481CC080
:101C70008357C40093E787002316F4001C4881EFC4
:101C80008357C4001307002093F707286385E700F4
:101C9000A2854A85BD218317C4001397070193F6D7
:101CA000170041839DC2544823240400B306D0404A
:101CB00014CC1448014581E61377070831FFB24080
:101CC00022449244024941018280937627000146D2
:101CD00091E2504810C4F1BF83D7C500011122CC56
:101CE00026CA06CE4AC84EC613F78700AA842E8499
:101CF00075E3D8416347E000B8416344E000014523
:101D000075A858546DDF856603A90400F58F23A0DC
:101D10000400A5CF68488357C400918B99C75C40E5
:101D20001D8D5C5899C33C401D8D5C540C502A8617
:101D3000814626858297FD570357C400631DF50031
:101D40009440F54763E3D708B70740208507B3D72A
:101D5000D700858BBDCB1C48232204001CC085679F
:101D60007D8F19C7FD576314F5009C4091E368C847
:101D70004C5823A02401C1D5930744046384F50083
:101D80002685D121232A04029DBF0C508546014699
:101D900026850297FD57E310F5F89C40ADDF7547A7
:101DA0006385E70059476395E70023A0240181BFBD
:101DB0008357C40093E707042316F400F2406244FB
:101DC000D2444249B2490561828013670704231651
:101DD000E400EDB783A90501E38309F203A9050037
:101DE0008D8B23A0350133093941014791E3D8494F
:101DF00018C4E35620F11C540C50CA864E86268522
:101E00008297634AA0008357C4007D5593E7070477
:101E10002316F40065B7AA993309A940D9BF9C4994
:101E2000B9CF011122CC06CE2A8411C51C4D81E701
:101E30002EC61922B24597E7FFFF9387A75E639BE3
:101E4000F5004C408397C50095C722856244F24057
:101E5000056159B597E7FFFF9387C75E6394F50067
:101E60000C44CDB797E7FFFF9387C759E39CF5FC78
:101E70004C44C9BFF240624401450561828001457E
:101E80008280411122C406C62A842316B500231776
:101E9000C50023200500232205002324050023225A
:101EA000050623280500232A0500232C05002146CA
:101EB00081451305C505E5249707000093878753DF
:101EC0005CD0970700009387E7551CD49707000064
:101ED0009387275A5CD4970700009387E75CB2404A
:101EE00000D01CD8224441018280970500009385D0
:101EF00045F3B1A2411126C2130680069384F5FF73
:101F0000B384C4024AC02E8922C406C693854407FE
:101F1000E12E2A8419C92320050023222501310539
:101F200008C41386840681459D2CB2402285224434
:101F300092440249410182801C4DBDE3411122C4FB
:101F400006C697070000938787FA1CD5232405044B
:101F5000232605042328050497F7FFFF83A7870599
:101F60002A846314F50085471CCD22851D2848C0AE
:101F70002285052808C422852D2048C448400146F2
:101F80009145013708440546A545E53D48440946C5
:101F9000C945C53D8547B2401CCC224441018280E1
:101FA0008280411126C297F4FFFF83A4A4009C4CB9
:101FB0004AC006C622C42A8999E32685B53F938480
:101FC00084048044DC40FD1763D607009C40B1CFF9
:101FD0008440C5BF0317C40031E7C17785072322BA
:101FE00004062320040023220400232404005CC4EC
:101FF00023280400232A0400232C040021468145C1
:102000001305C405692A232A0402232C040223246D
:10201000040423260404B240228522449244024947
:10202000410182801304840679BF91454A85D935E0
:1020300088C02A8451FDB1472320F900E9BF797196
:1020400022D44AD04ECE52CC5AC85EC606D626D22C
:1020500056CA2A892E8A130485048149054BFD5BE3
:102060000444832A4400FD1A63D00A0200406DF83C
:10207000B250225492540259624AD24A424BB24B55
:102080004E85F2494561828083D7C400637BFB00A3
:102090008397E40063877701A6854A85029AB3E9AE
:1020A000A90093848406C1B75971CAD02E8983953B
:1020B000E500A2D4A6D286D63284B68463DC0500BD
:1020C0008317C90023A0040093F707088DE3930743
:1020D000004005A030002529E34405FE3247BD67D6
:1020E000F98F7977BA9793B717009CC0CDB793074C
:1020F0000004B6501CC0265496540659014565612B
:10210000828083D7C500011122CC06CE26CA4AC8D8
:10211000898B2E8489CF930774041CC01CC8854703
:102120005CC8F2406244D244424905618280740036
:1021300030002A89953FA245AA844A85752201ED7F
:102140008317C40013F7072069FFF19B93E727006B
:102150002316F400C9B797070000938747D92324B3
:10216000F9028357C40008C008C893E7070823167C
:10217000F400A2475CC8B24789CF8315E4004A85C2
:10218000C12601C98357C400F19B93E717002316AA
:10219000F4000355C400C98C2316940059B73D437D
:1021A0002A876373C3029377F700BDEFADE593769B
:1021B00006FF3D8ABA960CC34CC30CC74CC74107F7
:1021C000E36BD7FE11E28280B306C3408A06970212
:1021D000000096966780A6002307B700A306B70005
:1021E0002306B700A305B7002305B700A304B70073
:1021F0002304B700A303B7002303B700A302B7006B
:102200002302B700A301B7002301B700A300B70062
:102210002300B700828093F5F50F93968500D58D46
:1022200093960501D58D61B793962700970200001C
:1022300096968682E78086FA9680C1171D8F3E9615
:10224000E374C3F8A5B7C5C183A7C5FF011122CCAC
:1022500006CE1384C5FF63D307003E942AC6992691
:1022600017F7FE5F130707871C43324581EB2322D4
:10227000040000C36244F240056135A6637DF400AA
:102280001040B306C4006396D7009443DC43B29673
:1022900014C05CC0F9BF3E87DC4399C3E37DF4FE04
:1022A00014433306D700631F86001040B29614C350
:1022B0003306D700E390C7FC9043DC43B29614C3C7
:1022C0005CC34DBF6375C400B1471CC165B7104006
:1022D000B306C4006396D7009443DC43B29614C09F
:1022E0005CC040C341BF8280011126CA938435007F
:1022F000F1984AC806CE22CC4EC6A104B1472A891D
:1023000063F4F404B14463E3B4044A85612C97E6B2
:10231000FE5F9386267C98423A8421E417E4FE5FB0
:102320001304847B1C4089E781454A85512808C0F5
:10233000A6854A857120FD5963183507B1472320CA
:10234000F9004A858D2431A0E3DF04FAB147232048
:10235000F9000145F2406244D2444249B249056164
:1023600082801C40858F63CE07022D466376F6007F
:102370001CC03E9404C029A05C40631287029CC22A
:102380004A8515241305B400930744006199330767
:10239000F540E301F5FC3A94898F1CC065BF5CC32E
:1023A000C5B72287404095BF130435007198E303F9
:1023B00085FCB305A4404A852120E31D35FBBDBF44
:1023C000411122C42A842E8597E7FE5F23A8077057
:1023D00006C6EF40B039FD576318F50097E7FE5F7A
:1023E00083A7C76F91C31CC0B240224441018280C1
:1023F000411122C42E848395E50006C675226349E7
:1024000005007C48AA977CC8B240224441018280E2
:102410008357C4007D777D17F98F2316F400EDB73D
:1024200083D7C500011122CC26CA4AC84EC606CEA3
:1024300093F70710AA842E843289B68991C78395B1
:10244000E500894601462D228357C4007D777D171C
:10245000F98F8315E4002316F4006244F240CE861F
:102460004A86B24942492685D24405613DA84111B8
:1024700022C42E848395E50006C6DD28FD57035748
:10248000C400631BF500FD77FD17F98F2316F400D8
:10249000B2402244410182808567D98F2316F4001F
:1024A00068C8FDB78395E5001DA8411122C42A84A0
:1024B0002E85B285368697E7FE5F23A1076206C6A2
:1024C000EF407031FD576318F50097E7FE5F83A773
:1024D000E76091C31CC0B240224441018280411197
:1024E00022C42A842E8597E7FE5F23A9075E06C6CD
:1024F000EF40101CFD576318F50097E7FE5F83A7B8
:10250000E75D91C31CC0B240224441018280411169
:1025100022C42A842E85B28597E7FE5F23A0075C3C
:1025200006C6EF40101BFD576318F50097E7FE5FE6
:1025300083A7C75A91C31CC0B24022444101828084
:10254000411122C42A842E8597E7FE5F23A80758ED
:1025500006C6EF40701AFD576318F50097E7FE5F57
:1025600083A7C75791C31CC0B24022444101828057
:10257000411122C42A842E85B285368697E7FE5FF4
:1025800023AE075406C6EF403019FD576318F50017
:1025900097E7FE5F83A7875491C31CC0B2402244D3
:1025A0004101828082808280411122C42A842E854A
:1025B000B285368697E7FE5F23A2075206C6EF4034
:1025C0005018FD576318F50097E7FE5F83A7075182
:1025D00091C31CC0B240224441018280011106CE49
:1025E00022CC00102326A4FE8327C4FE9C43DC5784
:1025F0000325C4FE8297AA873E85F24062440561A6
:102600008280011122CE00102326A4FE8327C4FE5F
:1026100099EBB71700800327C4FE0A07938787AAA0
:10262000BA979C4311A081473E8572440561828020
:10263000011122CE0010F32740F12326F4FE832758
:10264000C4FE3E85724405618280011122CE0010D5
:102650002326A4FE0327C4FEB71700809387C7AACA
:102660006315F700B707000211A081473E85724449
:1026700005618280011122CE00102326A4FE0327CB
:10268000C4FEB71700809387C7AA6314F700894771
:1026900011A081473E85724405618280011122CEDE
:1026A00000102326A4FE2324B4FE832784FE91E792
:1026B000B70700809387070921A8032784FE854771
:1026C0006317F700B70700809387070911A08147B8
:1026D0003E85724405618280011122CE00102326BE
:1026E000A4FE2324B4FE832784FE99E38D4709A822
:1026F000032784FE85476314F7009D4711A0814797
:102700003E857244056182805D7186C6A2C4CAC2DC
:10271000CEC052DE56DC5ADA5ED862D666D4800865
:10272000232EA4FA8327C4FB3E8505372326A4FC69
:102730000327C4FCB167F117BA979C432324F4FC28
:102740000327C4FCB167E117BA979C432322F4FC2A
:102750000327C4FCB167F117BA979C43032784FC95
:10276000E318F7FC832784FC3E8C814C93190C0002
:102770000149832744FC3E8A814A336B4901B3EB0C
:1027800059015A87DE873A85BE85B64026441649E8
:102790008649725AE25A525BC25B325CA25C61614A
:1027A0008280797106D622D44AD24ED00018232EC8
:1027B000A4FC232CB4FC2328C4FC232AD4FC8327A8
:1027C000C4FD2326F4FE8327C4FE3E85BD3D23249D
:1027D000A4FE832784FD8E073E87832784FE3E97D1
:1027E00091679107BA973E87FD571CC3832784FDE5
:1027F0008E073E87832784FE3E979167BA973E8770
:10280000832704FD1CC3832744FD13D90700814996
:10281000832784FD8E073E87832784FE3E9791673A
:102820009107BA974A8798C381473E85B250225490
:102830001259825945618280011106CE22CC0010C6
:10284000232604FEF32740F12326F4FE8327C4FE4B
:102850003E85453B2324A4FE032584FE4133AA87FD
:102860003E85F240624405618280397106DE22DCD9
:1028700080002326A4FC0325C4FCED3B2324A4FEF6
:102880008327C4FC2322F4FE832744FEDC43A9EF04
:10289000232604FE81A08325C4FE0325C4FCFD3B42
:1028A0002320A4FE8325C4FE0325C4FC3535232E36
:1028B000A4FC832704FE9C43DC4F8326C4FC014612
:1028C0008325C4FD032504FE82978327C4FE850764
:1028D0002326F4FE0327C4FE832784FEE34DF7FA84
:1028E000832744FE0547D8C30100F250625421619A
:1028F0008280397106DE22DC80002326A4FC23249A
:10290000B4FC2322C4FC2320D4FCFD572326F4FE70
:10291000EF1080442320A4FE232404FE313F232E05
:10292000A4FC0325C4FCB933232CA4FC032704FE18
:1029300085476308F700832704FE81C78327C4FE09
:1029400049A0232204FE91A0832544FE0325C4FC54
:102950006133232AA4FC832544FE0325C4FC3D3BAC
:102960002324A4FE0327C4FD832784FE6318F700F5
:10297000032784FC832744FD6300F702232404FE1D
:10298000832744FE85072322F4FE032744FE832782
:1029900084FDE34BF7FA11A00100832784FE85C371
:1029A000832784FE9C43DC4F832604FC032644FCDF
:1029B000832584FC032584FE82972326A4FE832797
:1029C000C4FE3E85F250625421618280797122D624
:1029D0000018232EA4FC232CB4FC232AC4FC232897
:1029E000D4FCFD572326F4FE8327C4FE3E853254D3
:1029F00045618280011106CE22CC00102326A4FE60
:102A0000EF108035AA873E85F240624405618280DE
:102A1000797106D622D40018232EA4FC232CB4FCF2
:102A2000FD572326F4FE093D2324A4FE832784FEBC
:102A300095C3032784FD854763E0E702832784FE6F
:102A40009C43DC43832584FD032584FE8297232653
:102A5000A4FE21A0010011A001008327C4FE3E8531
:102A6000B250225445618280397106DE22DC80003A
:102A70002326A4FC2324B4FCFD572326F4FE83273D
:102A800084FCC9C7232404FE453B2320A4FE032560
:102A9000C4FCCD36232EA4FC232204FE91A0832562
:102AA00044FE0325C4FC0D39232CA4FC832544FEDD
:102AB0000325C4FCE5362324A4FE032704FE832754
:102AC00084FE6318F700032784FC832784FD6300DA
:102AD000F702232404FE832744FE85072322F4FE05
:102AE000032744FE8327C4FDE34BF7FA11A001003E
:102AF000832784FE81CF832784FE9C43DC53832578
:102B000084FC032584FE82972326A4FE8327C4FE2B
:102B10003E85F250625421618280397106DE22DCEA
:102B200080002326A4FC2324B4FCFD572326F4FEB6
:102B3000832784FCC9C7232404FEFD392320A4FE77
:102B40000325C4FC053E232EA4FC232204FE91A0F1
:102B5000832544FE0325C4FC4136232CA4FC832595
:102B600044FE0325C4FC1D3E2324A4FE032704FECB
:102B7000832784FE6318F700032784FC832784FDE2
:102B80006300F702232404FE832744FE85072322E3
:102B9000F4FE032744FE8327C4FDE34BF7FA11A09C
:102BA0000100832784FE81CF832784FE9C439C57AA
:102BB000832584FC032584FE82972326A4FE832795
:102BC000C4FE3E85F250625421618280797106D63E
:102BD00022D40018232EA4FC232CB4FC232AC4FCEA
:102BE000FD572326F4FE8327C4FD2324F4FE03258A
:102BF000C4FDEFF09FA52322A4FE032784FD914787
:102C00006300F70C032784FD914763C0E70E032799
:102C100084FD8D476305F706032784FD8D4763C652
:102C2000E70C032784FD85476308F700032784FD2D
:102C300089476302F70255A8832744FDCDCB0325BE
:102C400084FED9342A87AE87832644FD98C2DCC22D
:102C5000232604FE69A8832744FDC1CF832744FDB2
:102C60009C432320F4FE832704FE8A073E878327A4
:102C700044FEBA9723A00700232604FE9DA88327BD
:102C800044FDB5CB832744FD9C432320F4FE8327DA
:102C900004FE8A073E87832744FEBA973E8785470E
:102CA0001CC30F008004832704FE8A073E87832706
:102CB00044FEBA979C432326F4FE232604FE25A84F
:102CC000232604FE832744FD8DCB832744FD9C43AC
:102CD0002320F4FE832704FE8A073E87832744FED1
:102CE000BA979C432326F4FE09A8010001A801001D
:102CF00031A0010021A0010011A001008327C4FE22
:102D00003E85B250225445618280797106D622D424
:102D10000018232EA4FC232CB4FCEFF07F91AA878B
:102D20002326F4FE9307C4FE3E8689450325C4FD91
:102D3000713DAA873E85B2502254456182807971E7
:102D400006D622D40018232EA4FC232CB4FCEFF0CA
:102D50003F8EAA872326F4FE9307C4FE3E868D4548
:102D60000325C4FDA535AA873E85B250225445618E
:102D70008280011122CE00102326A4FE0327C4FE68
:102D8000938741816314F700814711A0FD573E8569
:102D9000724405618280011122CE00102326A4FE18
:102DA0000327C4FE938741816317F700B727F40018
:102DB0009387074011A081473E8572440561828058
:102DC000011122CE00102326A4FE0327C4FE938700
:102DD00041816317F700B70700809387070911A0A7
:102DE00081473E85724405618280011122CE001028
:102DF0002326A4FE0327C4FE938741816314F700B2
:102E0000814711A081473E8572440561828001118E
:102E100022CE00102326A4FE8327C4FE634CF000BC
:102E2000B71700800327C4FE0A07938787AABA97BB
:102E30009C4311A081473E85724405618280011147
:102E400022CE0010F32740F12326F4FE8327C4FE90
:102E50003E85724405618280011122CE0010A14797
:102E6000F3A707302326F4FE010072440561828037
:102E7000011122CE0010A147F3B707302326F4FE3C
:102E80000100724405618280011122CE0010A14729
:102E9000F3A747302326F4FE0100724405618280C7
:102EA000011122CE0010A147F3B747302326F4FECC
:102EB0000100724405618280011122CE0010930747
:102EC0000008F3A747302326F4FE01007244056191
:102ED0008280011122CE001093070008F3B747301B
:102EE0002326F4FE0100724405618280011122CE86
:102EF0000010856793870780F3A747302326F4FEE9
:102F00000100724405618280011122CE00108567A4
:102F100093870780F3B747302326F4FE01007244FD
:102F200005618280797122D60018232EA4FC8327A4
:102F3000C4FD0547B317F7002326F4FE8327C4FE1C
:102F4000F3A747302324F4FE010032544561828008
:102F5000797122D60018232EA4FC8327C4FD0547CF
:102F6000B317F7002326F4FE8327C4FEF3B74730D8
:102F70002324F4FE0100325445618280011106CE03
:102F800022CC00102326A4FE2324B4FE1305400601
:102F9000EF30304F011106CE22CC00102326A4FEC4
:102FA0002324B4FE1305800CEF30B04D5D7186C64E
:102FB00096C49AC29EC022DE2ADC2EDA32D836D6D9
:102FC0003AD43ED242D046CE72CC76CA7AC87EC6B9
:102FD00080081305C012EF30D04A1D7186CE96CC02
:102FE0009ACA9EC8A2C6AAC4AEC2B2C036DE3ADC35
:102FF0003EDA42D846D672D476D27AD07ECE8010CF
:103000003D3D2A87B71700800A07938787AABA979A
:103010009C432326F4FA8327C4FA85C70325C4FA00
:1030200045332324A4FA832784FA83A7070E232297
:10303000F4FA832784FA83A7870D832544FA0D4584
:1030400082970100F640E6425643C6433644264581
:1030500096450646F2566257D2574258B258225EFB
:10306000925E025FF24F256173002030797106D6BF
:1030700022D40018232EA4FC232CB4FCC9332A87A5
:10308000B71700800A07938787AABA979C4323261D
:10309000F4FEF32720342324F4FE8327C4FE95C7CF
:1030A0000325C4FE313B2322A4FE832784FE93F72D
:1030B000F73F032744FE9387870E8A07BA979C43FE
:1030C0008325C4FD0325C4FE82970100B25022541B
:1030D000456182801D7186CE96CC9ACA9EC8A2C6D2
:1030E000AAC4AEC2B2C036DE3ADC3EDA42D846D618
:1030F00072D476D27AD07ECE801091332A87B717D9
:1031000000800A07938787AABA979C432326F4FA7C
:103110008327C4FA85C70325C4FA5D312324A4FAA2
:10312000832784FA83A707142322F4FA832784FAD7
:1031300083A78713832544FA1D4582970100F64033
:10314000E6425643C6433644264596450646F25661
:103150006257D2574258B258225E925E025FF24FD7
:10316000256173002030011122CE00102326A4FE19
:103170002324B4FE0100724405618280797106D671
:1031800022D40018232EA4FC232CB4FC4D39AA878A
:103190003E85B5392326A4FE0325C4FEEF10402842
:1031A0002320A4FE2322B4FE032704FE832744FE2B
:1031B000294581453306A70032883338E800B386B5
:1031C000B700B307D800BE863287B687BA853E8679
:1031D0000325C4FEEF10202B0100B250225445619C
:1031E00082800000000000000000000000000000DD
:1031F00000000000000000000000000000000000CF
:10320000197186DE96DC9ADA9ED8A2D6AAD4AED2FE
:10321000B2D0B6CEBACCBECAC2C8C6C6F2C4F6C216
:10322000FAC07EDE000121392A87B71700800A071D
:10323000938787AABA979C432326F4FAF32720346E
:103240002324F4FAF32710342322F4FAF32730343A
:103250002320F4FAF3275030232EF4F88327C4FAFE
:10326000FDCB0325C4FAEFF0BFB5232CA4F88327C8
:1032700084FA93F7F73F232AF4F8832784FA63DE6E
:10328000070A032744F9930700086312F70283270C
:1032900084F983A787392326F4F8832784F983A741
:1032A00007398325C4F8032544F982976DA00327C5
:1032B00044F9AD4763D7E7008327C4F993F7F703D1
:1032C0009DEF832684F9032744F9BA878607BA97C6
:1032D0008E07B69783A787092326F4F8832684F9F7
:1032E000032744F9BA878607BA978E07B69783A74C
:1032F00007098325C4F8032544F98297A9A88327E1
:10330000C4F913F7F70389476317F704F3277030FD
:103310002328F4F8832784F983A7C70D2326F4F81C
:10332000832704F99C432324F4F8832784F8832516
:10333000C4F8032544F9829739A8032784F9832721
:1033400044F99387870E8A07BA979C43832544F9EB
:103350000325C4FA8297F650E6525653C6533654A4
:10336000265596550656F6466647D6474648B64809
:10337000264E964E064FF25F096173002030000022
:10338000000000000000000000000000000000003D
:10339000000000000000000000000000000000002D
:1033A000000000000000000000000000000000001D
:1033B000000000000000000000000000000000000D
:1033C00000000000000000000000000000000000FD
:1033D00000000000000000000000000000000000ED
:1033E00000000000000000000000000000000000DD
:1033F00000000000000000001D7186CE96CC9ACA25
:103400009EC8A2C6AAC4AEC2B2C036DE3ADC3EDA5C
:1034100042D846D672D476D27AD07ECE8010EFF0E3
:103420001FA22A87B71700800A07938787AABA972F
:103430009C432326F4FA8327C4FA8DC70325C4FAD4
:10344000EFF01F982324A4FA832784FA83A7872107
:103450002322F4FA832784FA83A70721832544FAD9
:10346000414582970100F640E6425643C643364442
:10347000264596450646F2566257D2574258B258EC
:10348000225E925E025FF24F2561730020301D7153
:1034900086CE96CC9ACA9EC8A2C6AAC4AEC2B2C0F4
:1034A00036DE3ADC3EDA42D846D672D476D27AD0CC
:1034B0007ECE8010EFF0BF982A87B71700800A07EA
:1034C000938787AABA979C432326F4FA8327C4FAE2
:1034D0008DC70325C4FAEFF0BF8E2324A4FA8327F7
:1034E00084FA83A707232322F4FA832784FA83A785
:1034F0008722832544FA454582970100F640E6423B
:103500005643C6433644264596450646F25662570C
:10351000D2574258B258225E925E025FF24F256146
:10352000730020301D7186CE96CC9ACA9EC8A2C662
:10353000AAC4AEC2B2C036DE3ADC3EDA42D846D6C3
:1035400072D476D27AD07ECE8010EFF05F8F2A8749
:10355000B71700800A07938787AABA979C43232648
:10356000F4FA8327C4FA8DC70325C4FAEFF05F8508
:103570002324A4FA832784FA83A787242322F4FA36
:10358000832784FA83A70724832544FA4945829731
:103590000100F640E6425643C6433644264596456A
:1035A0000646F2566257D2574258B258225E925E91
:1035B000025FF24F2561730020301D7186CE96CCDC
:1035C0009ACA9EC8A2C6AAC4AEC2B2C036DE3ADC4F
:1035D0003EDA42D846D672D476D27AD07ECE8010E9
:1035E000EFF0FF852A87B71700800A07938787AA1D
:1035F000BA979C432326F4FA8327C4FA8DC7032580
:10360000C4FAEFF0EFFB2324A4FA832784FA83A7FC
:1036100007262322F4FA832784FA83A787258325A4
:1036200044FA4D4582970100F640E6425643C643B0
:103630003644264596450646F2566257D2574258BA
:10364000B258225E925E025FF24F25617300203015
:103650001D7186CE96CC9ACA9EC8A2C6AAC4AEC216
:10366000B2C036DE3ADC3EDA42D846D672D476D2E2
:103670007AD07ECE8010EFF08FFC2A87B7170080BB
:103680000A07938787AABA979C432326F4FA8327CD
:10369000C4FA8DC70325C4FAEFF08FF22324A4FAED
:1036A000832784FA83A787272322F4FA832784FABF
:1036B00083A70727832544FA514582970100F640E6
:1036C000E6425643C6433644264596450646F256DC
:1036D0006257D2574258B258225E925E025FF24F52
:1036E0002561730020301D7186CE96CC9ACA9EC883
:1036F000A2C6AAC4AEC2B2C036DE3ADC3EDA42D8B6
:1037000046D672D476D27AD07ECE8010EFF02FF3E8
:103710002A87B71700800A07938787AABA979C431E
:103720002326F4FA8327C4FA8DC70325C4FAEFF0E1
:103730002FE92324A4FA832784FA83A707292322C5
:10374000F4FA832784FA83A78728832544FA55450A
:1037500082970100F640E6425643C643364426456A
:1037600096450646F2566257D2574258B258225EE4
:10377000925E025FF24F2561730020301D7186CE8C
:1037800096CC9ACA9EC8A2C6AAC4AEC2B2C036DE41
:103790003ADC3EDA42D846D672D476D27AD07ECEA1
:1037A0008010EFF0CFE92A87B71700800A079387C8
:1037B00087AABA979C432326F4FA8327C4FA8DC7B5
:1037C0000325C4FAEFF0CFDF2324A4FA832784FA79
:1037D00083A7872A2322F4FA832784FA83A7072A58
:1037E000832544FA594582970100F640E642564344
:1037F000C6433644264596450646F2566257D2578A
:103800004258B258225E925E025FF24F2561730009
:1038100020301D7186CE96CC9ACA9EC8A2C6AAC474
:10382000AEC2B2C036DE3ADC3EDA42D846D672D4F8
:1038300076D27AD07ECE8010EFF06FE02A87B7176D
:1038400000800A07938787AABA979C432326F4FA35
:103850008327C4FA8DC70325C4FAEFF06FD623245B
:10386000A4FA832784FA83A7072C2322F4FA832758
:1038700084FA83A7872B832544FA5D45829701004C
:10388000F640E6425643C64336442645964506462C
:10389000F2566257D2574258B258225E925E025F89
:1038A000F24F2561730020301D7186CE96CC9ACAE6
:1038B0009EC8A2C6AAC4AEC2B2C036DE3ADC3EDAA8
:1038C00042D846D672D476D27AD07ECE8010EFF02F
:1038D0000FD72A87B71700800A07938787AABA9756
:1038E0009C432326F4FA8327C4FA8DC70325C4FA20
:1038F000EFF00FCD2324A4FA832784FA83A7872D22
:103900002322F4FA832784FA83A7072D832544FA18
:10391000614582970100F640E6425643C64336446D
:10392000264596450646F2566257D2574258B25837
:10393000225E925E025FF24F2561730020301D719E
:1039400086CE96CC9ACA9EC8A2C6AAC4AEC2B2C03F
:1039500036DE3ADC3EDA42D846D672D476D27AD017
:103960007ECE8010EFF0AFCD2A87B71700800A0710
:10397000938787AABA979C432326F4FA8327C4FA2D
:103980008DC70325C4FAEFF0AFC32324A4FA83271D
:1039900084FA83A7072F2322F4FA832784FA83A7C4
:1039A000872E832544FA654582970100F640E6425A
:1039B0005643C6433644264596450646F256625758
:1039C000D2574258B258225E925E025FF24F256192
:1039D000730020301D7186CE96CC9ACA9EC8A2C6AE
:1039E000AAC4AEC2B2C036DE3ADC3EDA42D846D60F
:1039F00072D476D27AD07ECE8010EFF04FC42A8770
:103A0000B71700800A07938787AABA979C43232693
:103A1000F4FA8327C4FA8DC70325C4FAEFF04FBA2E
:103A20002324A4FA832784FA83A787302322F4FA75
:103A3000832784FA83A70730832544FA6945829750
:103A40000100F640E6425643C643364426459645B5
:103A50000646F2566257D2574258B258225E925EDC
:103A6000025FF24F2561730020301D7186CE96CC27
:103A70009ACA9EC8A2C6AAC4AEC2B2C036DE3ADC9A
:103A80003EDA42D846D672D476D27AD07ECE801034
:103A9000EFF0EFBA2A87B71700800A07938787AA43
:103AA000BA979C432326F4FA8327C4FA8DC70325CB
:103AB000C4FAEFF0EFB02324A4FA832784FA83A793
:103AC00007322322F4FA832784FA83A787318325D8
:103AD00044FA6D4582970100F640E6425643C643DC
:103AE0003644264596450646F2566257D257425806
:103AF000B258225E925E025FF24F25617300203061
:103B00001D7186CE96CC9ACA9EC8A2C6AAC4AEC261
:103B1000B2C036DE3ADC3EDA42D846D672D476D22D
:103B20007AD07ECE8010EFF08FB12A87B717008051
:103B30000A07938787AABA979C432326F4FA832718
:103B4000C4FA8DC70325C4FAEFF08FA72324A4FA83
:103B5000832784FA83A787332322F4FA832784FAFE
:103B600083A70733832544FA714582970100F64005
:103B7000E6425643C6433644264596450646F25627
:103B80006257D2574258B258225E925E025FF24F9D
:103B90002561730020301D7186CE96CC9ACA9EC8CE
:103BA000A2C6AAC4AEC2B2C036DE3ADC3EDA42D801
:103BB00046D672D476D27AD07ECE8010EFF02FA87F
:103BC0002A87B71700800A07938787AABA979C436A
:103BD0002326F4FA8327C4FA8DC70325C4FAEFF02D
:103BE0002F9E2324A4FA832784FA83A70735232250
:103BF000F4FA832784FA83A78734832544FA75452A
:103C000082970100F640E6425643C64336442645B5
:103C100096450646F2566257D2574258B258225E2F
:103C2000925E025FF24F2561730020301D7186CED7
:103C300096CC9ACA9EC8A2C6AAC4AEC2B2C036DE8C
:103C40003ADC3EDA42D846D672D476D27AD07ECEEC
:103C50008010EFF0CF9E2A87B71700800A0793875E
:103C600087AABA979C432326F4FA8327C4FA8DC700
:103C70000325C4FAEFF0CF942324A4FA832784FA0F
:103C800083A787362322F4FA832784FA83A707368B
:103C9000832544FA794582970100F640E64256436F
:103CA000C6433644264596450646F2566257D257D5
:103CB0004258B258225E925E025FF24F2561730055
:103CC00020301D7186CE96CC9ACA9EC8A2C6AAC4C0
:103CD000AEC2B2C036DE3ADC3EDA42D846D672D444
:103CE00076D27AD07ECE8010EFF06F952A87B71704
:103CF00000800A07938787AABA979C432326F4FA81
:103D00008327C4FA8DC70325C4FAEFF06F8B2324F1
:103D1000A4FA832784FA83A707382322F4FA832797
:103D200084FA83A78737832544FA7D45829701006B
:103D3000F640E6425643C643364426459645064677
:103D4000F2566257D2574258B258225E925E025FD4
:103D5000F24F256173002030011122CE0010F327AD
:103D600050302326F4FE8327C4FE93F7F70323265F
:103D7000F4FE0327C4FE8D476303F7020327C4FE46
:103D80008D4763E2E7020327C4FE8547630BF70014
:103D90000327C4FE89476318F7008D4731A0914778
:103DA00021A0854711A081473E857244056182802C
:103DB000797122D60018232EA4FC232CB4FCF327FF
:103DC00050302326F4FE8327C4FE93F707FC2326F6
:103DD000F4FE832784FD2324F4FE0327C4FD9147CA
:103DE0006305F7040327C4FD914763E8E70603274B
:103DF000C4FD8D4763E3E7060327C4FD8947637B62
:103E0000F7008327C4FDA1C70327C4FD85476309C5
:103E1000F702A1A0832784FE739077308327C4FE26
:103E200093E72700739057300DA8832784FE739083
:103E300077308327C4FE93E737007390573031A85B
:103E4000832784FE93E717007390573039A08327A8
:103E500084FEF19B7390573001000100325445619C
:103E60008280011122CE00102326A4FE0327C4FE67
:103E7000FD4763C6E7020327C4FE8D476349F70287
:103E80008327C4FE05473317F700C57793878788D4
:103E9000F98FB337F00093F7F70F81EB09A80327E9
:103EA000C4FE930700086314F700854719A00100BA
:103EB00081473E85724405618280797106D622D49D
:103EC0000018232EA4FC232CB4FC232AC4FC232694
:103ED00004FE8327C4FD99E3FD5749A8032784FD09
:103EE000FD4763E0E708832784FD13972700B707A2
:103EF00001209387474CBA979C438287832744FDD0
:103F000081C7EFE07FF58DA0EFE09FF6B1A8832792
:103F100044FD81C7EFE05FF781A8EFE07FF8A9A03B
:103F2000832744FD81C7EFE03FF93DA8EFE07FFA2A
:103F300025A8832744FD81C7EFE05FFB35A0EFE0B4
:103F4000BFFC1DA0832744FD99C7832784FD3E85C0
:103F5000EFE05FFD11A8832784FD3E85EFE05FFF62
:103F600021A0FD572326F4FE8327C4FE3E85B250D0
:103F7000225445618280797122D60018232EA4FC38
:103F8000232CB4FC232AC4FC8327C4FD2326F4FE7F
:103F9000032784FDAD4763C2E702832744FD91CF29
:103FA0000327C4FE832784FD9387870E8A07BA9769
:103FB000032744FD98C3814711A0FD573E85325425
:103FC00045618280797106D622D40018232EA4FC84
:103FD0008327C4FD2322F4FE832744FEDC43DDEF68
:103FE000232604FEB9A0832644FE0327C4FEBA8715
:103FF0008607BA978E07B69723A80708832644FE3C
:104000000327C4FEBA878607BA978E07B69723AAF6
:104010000708832644FE0327C4FEBA878607BA979B
:104020008E07B69723AC07088327C4FE850723268F
:10403000F4FE0327C4FEFD47E3D7E7FA232404FE7A
:104040001DA0032744FE832784FE9387870E8A07DB
:10405000BA97373701201307C7F798C3832784FE21
:1040600085072324F4FE032784FEAD47E3DBE7FC4A
:10407000F32750302320F4FEB7070120938747131E
:10408000032704FE6318F700B73701209385072044
:104090000145393B832744FE0547D8C30100B25090
:1040A000225445618280797106D622D40018232ECD
:1040B000A4FC232CB4FC232AC4FC2328D4FC2326F0
:1040C00004FE8327C4FD2324F4FE032584FD513B15
:1040D000AA8799E3D5575DA2032784FD93070008BB
:1040E0006317F7009539AA8799C3CD5741AA83274B
:1040F00044FDB9CF032784FD93070008631FF70031
:10410000832784FE032744FD23A8E738832784FE02
:10411000032704FD23ACE73885A2832684FE03270A
:1041200084FDBA878607BA978E07B697032744FDA2
:1041300023A8E708832684FE032784FDBA87860721
:10414000BA978E07B697032704FD23ACE7082DA284
:10415000032784FD930700086301F70C032784FD00
:104160009307000863C7E710032784FDFD4763C278
:10417000E710032784FDC1476350F70C032784FD34
:10418000AD47630BF70A032784FDAD4763C3E70E12
:10419000032784FD8D476308F700032784FD9D47AF
:1041A0006300F704F9A0832684FE032784FDBA8701
:1041B0008607BA978E07B697373701201307C706C9
:1041C00023A8E708832684FE032784FDBA87860791
:1041D000BA978E07B697032704FD23AAE70869A8B4
:1041E000832684FE032784FDBA878607BA978E0745
:1041F000B697373701201307C71723A8E708832688
:1042000084FE032784FDBA878607BA978E07B69780
:10421000032704FD23AAE70885A0832784FE3737F8
:1042200001201307671623A8E738832784FE032796
:1042300004FD23ACE73889A0832684FE032784FD90
:10424000BA878607BA978E07B697373701201307C4
:1042500047F923A8E708832684FE032784FDBA874D
:104260008607BA978E07B697032704FD23AAE708A7
:1042700021A0D1572326F4FE8327C4FE3E85B250E9
:10428000225445618280011106CE22CC00102326E3
:10429000A4FE2324B4FE832784FE0546BE850325A1
:1042A000C4FEEFF09FC1AA873E85F24062440561DB
:1042B0008280011106CE22CC00102326A4FE2324E6
:1042C000B4FE832784FE0146BE850325C4FEEFF0BD
:1042D000DFBEAA873E85F2406244056182800111FB
:1042E00006CE22CC00102326A4FEEFF0FFA6AA875C
:1042F0003E85F240624405618280011106CE22CCE7
:1043000000102326A4FE2324B4FE832784FE99EB09
:10431000B737012093850720032584FEEFF05FA9BE
:1043200081470DA0032784FE8547631CF700B777FC
:104330000120938507D8032584FEEFF07FA78147EE
:1043400011A0FD573E85F240624405618280011153
:1043500022CE00102326A4FE2324B4FE2322C4FE72
:1043600081473E85724405618280397122DE80007A
:104370002326A4FC014581452324A4FE2326B4FE64
:10438000F32500B82322B4FEF32500B02320B4FEA9
:10439000F32500B8232EB4FC032544FE8325C4FD79
:1043A000E310B5FE832544FE2E888148931708004C
:1043B0000147832504FE2E868146B365C70023246A
:1043C000B4FED58F2326F4FE032784FE8327C4FE84
:1043D0003A85BE85725421618280797106D622D4D5
:1043E0004AD24ED00018232EA4FC8327C4FD81E7B7
:1043F0000149814921A80325C4FDEFE0DF99232667
:10440000A4FE8327C4FE3E89FD87BE894A87CE87E6
:104410003A85BE85B2502254125982594561828034
:10442000797106D622D40018232EA4FC81470148B6
:104430002320F4FE232204FF0325C4FDEFE05F9850
:104440002326A4FE8327C4FE8DC78327C4FE83A72B
:10445000C7132324F4FE832784FE81CF832784FEA1
:104460009C43F847930704FE3E868545032584FE5A
:104470000297032704FE832744FE3A85BE85B25087
:10448000225445618280797106D622D426D2001842
:10449000232EA4FC2328B4FC232AC4FCFD57232686
:1044A000F4FE0325C4FDEFE0BF912324A4FE83277F
:1044B00084FE8DCF832784FE83A7C7132322F4FEB7
:1044C000832744FE85C7832744FE9C43A44B0325D2
:1044D000C4FDEFE01F8AAA87032604FD832644FD5E
:1044E000BE85032544FE82942326A4FE8327C4FEB2
:1044F0003E85B2502254925445618280011122CEF1
:1045000000102326A4FEB71700809387C7AA3E8514
:10451000724405618280011122CE00102326A4FE80
:104520009D473E85724405618280011122CE0010B4
:104530002326A4FEB71700809387C7AA3E8572443E
:1045400005618280011122CE00102326A4FE8D4732
:104550003E85724405618280797106D622D40018A6
:10456000232EA4FC232CB4FCFD572326F4FE0325A4
:10457000C4FDEFE0FF842324A4FE832784FE9DC7AF
:10458000832784FE83A7C70D2322F4FE832744FEDE
:1045900091CF832744FE9C43F847930784FD3E86D2
:1045A0008D45032544FE02972326A4FE8327C4FEDF
:1045B0003E85B250225445618280797106D622D45C
:1045C0000018232EA4FC232CB4FCFD572326F4FE54
:1045D0000325C4FDEFE0CFFE2324A4FE832784FE41
:1045E0009DC7832784FE83A7C70D2322F4FE83275C
:1045F00044FE91CF832744FE9C43F847930784FDF4
:104600003E868945032544FE02972326A4FE832780
:10461000C4FE3E85B250225445618280797106D62F
:1046200022D40018232EA4FC232CB4FC232604FE41
:104630000325C4FDEFE0CFF82324A4FE832784FEE6
:104640009DC7832784FE83A7C70D2322F4FE8327FB
:1046500044FE91CF832744FE9C43F847930784FD93
:104660003E869145032544FE02972326A4FE832718
:10467000C4FE3E85B250225445618280011106CEAF
:1046800022CC00102326A4FE0325C4FEEFE04FF346
:10469000AA873E85F240624405618280797106D620
:1046A00022D40018232EA4FC232CB4FC232AC4FCFF
:1046B0000325C4FDEFE0CFF02326A4FE8327C4FE2C
:1046C00099CB032644FD832584FD0325C4FEEFF02A
:1046D0009F8AAA8711A0FD573E85B250225445619A
:1046E0008280011122CE00102326A4FE2324B4FED2
:1046F000832784FE83D7070013F737008D476314A1
:10470000F700914711A089473E8572440561828078
:10471000797122D60018232EA4FCF3271034232607
:10472000F4FE8327C4FE3E85325445618280011128
:1047300022CE00102326A4FE2324B4FE832784FE69
:104740007390173481473E85724405618280011160
:1047500006CE22CC00102326A4FE0325C4FEEFE0E3
:10476000CFE8AA873E85F24062440561828001114C
:1047700022CE00102326A4FE0327C4FEB707008024
:10478000938707466315F700B707000C11A0814710
:104790003E85724405618280011122CE00102326DD
:1047A000A4FE0327C4FEB70700809387074663155E
:1047B000F7009307500311A081473E8572440561BD
:1047C0008280011122CE00102326A4FE0327C4FEFE
:1047D000B7070080938707466314F7009D4711A031
:1047E00081473E85724405618280011122CE00100E
:1047F0002326A4FE2324B4FE832784FE91E7B70773
:1048000000809387070911A081473E8572440561A6
:104810008280011122CE00102326A4FE2324B4FEA0
:10482000832784FE99E3AD4711A081473E857244FA
:1048300005618280011122CE00102326A4FE832769
:10484000C4FE99E3814711A0FD573E85724405617E
:104850008280797106D622D40018232EA4FC232C42
:10486000B4FC0325C4FD21372326A4FE832784FD41
:104870001397C7008327C4FE3E97B7072000910710
:10488000BA979C433E85B25022544561828079712B
:1048900006D622D40018232EA4FC232CB4FC232AF1
:1048A000C4FC0325C4FDE1352326A4FE832784FD33
:1048B0001397C7008327C4FE3E97B70720009107D0
:1048C000BA973E87832744FD1CC30100B25022548F
:1048D00045618280797106D622D40018232EA4FC6B
:1048E000232CB4FC232AC4FC0325C4FD493523260C
:1048F000A4FE832784FD1397C7008327C4FE3E9739
:10490000B7072000BA973E87832744FD1CC3814721
:104910003E85B250225445618280797106D622D4F8
:104920000018232EA4FC232CB4FC0325C4FD8135E0
:104930002326A4FE832784FD1397C7008327C4FE84
:104940003E97B7072000BA979C433E85B250225449
:1049500045618280797106D622D40018232EA4FCEA
:10496000232CB4FC232AC4FC0325C4FD09352326CB
:10497000A4FE0325C4FDB135AA872324F4FE8327B2
:1049800084FE85C7032744FD832784FE637FF700E9
:10499000832784FD8A073E878327C4FEBA973E8714
:1049A000832744FD1CC3814711A0FD573E85B250AB
:1049B000225445618280797106D622D40018232EB4
:1049C000A4FC232CB4FC0325C4FD55332326A4FEEC
:1049D000832784FD8A073E878327C4FEBA979C43BA
:1049E0003E85B250225445618280797106D622D428
:1049F0000018232EA4FC232CB4FC232AC4FC232857
:104A0000D4FC0325C4FDA5332326A4FE832784FDFF
:104A1000139777008327C4FEBA97032744FD1587B1
:104A20000A073E978967BA979C432324F4FE83279D
:104A300004FD81CF832744FDFD8B0547B317F700A5
:104A40003E87832784FED98F29A8832744FDFD8BC9
:104A50000547B317F70093C7F7FF3E87832784FE08
:104A6000F98F032784FD931677000327C4FE36973A
:104A7000832644FD95868A06BA96096736971CC335
:104A800081473E85B250225445618280011106CE95
:104A900022CC00102326A4FE2324B4FE1305C0124A
:104AA000EF20201E797106D622D40018232EA4FCF4
:104AB000232CB4FC832784FD2326F4FEEFE02FB8DB
:104AC000AA873E85853B2324A4FE832584FE0325F7
:104AD000C4FE41332322A4FE0325C4FE7539AA87F0
:104AE0002320F4FE032744FE832704FE6372F704A9
:104AF0000327C4FE832744FE8A07BA979C478DCBC1
:104B00000327C4FE832744FE8A07BA9703A88700B9
:104B1000032644FE8326C4FE032744FEBA87860785
:104B2000BA978E07B69783A7070FBE85328502987E
:104B3000032644FE832584FE0325C4FE893B010031
:104B4000B250225445618280397106DE22DC800039
:104B50002326A4FC8327C4FC2322F4FE832744FEDF
:104B6000DC43639A0712232604FE31AA0325C4FC02
:104B7000EFF09FC22320A4FE8325C4FE0325C4FCBE
:104B8000EFF0BFC6232EA4FC8325C4FE0325C4FC7E
:104B9000EFF03FC8232CA4FC8327C4FD9C439C4317
:104BA0000325C4FD8297232404FE85A8814603269D
:104BB00084FE8325C4FE032544FE053D032784FEB1
:104BC000832704FE6356F7040146832584FE0325EC
:104BD000C4FC4933032744FE832784FE8A07BA971F
:104BE00023A40700832644FE032784FEBA87860792
:104BF000BA978E07B69723A6070E832644FE03278F
:104C000084FEBA878607BA978E07B69723A8070E41
:104C1000832784FE85072324F4FE032784FE93075D
:104C2000F03FE3D5E7F801468325C4FE0325C4FC25
:104C3000EFF05FCA8327C4FD9C43DC4F832644FE0C
:104C40000146832584FD0325C4FD82978327C4FD87
:104C50009C43D84F832644FEB7570120138647AAAA
:104C6000832584FD0325C4FD02978327C4FD9C434F
:104C7000DC53832584FD0325C4FD82978327C4FE6E
:104C800085072326F4FE8327C4FEE351F0EE832735
:104C900044FE0547D8C30100F2506254216182806E
:104CA000797106D622D40018232EA4FC232CB4FC40
:104CB000232AC4FC2328D4FC8327C4FD2326F4FE26
:104CC0000325C4FDEFF05FAD2A87832784FD63C40D
:104CD000E700FD5751A0832744FD9DCF094683255A
:104CE00084FD0325C4FDEFF0FFC60327C4FE832720
:104CF00084FD8A07BA97032744FD98C78326C4FE1C
:104D0000032784FDBA878607BA978E07B6970327CD
:104D100004FD23A8E70E81A00546832584FD032515
:104D2000C4FDEFF03FC30327C4FE832784FD8A0739
:104D3000BA97375701201307C7A898C78326C4FE20
:104D4000032784FDBA878607BA978E07B69703278D
:104D500004FD23A6E70E81473E85B25022544561EB
:104D60008280797106D622D40018232EA4FC232C2D
:104D7000B4FC8327C4FD2326F4FE0325C4FDEFF015
:104D8000BFA12A87832784FD63C4E700FD5729A8B4
:104D9000EFE0EF8AAA878546032684FDBE850325BA
:104DA000C4FEEFF09FC481473E85B2502254456156
:104DB0008280797106D622D40018232EA4FC232CDD
:104DC000B4FC8327C4FD2326F4FE0325C4FDEFF0C5
:104DD000BF9C2A87832784FD63C4E700FD5729A869
:104DE000EFE0EF85AA878146032684FDBE85032573
:104DF000C4FEEFF09FBF81473E85B250225445610B
:104E00008280011106CE22CC00102326A4FE23248A
:104E1000B4FEEFE0CF82AA87032684FEBE85032579
:104E2000C4FEEFF03FABAA873E85F24062440561C5
:104E30008280011106CE22CC00102326A4FEEFE0D2
:104E40000F80AA87BE850325C4FEEFF01FADAA8799
:104E50003E85F240624405618280797106D622D493
:104E60000018232EA4FC232CB4FC232AC4FC2322E8
:104E700004FE8327C4FD2324F4FE0325C4FDEFF0C4
:104E8000BF912A87832744FD63C8E700FD5723228B
:104E9000F4FE832744FE99A8232604FE99A08327C5
:104EA000C4FE95C78546032644FD8325C4FE03251D
:104EB00084FEEFF09FB3AA8713F717008327C4FE81
:104EC0003317F700832744FED98F2322F4FE83276C
:104ED000C4FE85072326F4FE832784FD8583232CC7
:104EE000F4FC832784FDC5FF832744FE3E85B25032
:104EF000225445618280797106D622D40018232E6F
:104F0000A4FC232CB4FC232AC4FC232204FE832704
:104F1000C4FD2324F4FE0325C4FDEFF0FF872A8798
:104F2000832744FD63C8E700FD572322F4FE83274F
:104F300044FE99A8232604FE99A08327C4FE95C7A2
:104F40008146032644FD8325C4FE032584FEEFF03D
:104F5000DFA9AA8713F717008327C4FE3317F700CA
:104F6000832744FED98F2322F4FE8327C4FE8507BE
:104F70002326F4FE832784FD8583232CF4FC8327DA
:104F800084FDC5FF832744FE3E85B250225445610F
:104F90008280797106D622D40018232EA4FC232CFB
:104FA000B4FC232AC4FC232404FE232604FE91A07F
:104FB0008327C4FE8DC7032644FD8325C4FE032535
:104FC000C4FDEFF03F91AA8713F717008327C4FEB3
:104FD0003317F700832784FED98F2324F4FE832719
:104FE000C4FE85072326F4FE832784FD8583232CB6
:104FF000F4FC832784FDCDFF832784FE3E85B250D9
:10500000225445618280011106CE22CC0010232655
:10501000A4FE2324B4FE832584FE0325C4FEEFF002
:10502000DF8F81473E85F240624405618280011135
:1050300022CE00102326A4FEB70700809387C70660
:105040003E85724405618280011122CE0010232624
:10505000A4FE938701823E8572440561828001111E
:1050600022CE00102326A4FE81473E8572440561AE
:105070008280411122C60008B7170120938747FCA0
:105080003E85324441018280397106DE22DC800097
:105090002326A4FC0325C4FC593F2326A4FE032594
:1050A000C4FC753F2324A4FE0325C4FC713F2322C6
:1050B000A4FEC1372320A4FE832704FE9C4383253E
:1050C00084FE032544FE8297232EA4FC0327C4FDFF
:1050D000B7070040F98F99E3FD5725A08327C4FD4A
:1050E00063C40700FD5731A80325C4FEEF10102C40
:1050F000AA873E878327C4FD93F7F7038507B35735
:10510000F7023E85F250625421618280011106CE81
:1051100022CC00102326A4FE2324B4FE0325C4FEC3
:10512000A537AA873E85F24062440561828001115D
:1051300022CE00102326A4FEB7070080938707061F
:105140003E85724405618280011122CE0010232623
:10515000A4FE938701823E8572440561828001111D
:1051600022CE00102326A4FE91473E85724405619D
:105170008280411122C60008B7170120938747FC9F
:105180003E85324441018280397106DE22DC800096
:105190002326A4FC0325C4FC593F2326A4FE032593
:1051A000C4FC753F2324A4FE0325C4FC713F2322C5
:1051B000A4FEC1372320A4FE832704FE9C4383253D
:1051C00084FE032544FE8297232EA4FC0327C4FDFE
:1051D000B7070040F98F99E3FD5721A88327C4FD45
:1051E00063C40700FD5731A00325C4FEEF10101C57
:1051F000AA873E85F250625421618280011106CE59
:1052000022CC00102326A4FE2324B4FE0325C4FED2
:10521000A53FAA873E85F240624405618280011164
:1052200022CE00102326A4FEB7170080938787A7FD
:105230003E85724405618280011122CE0010232632
:10524000A4FEB7170080938747A83E857244056186
:105250008280011122CE00102326A4FE93870182B2
:105260003E85724405618280011122CE0010232602
:10527000A4FEB1473E85724405618280411122C679
:105280000008938701823E853244410182804111AA
:1052900022C60008A1473E85324441018280411167
:1052A00022C60008B727F400938707403E853244A2
:1052B00041018280411122C60008B78700103E8557
:1052C000324441018280411122C60008B7170120F3
:1052D000938747FC3E85324441018280011122CEF2
:1052E00000102326A4FE2324B4FE832784FE9C47BB
:1052F0000327C4FE6369F700832784FEDC47032786
:10530000C4FE63F4E700FD5729A8832784FE984371
:105310008327C4FE3307F702832784FEDC43B35799
:10532000F7023E85724405618280397106DE22DC17
:1053300080002326A4FC8327C4FC3E85F53D23265C
:10534000A4FEB13F2324A4FE99372322A4FE9D3757
:105350002320A4FE032704FE832744FEBA97232EAE
:10536000F4FC8327C4FCDC433E85EF10C07A83271E
:10537000C4FD9843C167F98F91CB8327C4FD98433F
:10538000C177FD177D8F8327C4FD98C38327C4FE93
:1053900091CB8327C4FD9843B70702005D8F832715
:1053A000C4FD98C38327C4FC9C43D8438327C4FC13
:1053B000832584FE3E8502978327C4FC9C473E8557
:1053C000EF1060750100F2506254216182801D71FE
:1053D00086CEA2CC80102326A4FA0325C4FAA93DC8
:1053E0002326A4FE0325C4FA1D3D2324A4FE032581
:1053F000C4FA713D2322A4FE0325C4FA41352320BB
:10540000A4FE0325C4FA8D35232EA4FC0325C4FA7B
:105410008935232CA4FC453D232AA4FC832744FD85
:105420009C43832544FE032504FE82972328A4FC85
:10543000832744FD9C438325C4FD032584FD829777
:105440002326A4FC032704FDC1677D8FC167637811
:10545000F700032584FEEF106075AA87E1A80327F3
:1054600004FDB70702007D8FB70702006365F700F0
:105470008327C4FE19A0832784FE3E85EF100073A6
:105480002324A4FC032704FDB70704007D8FB7077E
:1054900004006365F700832784FC69A8832704FD63
:1054A0009D8B85072322F4FC832704FD93F7073F98
:1054B0009183850786072320F4FC032704FD856775
:1054C000938707C07D8F9307F03F63E4E700FD57A4
:1054D00095A0032704FD8567938707C0F98FA983EB
:1054E0000547B317F700232EF4FA032784FC83271C
:1054F00044FC3347F702832704FC3307F702832772
:10550000C4FBB347F702232CF4FA8327C4FC13F738
:1055100007109307F00F63F5E700832784FB19A8B2
:10552000032784FB8327C4FC93F7F70385078607CB
:10553000B357F7023E85F640664425618280397193
:1055400006DE22DC80002326A4FC2324B4FCFD57C5
:105550002326F4FEB707008093C7F7FF2324F4FE49
:10556000930730042322F4FEB5A08326C4FC8327CE
:1055700044FE13975700B707012093870765BA9732
:10558000BE853685EFF09FD52320A4FE032704FEB9
:10559000FD57630CF702032704FE832784FC1D8F4D
:1055A0009357F7413D8FB307F740232EF4FC0327B1
:1055B000C4FD832784FE635AF700832744FE232615
:1055C000F4FE8327C4FD2324F4FE832744FEFD1745
:1055D0002322F4FE832744FEE3D907F88327C4FE81
:1055E0003E85F250625421618280797106D622D4C0
:1055F0000018232EA4FC232CB4FC232AC4FC8327EC
:10560000C4FD9C4313F787FF8327C4FD98C38327FA
:10561000C4FD9843832744FD9C4B9D8B5D8F83275E
:10562000C4FD98C38327C4FD9C4313F7F7C08327A9
:10563000C4FD98C38327C4FD9843832744FDDC4BF6
:10564000920793F7073F5D8F8327C4FD98C3832795
:10565000C4FD9843FD779387F73F7D8F8327C4FD73
:1056600098C38327C4FD9843832744FD9C4F93969A
:10567000A7008567938707C0F58F5D8F8327C4FDDB
:1056800098C3832744FDDC4F63DB0702832784FD37
:105690009C4313E70710832784FD98C3832784FD69
:1056A0009C4313F707FC832784FD98C3832784FD5D
:1056B0009C4313E71700832784FD98C32DA88327F5
:1056C00084FD9C4313F7F7EF832784FD98C383275A
:1056D00084FD9C4313F707FC832784FD98C383272D
:1056E00084FD9843832744FDDC4F93F7F7035D8FD8
:1056F000832784FD98C38327C4FD9843B707FCFF25
:10570000FD177D8F8327C4FD98C3930704FE3E8653
:105710008545B71700801385C7AAEFD02FCB032686
:1057200004FE832644FE114581453307A6003A88CE
:105730003338C800B387B600B306F800B687232411
:10574000E4FE2326F4FE19A8930704FE3E86854551
:10575000B71700801385C7AAEFD04FC7032704FEF1
:10576000832744FE8326C4FE3E8663ECC600832660
:10577000C4FE3E86E39AC6FC832684FEBA87E3F520
:10578000F6FC01008327C4FD9C43E3DD07FE010016
:105790000100B2502254456182805D7186C6A2C468
:1057A0008008232EA4FA232CB4FA0325C4FBEFF0BF
:1057B000BFA82326A4FE0325C4FBEFF05FA6232485
:1057C000A4FE0325C4FBEFF09FAC2322A4FE032517
:1057D000C4FBEFF07FA92320A4FEEFF0BFAD232E82
:1057E000A4FC0327C4FD832744FEBA97232CF4FCB2
:1057F0000327C4FD832704FEBA97232AF4FC8327DA
:1058000084FD9843C167F98F91CB832784FD98432A
:10581000C177FD177D8F832784FD98C3832784FD7F
:105820009843B7070200F98F81C78327C4FE19A0E8
:10583000832784FE3E85EF1060372328A4FC0327CE
:1058400004FDBA878607BA9713D7F7410D8BBA972D
:1058500089873E87832784FB63CBE702032704FD08
:10586000BA878A07BA9713D7F7410D8BBA978987FA
:105870003E87832784FB634CF700832784FD98438E
:10588000B70704005D8F832784FD98C381A8832513
:1058900084FB032504FDEFF09FCA2326A4FC032705
:1058A000C4FCFD576303F7028327C4FC139757001A
:1058B000B707012093870765BA973E86832544FD85
:1058C000032584FDEFF07FD211A8832784FD984340
:1058D000B70704005D8F832784FD98C3832784FD69
:1058E0009843C1675D8F832784FD98C30325C4FB5C
:1058F000EFF0FFADAA873E85B64026446161828005
:10590000411122C60008B78700103E85324441018C
:105910008280797106D622D40018232EA4FC232C71
:10592000B4FCF93FAA872326F4FE032784FD8327CE
:10593000C4FEBA979C433E85B25022544561828092
:10594000797106D622D40018232EA4FC232CB4FC93
:10595000232AC4FC7537AA872326F4FE032784FD77
:105960008327C4FEBA973E87832744FD1CC33E8528
:10597000B250225445618280011122CE00102326AC
:10598000A4FE0327C4FE9387C1816315F700B727E0
:10599000011011A081473E8572440561828001118A
:1059A00022CE00102326A4FE0327C4FE9387C181C4
:1059B0006317F700B70700809387074611A0814758
:1059C0003E85724405618280011122CE001023269B
:1059D000A4FE2324B4FE0327C4FE9387C18163176A
:1059E000F700832784FE99E3A14715AE0327C4FE81
:1059F0009387C1816319F700032784FE85476314E9
:105A0000F700A54729AE0327C4FE9387C181631918
:105A1000F700032784FE89476314F700A94701A60E
:105A20000327C4FE9387C1816319F700032784FE0F
:105A30008D476314F700AD47DDA40327C4FE9387A9
:105A4000C1816319F700032784FE91476314F700AF
:105A5000B147F1A40327C4FE9387C1816319F700FE
:105A6000032784FE95476314F700B5474DAC032721
:105A7000C4FE9387C1816319F700032784FE994709
:105A80006314F700B94761AC0327C4FE9387C18153
:105A90006319F700032784FE9D476314F700BD4791
:105AA000BDAC0327C4FE9387C1816319F7000327A8
:105AB00084FEA1476314F700C14795A40327C4FEE1
:105AC0009387C1816319F700032784FEA5476314F8
:105AD000F700C547A9A40327C4FE9387C1816319B2
:105AE000F700032784FEA9476314F700C94705ACF4
:105AF0000327C4FE9387C1816319F700032784FE3F
:105B0000AD476314F700CD4719AC0327C4FE938754
