:020000042001D9
:100000009711FF5F938181C897020000938282015C
:100010007390523093021000638402007350107C7E
:100020009702000093824211739052301301000036
:1000300063140100138181F3732540F1814213039E
:100040000040137101FF6385A2001A918502D5BF9C
:10005000970000009380C00763830000829073259F
:1000600040F181450146ED209300000063830000CC
:100070008290970200009382C20073905230032353
:100080000000F5BF000000008280A14673B3063077
:10009000914263C555001376350011CA230005004F
:1000A0000505FD15E347B0FE731003308280232061
:1000B00005001105F115E34EB0FC7310033082808A
:1000C000232003001103E34D73FE82800684970210
:1000D000FFDF938222F3638C02049702FFDF938297
:1000E00062F2F32740F1A14673B006300A8397030A
:1000F000FFDF938323318A9363037300D1376398BF
:1001000057021703FF5F1303E3EF9703FF5F938328
:10011000633A630373006D371703FFE7130383EE3E
:100120009703FFE7938303EE63037300513FA280BD
:1001300082800000F322203473231034F323303400
:10014000D5BF411122C6000801003244410182801E
:1001500006849711FF5F938161B3930200006311DE
:10016000550E97620000938262AE1703FF5F130380
:1001700063E99703FF5F9383E333638C6200635A01
:10018000730003A5020091022320A3001103E34A98
:1001900073FE97120000938262D81703FFE71303E0
:1001A00063E69703FFE79383E3E5638C6200635A9A
:1001B000730003A5020091022320A3001103E34A68
:1001C00073FE0F10000097120000938222D51703D0
:1001D000FF5F130323E39703FF5F9383A3E2638C23
:1001E0006200635A730003A5020091022320A3005A
:1001F0001103E34A73FE0F1000001703FF5F1303A0
:10020000632B938341B363577300232003001103CF
:10021000E34D73FE1702FF5F1302C22911C202965B
:1002200017250000130505A2EF10F01DEF10B024F4
:1002300017350000130585D5EF10F01CEF20905303
:100240000937FD5673B0463073B04634F32710308B
:10025000372704007D8F09C773B0363073B026305E
:10026000370704007D8F19C373B006184167130761
:100270008702F98F89CBF32700300967D98F7390F4
:10028000073073503000F327103037072000F98F04
:1002900099C7F327003093E707207390073005458F
:1002A000970500009385851A170600001306461A65
:1002B0003120EF105016A28082808280411106C248
:1002C000F32240F1130300006385620073005010B5
:0C02D000F5BFEF00907C9240410182805D
:0802E000E802012014030120D3
:1002E800011106CE22CC0010EF50C0012326A4FE37
:1002F8008327C4FE99C7B707008013858747EF5047
:1003080020090100F240624405618280011106CE95
:1003180022CC0010EF40107F2326A4FE8325C4FEC4
:10032800B707008013858747EF5060700100F240DF
:06033800624405618280B1
:10034000000000000000F03F00010202030303036D
:100350000404040404040404050505050505050555
:100360000505050505050505060606060606060635
:10037000060606060606060606060606060606061D
:100380000606060606060606070707070707070705
:1003900007070707070707070707070707070707ED
:1003A00007070707070707070707070707070707DD
:1003B00007070707070707070707070707070707CD
:1003C00007070707070707070808080808080808B5
:1003D000080808080808080808080808080808089D
:1003E000080808080808080808080808080808088D
:1003F000080808080808080808080808080808087D
:10040000080808080808080808080808080808086C
:10041000080808080808080808080808080808085C
:10042000080808080808080808080808080808084C
:10043000080808080808080808080808080808083C
:1004400008080808080808085004012000000000F7
:100450006C6962676C6F73730000000040240000D9
:10046000F22400004A240000F2240000E4240000EA
:10047000F22400004A240000402400004024000030
:10048000E42400004A240000262400002624000062
:10049000262400004E240000EC280000EC28000078
:1004A00004290000E6280000E62800009229000048
:1004B00004290000E628000092290000E628000038
:1004C00004290000E4280000E4280000E4280000DB
:1004D00092290000B83101205E330120423301200F
:1004E0000000000000000000563601208A3601207E
:1004F000403201201A330120B63301206834012034
:1005000000000000000000000000000000000000EB
:1005100000000000000000000000000000000000DB
:100520001A350120EC30012000000000000000001E
:100530000000000000000000364801209C48012017
:100540009C480120484801209C4801209C480120EB
:100550009C4801205A4801209C4801209C480120C9
:100560009C4801206C4801209C4801209C480120A7
:100570009C4801209C4801207E4801207E480120A3
:100580007E4801207E4801207E4801207E480120CF
:100590007E4801207E4801207E4801207E480120BF
:1005A0007E4801207E4801207E4801207E480120AF
:1005B0007E4801207E480120FE480120304C012069
:1005C000144C0120000000000000000000000000AA
:1005D00000000000E049012000000000C04B0120A5
:1005E000EA4B0120000000000000000000000000B5
:1005F00000000000000000000000000000000000FB
:1006000000000000844C01200000000000000000F9
:10061000000000000000000000000000A04C0120CD
:10062000104D0120564D0120BC4D0120324E0120BD
:10063000484E01205C4E0120724E0120864E012062
:10064000E84E01204A4F0120AA4F0120CA4F012045
:10065000105001203E5001205C5001207C500120B0
:100660000100000020000000001BB70000366E01F2
:10067000010000001F000000030000003F00000018
:10068000010000002000000000366E01006CDC025A
:10069000030000001F000000020000003F000000F7
:1006A0000100000010000000808D5B00001BB700FF
:1006B000000000001F000000030000003F000000D9
:1006C0000100000010000000001BB70000366E01A2
:1006D000010000001F000000020000003F000000B9
:1006E000010000001000000000366E01006CDC020A
:1006F000030000001F000000020000001F000000B7
:100700000100000008000000808D5B00001BB700A6
:10071000000000001F000000030000001F00000098
:100720000100000008000000001BB70000366E0149
:10073000010000001F000000020000001F00000078
:10074000010000000800000000366E01006CDC02B1
:10075000030000001F000000020000000F00000066
:100760000100000004000000808D5B00001BB7004A
:10077000000000001F000000030000000F00000048
:100780000100000004000000001BB70000366E01ED
:10079000010000001F000000020000000F00000028
:1007A000010000000400000000366E01006CDC0255
:1007B000030000001F00000002000000070000000E
:1007C0000100000002000000808D5B00001BB700EC
:1007D000000000001F000000020000000F000000E9
:1007E0000100000002000000001BB70000366E018F
:1007F000010000001F000000010000000F000000C9
:10080000010000000200000000366E01006CDC02F6
:10081000030000001F0000000100000007000000AE
:100820000200000001000000808D5B00001BB7008B
:10083000000000001F000000010000000700000091
:100840000200000001000000001BB70000366E012E
:10085000010000001F000000010000000300000074
:10086000020000000100000000366E01006CDC0296
:10087000030000001F00000003000000FFFFFFFF57
:100880000400000001000000808D5B00001BB70029
:10089000000000001F000000030000000000000036
:1008A0000400000001000000001BB70000366E01CC
:1008B000010000001F00000003000000FFFFFFFF19
:1008C000040000000100000000366E01006CDC0234
:1008D000030000001F00000002000000FFFFFFFFF8
:1008E0000600000001000000808D5B00AAC2A2008B
:1008F00000000000230000000100000002000000D2
:100900000600000001000000AAC2A200001BB70000
:10091000000000001700000003000000FFFFFFFFC1
:100920000600000001000000001BB7000024F400D6
:10093000010000002F00000003000000FFFFFFFF88
:1009400006000000010000000024F40080A812014D
:10095000010000001700000002000000FFFFFFFF81
:10096000060000000100000080A812015585450125
:10097000020000002300000002000000FFFFFFFF54
:100980000800000001000000808D5B00001BB70024
:10099000000000001F00000003000000FFFFFFFF39
:1009A0000800000001000000001BB70000366E01C7
:1009B000010000001F00000002000000FFFFFFFF19
:1009C000080000000100000000366E01006CDC022F
:1009D000030000001F00000001000000FFFFFFFFF8
:1009E0000A00000001000000808D5B00007C920086
:1009F000000000002700000003000000FFFFFFFFD1
:100A00000A00000001000000007C9200001BB700FB
:100A1000000000001300000002000000FFFFFFFFC5
:100A20000A00000001000000001BB70000F82401CC
:100A3000010000002700000002000000FFFFFFFF90
:100A40000A0000000100000000F8240100366E01D9
:100A5000010000001300000001000000FFFFFFFF85
:100A60000A0000000100000000366E0100F049029B
:100A7000030000002700000001000000FFFFFFFF4F
:100A80000C00000001000000808D5B0000127A0065
:100A9000000000002F00000003000000FFFFFFFF28
:100AA0000C0000000100000000127A00001BB700DB
:100AB000000000001700000002000000FFFFFFFF21
:100AC0000C00000001000000001BB7000024F4002F
:100AD000010000002F00000002000000FFFFFFFFE8
:100AE0000C000000010000000024F40000366E013C
:100AF000010000001700000001000000FFFFFFFFE1
:100B00000C0000000100000000366E0180C3C90126
:100B1000030000002F00000001000000FFFFFFFFA6
:100B20000C0000000100000080C3C9010048E8017A
:100B3000030000002F00000001000000FFFFFFFF86
:100B40000E00000001000000808D5B00B6A168006F
:100B5000000000003700000003000000FFFFFFFF5F
:100B60000E00000001000000B7A16800001BB700E4
:100B7000000000001B00000002000000FFFFFFFF5C
:100B80000E00000001000000001BB7006D43D10003
:100B9000010000003700000002000000FFFFFFFF1F
:100BA0000E000000010000006E43D10000366E010F
:100BB000010000001B00000001000000FFFFFFFF1C
:100BC0000E0000000100000000366E01DB86A2016D
:100BD000030000003700000001000000FFFFFFFFDE
:100BE0001000000001000000808D5B00001BB700BA
:100BF000000000001F00000002000000FFFFFFFFD8
:100C00001000000001000000001BB70000366E015C
:100C1000010000001F00000001000000FFFFFFFFB7
:100C20001200000001000000808D5B00AAC2A2003B
:100C3000000000002300000002000000FFFFFFFF93
:100C40001200000001000000ABC2A200001BB700B0
:100C5000000000001100000001000000FFFFFFFF86
:100C60001200000001000000001BB700558545017F
:100C7000010000002300000001000000FFFFFFFF53
:100C80001400000001000000808D5B00007C9200D9
:100C9000000000002700000002000000FFFFFFFF2F
:100CA0001400000001000000007C9200001BB7004F
:100CB000000000001300000001000000FFFFFFFF24
:100CC0001400000001000000001BB70000F8240120
:100CD000010000002700000001000000FFFFFFFFEF
:100CE0001600000001000000808D5B00E82A8500EE
:100CF000000000002B00000002000000FFFFFFFFCB
:100D00001600000001000000E92A8500001BB70062
:100D1000000000001500000001000000FFFFFFFFC1
:100D20001600000001000000001BB700D1550A01A9
:100D3000010000002B00000001000000FFFFFFFF8A
:100D40001800000001000000808D5B0000127A0096
:100D5000000000002F00000002000000FFFFFFFF66
:100D6000180000000100000000127A00001BB7000C
:100D7000000000001700000001000000FFFFFFFF5F
:100D80001800000001000000001BB7000024F40060
:100D9000010000002F00000001000000FFFFFFFF26
:100DA0001A00000001000000808D5B0027AE70007B
:100DB000000000003300000002000000FFFFFFFF02
:100DC0001A0000000100000028AE7000001BB700F0
:100DD000000000001900000001000000FFFFFFFFFD
:100DE0001A00000001000000001BB7006658E10077
:100DF000010000003300000001000000FFFFFFFFC2
:100E00001C00000001000000808D5B00B6A168009E
:100E1000000000003700000002000000FFFFFFFF9D
:100E20001C00000001000000B7A16800001BB70013
:100E3000000000001B00000001000000FFFFFFFF9A
:100E40001C00000001000000001BB7006D43D10032
:100E5000010000003700000001000000FFFFFFFF5D
:100E60001E00000001000000808D5B0000A86100F2
:100E7000000000003B00000002000000FFFFFFFF39
:100E80001E0000000100000000A86100001BB70068
:100E9000000000001D00000001000000FFFFFFFF38
:100EA0001E00000001000000001BB7000050C3003E
:100EB000010000003B00000001000000FFFFFFFFF9
:100EC0002000000001000000808D5B00001BB700C7
:100ED000000000001F00000001000000FFFFFFFFF6
:100EE0009853012038540120F657012000000000DB
:100EF00000000080F65001207A510120F6510120B7
:100F00006A5201206859012096590120F05B0120A6
:040F10000E5C012052
:100F8000011106CE22CC0010B717000C9C4323267B
:100F9000F4FEB707200C91079C432324F4FE03259D
:100FA00084FEEF00901F2A87AE873A85BE85EF004A
:100FB00070272A87AE87B706012003A6063483A6CA
:100FC00046343A85BE85B12E2A87AE873A85BE85DE
:100FD000EF00B016AA872322F4FEB707008093869D
:100FE000C754032744FEBA878607BA978A07B6977D
:100FF000DC4391CFB70700809386C754032744FE94
:10100000BA878607BA978A07B6979C4382970100EA
:10101000F240624405618280011122CE0010232635
:1010200004FE8327C4FE73900730F3274030232447
:10103000F4FE832784FE93E707082324F4FE832726
:1010400084FE739047308327C4FE93E787002326EE
:10105000F4FE8327C4FE73900730010072440561DB
:101060008280011122CE0010F32700302326F4FEE7
:101070008327C4FEA18B95E7232404FE832784FEE7
:1010800073904730B71701209387070C7390573040
:10109000A1472326F4FE8327C4FE739007308147BF
:1010A00011A0FD573E85724405618280000000005A
:1010B0000000000000000000000000000000000030
:1010C0001D7186CE96CC9ACA9EC8A2C6AAC4AEC2CC
:1010D000B2C036DE3ADC3EDA42D846D672D476D298
:1010E0007AD07ECE8010F32720342326F4FA83278B
:1010F000C4FA63D107028327C4FA9D8B99C30924DC
:1011000011A88327C4FA8D8B91E78327C4FAAD8B8E
:1011100091C3BD350100F640E6425643C64336440E
:10112000264596450646F2566257D2574258B2585F
:10113000225E925E025FF24F256173002030000054
:10114000000000000000000000000000000000009F
:10115000000000000000000000000000000000008F
:10116000000000000000000000000000000000007F
:10117000000000000000411122C60008B7870010DF
:10118000A107370702001307176798C30100B78745
:101190000010A1079C43B7870010A1079443B787AD
:1011A0000010A1074167558F98C3B707008037D754
:1011B000121323A4E7480100324441018280411107
:1011C00022C60008B7070010938707049443B707A7
:1011D0000010938707040567558F98C301003244B8
:1011E00041018280797122D60018232CA4FC232E81
:1011F000B4FCF32740302326F4FEF32740302324A9
:10120000F4FE8327C4FE93F7F7F72326F4FE832723
:1012100084FE93F7F7F72324F4FE8327C4FE73902C
:101220004730B707008083A707499843DC43232052
:10123000E4FE2322F4FE032604FE832644FE032557
:1012400084FD8325C4FD3307A6003A883338C800DF
:10125000B387B600B306F800B6872320E4FE232246
:10126000F4FEB707008083A6C748032704FE832740
:1012700044FE98C2DCC28327C4FE93E707082326F6
:10128000F4FE832784FE739047308327C4FE739057
:1012900047300100325445618280411106C622C4A4
:1012A0000008D13D7D3B8D3B193FB7270110A107B9
:1012B0009843CD47BE868547B397D700BE86B727EC
:1012C0000110A107558F98C321658145213FB707BC
:1012D000008083A7074BE5DFB7270110B1079843CC
:1012E000CD47BE868547B397D700BE86B727011086
:1012F000B107358F98C3B707008023A8074AC1BF3D
:10130000411106C622C4000841658145E13DB70789
:101310000080054723A8E74A0100B240224441016A
:101320008280370810007D180111B377B80013D7F9
:1013300045013378D80013D3460122CC8E071374AD
:10134000F77F1357D50126CAD98F93D4F5011357C8
:10135000D601931535000E0806CE4AC84EC6137343
:10136000F37F1305F07FFD82336707010E066315D7
:10137000A3003365C70019E193C616003308644023
:10138000639896226353000F63180302B366C70085
:10139000638106581305F8FF09E92E963335B60028
:1013A000BA97AA97B2850544B9A89306F07F631D42
:1013B000D8001304F07F4DA29306F07F630ED4187B
:1013C000B7068000558F42859306800363CBA6083D
:1013D000FD4663C2A606130800023308A840B316F0
:1013E0000701B358A60033160601B3E616013336DB
:1013F000C000558E3357A7002E963335B6003E9762
:10140000B307A700B285370780007D8F63060714F6
:1014100005041307F07F630BE448370780FF7D174F
:10142000F98F13F5150013D71500598D9395F70112
:10143000C98D858315A2930605FE93080002B35655
:10144000D700014863081501130800043305A840BC
:101450003318A7003366C8003336C000558E0147E5
:1014600061BF598E3336C000DDBF630B080A3305F8
:1014700083400DE4B3E6B700638106429306F5FFAF
:1014800099E6B295BA9733B6C500B29729BF13084B
:10149000F07F631D0501BA87B28521BF9306F07FF7
:1014A000E30BD3FEB7068000D58FAA861305800311
:1014B0006343D5067D45634BD5021308000233080C
:1014C000D84033950701B3D8D500B39505013365EE
:1014D0001501B335B0004D8DB3D7D700B305C500A6
:1014E000BA9733B6C500B2971A8431BF138506FE8A
:1014F0009308000233D8A70001456387160113053E
:101500000004158D3395A7004D8D3335A00033654C
:10151000A8008147E1B733E5B7003335A000D5BF58
:101520009306140013F5E67F3DE1B3E6B70029E426
:1015300063890636B366C70085C22E96BA973335DF
:10154000B600AA97370780007D8FB28511C737078D
:1015500080FF7D17F98F054413F77500630A073480
:1015600013F7F50091466305D734138745003335EB
:10157000B700AA97BA852DAE99DE598EE30B06E225
:101580008144B707400081451304F07F15A6130579
:10159000F07F638BA6302E963335B600BA97AA97A4
:1015A0001395F7010582B365C500858336846DB751
:1015B0006356000D63110308B366C700638B0634DE
:1015C0001305F8FF11E93386C54033B5C500998F7F
:1015D000898FB2850544B1A09306F07FE30BD8DC78
:1015E0009306800363C8A608FD4663CFA6041308CC
:1015F00000023308A840B3160701B358A6003316FB
:101600000601B3E616013336C000558E3357A700E6
:101610003386C54033B5C5003387E740B307A740DD
:10162000B2853709800033F727011DD77D1933F9BB
:101630002701AE895DAA9306F07FE30FD4F0B706C9
:101640008000558F428569BF930605FE930800020E
:10165000B356D70001486308150113080004330589
:10166000A8403318A7003366C8003336C000558E33
:10167000014779BF598E3336C000DDBF6305080CC2
:10168000330583401DE833E8B700630608281308D4
:10169000F5FF631B0800B305B640B307F7403336C8
:1016A000B600918FB6843DB79308F07F63101503A1
:1016B000BA87B2851304F07F7DA01308F07FE30999
:1016C00003FF37088000B3E707012A88130580036A
:1016D000634605077D45634D050393080002B38803
:1016E00008413395170133DE0501B39515013365C4
:1016F000C501B335B0004D8DB3D70701B305A64082
:10170000B307F7403336B600918F1A84B68411BF01
:10171000130508FE130E0002B3D8A70001456308A5
:10172000C80113050004330505413395A7004D8D0D
:101730003335A00033E5A8008147C9B733E5B700CA
:101740003335A000D5BF130514001375E57F25E9D7
:1017500033E8B7003365C70021E863180800630069
:10176000051CBA87B285B684C5BBE30705DE33889E
:10177000C540B3B805013385E74033051541B708C7
:101780008000B3781501638A0800B305B640B3073B
:10179000F7403336B600918FF9B7B365A80063847C
:1017A0000518AA87C2854DBB63180800630F05168C
:1017B000BA87B285B684F5BEE30D05BED1B3B38951
:1017C000C54033B535013389E7403309A9403705B2
:1017D00080003375A9003DC5B309B640B307F74093
:1017E000333636013389C740B684630309064A8518
:1017F000E52A130785FFFD4763C1E706930700024B
:10180000998F3319E900B3D7F900B3E72701B395EE
:10181000E900634E8706018F930617007D466344F7
:10182000D60413070002158F3396E70033D5D50091
:10183000B395E500498EB335B000D18DB3D7D7004D
:10184000014419BBB3E52901CDF181470144D1A879
:101850004E85592A1305050269BF930785FDB39785
:10186000F90081457DB705171306000233D7E7005D
:1018700001456387C60013050004158D3395A70045
:101880004D8D3335A000B365A700814755BF198C36
:10189000370780FF7D17F98FC1B1BA87B2852A84D7
:1018A00065B9BA87B2854DB91304F07F8147814588
:1018B000370780007D8F11CB05041307F07F630B82
:1018C000E406370780FF7D17F98F1397D70113D5EB
:1018D0003500598D1307F07F8D836319E4005D8D0A
:1018E000814709C5B7070800014581441317440122
:1018F000B706F07FB207F2406244758FB183FE04F1
:10190000D98F33E797004249D244B249BA8505617D
:101910008280428491B1BA87B2852A84A9B5814771
:101920008145814471B78147EDBF81458144B70747
:10193000400099B98147814549BF13D74501370810
:1019400010009307F8FF1377F77F1306E03FED8F42
:10195000AA86FD816351E6041306F0410D8E1385BE
:10196000F5FF635BC702014585E913053043198D17
:101970007D46B3E70701634AA6001307D7BEB397B6
:10198000E70033D5A6005D8D828013053041198DA7
:1019900033D5A700828001458280411122C406C64A
:1019A0002A8421C191201307E041A947098F63C40C
:1019B000A702AD47898F5505B357F4003314A4002F
:1019C000B2402285B20722445207B183B366F700C2
:1019D000B68541018280930755FFB317F400014497
:1019E000C5B781470147E9BFC1676376F502930731
:1019F000F00FB3B7A7008E07130700021D8F3355F2
:101A0000F50097F7FFFF938767943E950345050020
:101A10003305A740828037070001C147E36EE5FC2C
:101A2000E147D9BF011122CC26CA4AC84EC62E8929
:101A3000AA8906CEB920AA842E844E86CA864E85EF
:101A4000CA85EF1080400DE5014681464E85CA8566
:101A5000EF003071635E0500652A930710020146AE
:101A600081461CC1B6853285EF00B01BAA842E8446
:101A7000F240A28562444249B2492685D2440561BA
:101A8000828041113708F07F22C426C206C6B37691
:101A9000B800AA842E84639406032A86AE86EF00DB
:101AA000B0762A86AE862685A285BD26AA842E8497
:101AB000B240A28522442685924441018280AE87AD
:101AC0002A876341B002939615008582C98EEDD2B4
:101AD00091C92A86AE86EFF0DF842A86AE86EF00B3
:101AE0005014E9B793D647416387061037061000B4
:101AF0009305F6FF938616C0ED8FD18F13F616006F
:101B000011C61356F7018607B297060713DE164073
:101B100086079356F701B697060759450146814552
:101B200037082000B388050163C71701B385080192
:101B3000B387174142969356F70186077D15B697EE
:101B400006071358180079FD814613030002370871
:101B50000080B308A80063C6F5006395B70263630D
:101B6000170333850801AE8E63D608006344050071
:101B7000938E15008D8F63731701FD17330717417F
:101B8000C296F6859358F70186077D13C697060718
:101B900013581800E31F03FAD98F91C7FD576391BB
:101BA000F60605068146935716403707E03F058A3B
:101BB000BA97858201C637070080D98E13174E0168
:101BC000B6843304F700EDB59357B700AD1556074B
:101BD000E5DF3705100033F6A70005C21306000243
:101BE000158E3356C7001385F6FF3317D700D18FF4
:101BF000B386A540E5BD8145E1BF86078506E1BF07
:101C00008506F99A4DB7AA85814601460145D9A0B6
:101C100003A5C1808280411122C406C69707000037
:101C2000938747132A8499C381451D2217F5FFFF27
:101C30000325452C1C5591C382972285EF30507F98
:101C4000411122C426C217E4FFFF1304246A97E45B
:101C5000FFFF9384A469058C06C6098411E4B24091
:101C600022449244410182807D1493172400A69758
:101C70009C438297E5B7411122C426C217E4FFFFB7
:101C80001304446697E4FFFF9384C465818C4AC0C3
:101C900006C6898401496315990217E4FFFF1304FE
:101CA000646497E4FFFF9384E463818C8984014931
:101CB000631D9900B240224492440249410182804E
:101CC0001C40050911048297F9B71C40050911044D
:101CD0008297F9BFAA8817E5FE5F1305E57D1C41D1
:101CE00091EF17E7FE5F1307E77D18C113050000AA
:101CF000BA8709C51C412324F708BA87D8437D4811
:101D00007D556346E804638D080203A887086300D5
:101D1000080413152700429510C103230810054637
:101D20003316E6003363C300232068102320D50850
:101D300089466397D80083264810558E2322C81001
:101D4000930617000A07D4C3BA978CC7014582804F
:101D5000797156CA5AC85EC662C406D622D426D243
:101D60004AD04ECE52CC66C22A8BAE8A97EBFE5F2B
:101D7000938B8B74054C83A40B0081CCC04083A94A
:101D800084081309F4FF0A04338A89002694635FE8
:101D90000900B250225492540259F249624AD24A7E
:101DA000424BB24B224C924C45618280638C0A00BC
:101DB000639609007D19711A7114D1BF8327CA0770
:101DC000E39A57FFD8405C407D176318270323A28E
:101DD0002401EDD383AC44006388090083A6091075
:101DE00033172C01F98E89EE8297D84083A70B0018
:101DF000E31397F9E380F4FCBDBF23220400D1BFB5
:101E000083A649108325CAFF758F01E75A858297FB
:101E1000E9BF2E858297D1BF370810007D180111C8
:101E2000B377B80013D745013378D80013D34601F0
:101E300022CC8E071374F77F1357D5010E0826CADC
:101E4000D98F93D4F5011357D6011373F37F06CEC0
:101E50004AC84EC6FD8233670701931535000E064A
:101E6000330864406398D4226353000F631803025D
:101E7000B366C700638306581305F8FF09E92E9679
:101E80003335B600BA97AA97B2850544B9A8930628
:101E9000F07F631DD8001304F07F4DA29306F07FFE
:101EA000630ED418B7068000558F428593068003D1
:101EB00063CBA608FD4663C2A606130800023308DA
:101EC000A840B3160701B358A60033160601B3E6BF
:101ED00016013336C000558E3357A7002E96333582
:101EE000B6003E97B307A700B285370780007D8F05
:101EF0006306071405041307F07F630DE4483707F2
:101F000080FF7D17F98F13F5150013D71500598D34
:101F10009395F701C98D858315A2930605FE930855
:101F20000002B356D70001486308150113080004E6
:101F30003305A8403318A7003366C8003336C00005
:101F4000558E014761BF598E3336C000DDBF630B2C
:101F5000080A330583400DE4B3E6B7006383064205
:101F60009306F5FF99E6B295BA9733B6C500B297D6
:101F700029BF1308F07F631D0501BA87B28521BF11
:101F80009306F07FE30BD3FEB7068000D58FAA86B9
:101F9000130580036343D5067D45634BD5021308C3
:101FA00000023308D84033950701B3D8D500B39564
:101FB000050133651501B335B0004D8DB3D7D7009A
:101FC000B305C500BA9733B6C500B2971A8431BFBE
:101FD000138506FE9308000233D8A70001456387E6
:101FE000160113050004158D3395A7004D8D33356B
:101FF000A0003365A8008147E1B733E5B70033356A
:10200000A000D5BF9306140013F5E67F3DE1B3E6CB
:10201000B70029E4638B0636B366C70085C22E96E7
:10202000BA973335B600AA97370780007D8FB285FF
:1020300011C7370780FF7D17F98F054413F7750027
:10204000630C073413F7F50091466307D734138701
:1020500045003335B700AA97BA853DAE99DE598E53
:10206000E30B06E28144B707400081451304F07F8B
:1020700025A61305F07F638DA6302E963335B60066
:10208000BA97AA971395F7010582B365C5008583B2
:1020900036846DB76356000D63110308B366C7003D
:1020A000638D06341305F8FF11E93386C54033B557
:1020B000C500998F898FB2850544B1A09306F07F42
:1020C000E30BD8DC9306800363C8A608FD4663CF04
:1020D000A604130800023308A840B3160701B3583A
:1020E000A60033160601B3E616013336C000558E3E
:1020F0003357A7003386C54033B5C5003387E74063
:10210000B307A740B2853709800033F727011DD7F1
:102110007D1933F92701AE895DAA9306F07FE30F9D
:10212000D4F0B7068000558F428569BF930605FE3F
:1021300093080002B356D70001486308150113083D
:1021400000043305A8403318A7003366C8003336AF
:10215000C000558E014779BF598E3336C000DDBFB0
:102160006305080C330583401DE833E8B7006308B6
:1021700008281308F5FF631B0800B305B640B30732
:10218000F7403336B600918FB6843DB79308F07FA1
:1021900063101503BA87B2851304F07F7DA013087E
:1021A000F07FE30903FF37088000B3E707012A88BF
:1021B00013058003634605077D45634D05039308BA
:1021C0000002B38808413395170133DE0501B3954A
:1021D00015013365C501B335B0004D8DB3D7070187
:1021E000B305A640B307F7403336B600918F1A8483
:1021F000B68411BF130508FE130E0002B3D8A70062
:1022000001456308C80113050004330505413395F2
:10221000A7004D8D3335A00033E5A8008147C9B72D
:1022200033E5B7003335A000D5BF1305140013758F
:10223000E57F25E933E8B7003365C70021E8631877
:1022400008006302051CBA87B285B684C5BBE307E4
:1022500005DE3388C540B3B805013385E740330553
:102260001541B7088000B3781501638A0800B305EB
:10227000B640B307F7403336B600918FF9B7B36570
:10228000A80063860518AA87C2854DBB631808009D
:1022900063010518BA87B285B684F5BEE30D05BEA5
:1022A000D1B3B389C54033B535013389E74033092C
:1022B000A940370580003375A90025C9B309B64088
:1022C000B307F740333636013389C740B684630419
:1022D00009064A85EFF04FF1130785FFFD4763C2FA
:1022E000E70693070002998F3319E900B3D7F90085
:1022F000B3E72701B395E900634F8706018F930683
:1023000017007D466345D60413070002158F3396E8
:10231000E70033D5D500B395E500498EB335B0005D
:10232000D18DB3D7D700014411BBB3E52901C5F165
:1023300081470144D9A84E85EFF00FEB1305050244
:1023400061BF930785FDB397F900814575B7051700
:102350001306000233D7E70001456387C600130563
:102360000004158D3395A7004D8D3335A000B3655E
:10237000A70081474DBF198C370780FF7D17F98F64
:1023800075B9BA87B2852A8455B9BA87B2857DB145
:102390001304F07F81478145370780007D8F11CB83
:1023A00005041307F07F630BE406370780FF7D17F2
:1023B000F98F1397D70113D53500598D1307F07F87
:1023C0008D836319E4005D8D814709C5B707080057
:1023D0000145814413174401B706F07FB207F2406C
:1023E0006244758FB183FE04D98F33E79700424969
:1023F000D244B249BA8505618280428481B1BA87EC
:10240000B2852A8499B581478145814471B7814756
:10241000EDBF81458144B707400089B981478145B7
:1024200049BF79714AD013D9450126D24ECE52CC3C
:102430005AC862C49394C50006D622D456CA5EC652
:102440001379F97F2A8A328B368CB18093D9F501C2
:10245000630409089307F07F630AF90C935AD501C6
:102460008E04B3E49A00B70A8000B3EA540113144F
:102470003500130919C0814B1315CC009354C500C6
:1024800013554C019375F57F135CFC01F9C193075B
:10249000F07F638BF510139534009357DB015D8D4E
:1024A000B7048000C98C931F3B00138515C081477A
:1024B00013972B005D8F7D173946B3C68901B3058D
:1024C000A9406365E61017E6FFFF130666F90A07E1
:1024D0003297184332970287B3EAA40063820A0650
:1024E0009DC82685EFF04FD0930755FF714763498C
:1024F000F702F54A130485FFB38AFA40B3948400C7
:10250000B35A5A01B3EA9A0033148A009305D0C033
:102510003389A5408DB7EFF02FCD13050502E9B73C
:10252000930485FDB31A9A000144CDB7B3EAA40021
:10253000638C0A002A84A68A1309F07F8D4B2DBF75
:1025400001440149854B0DBF01441309F07F894BBC
:1025500025B7B3EF640163820F069DC82685EFF0AF
:10256000AFC8AA85938755FF71476349F702F546BF
:10257000938F85FF9D8E3395F401B356DB00B3E452
:10258000A600B31FFB019306D0C03385B64005B744
:102590005A85EFF06FC593050502E9B7138585FDF0
:1025A000B314AB00814FC5B7B3EF6401638B0F0069
:1025B000DA8F1305F07F8D47E5BD814401458547DE
:1025C000C5BD81441305F07F8947DDB563E654013D
:1025D00063969A2A6364F42B1396FA011357140036
:1025E0009317F40193DA1A003364E600139584001C
:1025F00093D88F01B3E8A800418133DEAA02939EED
:10260000080193DE0E011357040113938F00B3FAF0
:10261000AA0272863388CE03C20A33675701637CED
:10262000070146971306FEFF6367170163750701ED
:102630001306EEFF469733070741335EA7024204B5
:1026400041803377A702F2823388CE034207418F5D
:10265000637C070146979302FEFF6367170163756A
:1026600007019302EEFF4697330407414206416893
:10267000B3625600130EF8FF13D6020133F7C201FE
:10268000135F0301337EC301B303EE02B304C60339
:102690003307EF02B30FE6033306970013D70301A6
:1026A000329763739700C29F135607017E96C16FDE
:1026B000FD1F3378F7014208B3F3F3011E986367F7
:1026C000C4009684631EC40263FC07039A9733B761
:1026D000670046973A949384F2FF63E6880063911B
:1026E000880263EF67006366C400631B860063F9BA
:1026F00007019A9733B7670046979384E2FF3A94AD
:1027000033880741118CB3B707011D8CFD5F6387C8
:10271000880EB35FA402135708013374A4027E86A7
:10272000B387FE034204598C637CF40046941386FD
:10273000FFFF636714016375F4001386EFFF46948F
:102740001D8C3357A4024208135808013374A402A5
:10275000BA87B38EEE02420433648800637CD401EE
:1027600046949307F7FF636714016375D4019307D9
:10277000E7FF469442065D8E93170601C183135707
:1027800006013308EF023304D441330FFF02B38E46
:10279000C703330EC70393D70E01729FFA9763F4F2
:1027A000C70141673A9813D70701429741687D18DE
:1027B00033F507014205B3FE0E0176956366E4002A
:1027C000631FE418B28F1DC94694930FF6FF63612F
:1027D00014036366E4006313E418637DA300931796
:1027E000130033B367009A98930FE6FF46943E8335
:1027F0006314E4006304650093EF1F009387F53FC3
:10280000635BF00A13F77F0001CF13F7FF00114657
:102810006308C70013864F00B33FF601FE94B28FE2
:1028200037070001658F19C7B70700FFFD17FD8C3B
:10283000938705401307E07F6342F70693DF3F006D
:102840001397D4013367F70113D53400D207370645
:10285000F07F3205B2502254F18F31815D8DFE063A
:10286000B367D50092540259F249624AD24A424BA8
:10287000B24B224C3A85BE8545618280FD15814769
:10288000B5B3CE86D684A28FDE870D47638AE70A6A
:102890000547638EE70A0947E392E7F601450147DA
:1028A0009307F07F65B7E286CDB7B7040800814F84
:1028B00081468D47D9BF05451D8D130780036348A9
:1028C000A7087D476349A7049385E541B397B40002
:1028D00033D7AF00B395BF00D98FB335B000CD8FDC
:1028E00033D5A40013F7770001CF13F7F700114693
:1028F0006308C70013874700B337F7003E95BA87D0
:1029000037078000698F39E71317D5018D835D8FF5
:102910000D81814725BF0557B307F7401306000215
:10292000B3D7F40001476306C5001387E543339727
:10293000E4003367F7013337E000D98F01455DB715
:102940003705080001479307F07F814601B701452D
:102950000147C1B7014501478547CDBD7E86B28F8E
:1029600061BD370710007D1713D84501B378B70054
:10297000AA872A831378F87F13D5F501930EF07F89
:1029800093D54601758F328E93F5F57FFD826318DE
:10299000D801B3EEF80063840E0609458280639681
:1029A000D501B36EC700E39A0EFE631C0804B3E7BB
:1029B000F80093B7170099E1598E0DCE81EB63149F
:1029C000D50063D905010DC57D5582807D5591C621
:1029D000368582806354B80065D98280E36517FF2D
:1029E000639CE800E3616EFEE368C3FF01458280FB
:1029F00005458280E5FFC1BFE3E0E8FEC5BFE38295
:102A000005FBD5FD81474DBF79714ECE93D9450168
:102A100022D426D252CC56CA5EC69394C50006D69E
:102A20004AD05AC893F9F97F2A84B28BB68AB1800A
:102A300013DAF501638109089307F07F6385F90CC8
:102A40009357D5018E04DD8CB7078000DD8C1319F8
:102A50003500938919C0014B13D54A011394CA005C
:102A60001375F57F318093DAFA0161C19307F07F26
:102A70006305F51093D7DB010E045D8CB70780006A
:102A80005D8C130515C093973B00014793162B00EF
:102A9000D98E4E95FD16394833465A0193051500D7
:102AA000636ED80E17E5FFFF1305459F8A06AA96A9
:102AB0009442AA96828633E9A400630F09048DC864
:102AC0002685EFE07FF2130755FFF14763C7E70262
:102AD000F547130985FF998FB3942401B357F40088
:102AE000DD8C331924019309D0C0B389A940A5B75F
:102AF000EFE09FEF13050502F9B7930485FDB314CA
:102B000094000149CDB733E9A400630B09002A8979
:102B10009309F07F0D4B89B781448149054B2DBF47
:102B200081449309F07F094B05BFB3677401B1CFAE
:102B30000DC82285EFE05FEB930655FFF14763C8B0
:102B4000D7027547930785FF158F3314F40033D7E9
:102B5000EB00598CB397FB001307D0C03305A74097
:102B60002DB75E85EFE05FE813050502F1B71304AA
:102B700085FD33948B008147C5B7B367740191CB52
:102B8000DE871305F07F0D4711B701440145054766
:102B9000F5BD01441305F07F0947CDBD416F930E8C
:102BA000FFFF1357090193D807013379D901B3F710
:102BB000D70133882803B306F902B30FF7023303B2
:102BC000F80113D806011A98330E17036373F8013E
:102BD0007A9E935308013378D801B3F6D601135F78
:102BE0000401B372D40142083698B30E5702B306FB
:102BF000590233092F033303D90113D906011A9956
:102C00003307E7036374D90141631A97935E09019F
:102C1000C169BA9E1387F9FF3379E900F98E13D49D
:102C200004014209F98C338797023699CA9333031A
:102C3000F402B3869802B3878802B388660093567D
:102C40000701C69663F36600CE9793D80601C16963
:102C5000B38FF8009387F9FFB3889202FD8E7D8FC2
:102C6000C206BA96B3075402B3049F0233038F021D
:102C7000BE9413D40801A29463F3F4004E93C16789
:102C8000FD1733F7F400B3F8F80042071E9E46978D
:102C900033392E01769733042701369EB336DE0092
:102CA000B308F401338FD8003337D701333424010C
:102CB000598CC180B3B8F801B336DF002694B3E66F
:102CC000D80036941A9493577F0126045D8C93178D
:102CD0009E00B3E70701B337F000135E7E011317C0
:102CE0009F00B3E7C701D98F37070001618F4DCB34
:102CF00013D71700858BD98F1317F401D98F05804F
:102D00009386F53F6350D00A13F7770001CF13F78E
:102D1000F70011456308A70013874700B337F70092
:102D20003E94BA8737070001618F19C7370700FF44
:102D30007D17798C938605401307E07F634ED70E8D
:102D400013D737009317D401D98F0D8013974601FD
:102D50003204B706F07F758F3180598C7E06B250F1
:102D60003367C400225492540259F249624AD24A4B
:102D7000424BB24B3E85BA8545618280528626849D
:102D8000CA875A8789466309D70A8D46630FD708D1
:102D90008546E317D7F6014481479DA05686DDB7E7
:102DA000AA85B9BF0545158D13078003E345A7FE26
:102DB0007D476349A7049385E5413317B400B3D633
:102DC000A700B397B700558FB337F000D98F3354AE
:102DD000A40013F7770001CF13F7F70091466308BB
:102DE000D70013874700B337F7003E94BA873707F9
:102DF0008000618F39E71317D4018D83D98F0D803F
:102E00008146A9B70557158F130800023357E40010
:102E10008146630605019385E543B316B400D58F5B
:102E2000B337F000D98F01446DB7370408008147EC
:102E30009306F07F014619BF014481479306F07F56
:102E400031B701448147854611B737071000930712
:102E5000F7FF33F7B700D181F58F93F5F57FD18276
:102E60001308F07F93F6F67F63950501498F0545BA
:102E700009EB1307F07F01456395E600D18F3335E9
:102E8000F0008280011106CE22CC0010B70700802E
:102E900083A7874BA9EFB7070080054723ACE74A14
:102EA000B70701201387872EB70701209387072EC6
:102EB00063F1E704B70701209387072E2326F4FE6A
:102EC00031A88327C4FE9C432324F4FE832784FE79
:102ED00082978327C4FE91072326F4FE0327C4FEAE
:102EE000B70701209387872EE31DF7FC21A001007F
:102EF00011A00100F240624405618280011106CEFA
:102F000022CC0010B707008083A7C74BA9EFB707F3
:102F10000080054723AEE74AB70701201387872EB5
:102F2000B70701209387872E63F1E704B7070120D5
:102F30009387872E2326F4FE31A88327C4FE9C4363
:102F40002324F4FE832784FE82978327C4FE9107FF
:102F50002326F4FE0327C4FEB70701209387872E9C
:102F6000E31DF7FC21A0010011A00100F240624422
:102F700005618280411106C622C400082137010084
:102F8000B240224441018280411106C622C4000899
:102F9000B5370100B240224441018280011122CEA6
:102FA00000102326A4FE0327C4FE938741816315E6
:102FB000F700B707000211A081473E857244056102
:102FC0008280011122CE00102326A4FE0327C4FE16
:102FD000938741816314F700894711A081473E859B
:102FE000724405618280011122CE00102326A4FEC6
:102FF0002324B4FE832784FE91E7B70700809387DC
:10300000070921A8032784FE85476317F700B70740
:1030100000809387070911A081473E8572440561AE
:103020008280011122CE00102326A4FE2324B4FEA8
:10303000832784FE99E38D4709A8032784FE8547EB
:103040006314F7009D4711A081473E8572440561D6
:1030500082805D7186C6A2C4CAC2CEC052DE56DC72
:103060005ADA5ED862D666D48008232EA4FA832763
:10307000C4FB3E8525372326A4FC0327C4FCB16787
:10308000F117BA979C432324F4FC0327C4FCB167CF
:10309000E117BA979C432322F4FC0327C4FCB167D1
:1030A000F117BA979C43032784FCE318F7FC8327A6
:1030B00084FC3E8C814C93190C000149832744FC0D
:1030C0003E8A814A336B4901B3EB59015A87DE8747
:1030D0003A85BE85B640264416498649725AE25A58
:1030E000525BC25B325CA25C61618280797106D600
:1030F00022D44AD24ED00018232EA4FC232CB4FC98
:103100002328C4FC232AD4FC8327C4FD2326F4FEF1
:103110008327C4FE3E8559352324A4FE832784FDDE
:103120008E073E87832784FE3E9791679107BA9763
:103130003E87FD571CC3832784FD8E073E87832768
:1031400084FE3E979167BA973E87832704FD1CC390
:10315000832744FD13D907008149832784FD8E0707
:103160003E87832784FE3E9791679107BA974A87E7
:1031700098C381473E85B250225412598259456105
:103180008280011106CE22CC0010232604FEF327F4
:1031900040F12326F4FE8327C4FE3E85EF209010E5
:1031A0002324A4FE032584FEEF20700DAA873E850C
:1031B000F240624405618280397106DE22DC8000C3
:1031C0002326A4FC0325C4FCED3B2324A4FE832773
:1031D000C4FC2322F4FE832744FEDC43A9EF23260C
:1031E00004FE81A08325C4FE0325C4FCED3B2320FF
:1031F000A4FE8325C4FE0325C4FC2535232EA4FC90
:10320000832704FE9C43DC4F8326C4FC01468325B0
:10321000C4FD032504FE82978327C4FE8507232669
:10322000F4FE0327C4FE832784FEE34DF7FA8327C9
:1032300044FE0547D8C30100F250625421618280E8
:10324000397106DE22DC80002326A4FC2324B4FC92
:103250002322C4FC2320D4FCFD572326F4FEEF10C8
:1032600040432320A4FE232404FE213F232EA4FC5C
:103270000325C4FCB933232CA4FC032704FE854793
:103280006308F700832704FE81C78327C4FE49A093
:10329000232204FE91A0832544FE0325C4FC513360
:1032A000232AA4FC832544FE0325C4FC2D3B2324B0
:1032B000A4FE0327C4FD832784FE6318F7000327B9
:1032C00084FC832744FD6300F702232404FE832744
:1032D00044FE85072322F4FE032744FE832784FD52
:1032E000E34BF7FA11A00100832784FE85C38327EF
:1032F00084FE9C43DC4F832604FC032644FC832588
:1033000084FC032584FE82972326A4FE8327C4FE23
:103310003E85F250625421618280797122D6001874
:10332000232EA4FC232CB4FC232AC4FC2328D4FC85
:10333000FD572326F4FE8327C4FE3E8532544561A3
:103340008280011106CE22CC00102326A4FEEF10AD
:103350004034AA873E85F2406244056182807971DB
:1033600006D622D40018232EA4FC232CB4FCFD572F
:103370002326F4FE39352324A4FE832784FE95C337
:10338000032784FD854763E0E702832784FE9C438F
:10339000DC43832584FD032584FE82972326A4FE37
:1033A00021A0010011A001008327C4FE3E85B25078
:1033B000225445618280397106DE22DC800023269A
:1033C000A4FC2324B4FCFD572326F4FE832784FCAD
:1033D000C9C7232404FE75332320A4FE0325C4FC9F
:1033E000CD36232EA4FC232204FE91A0832544FE87
:1033F0000325C4FC3D31232CA4FC832544FE032576
:10340000C4FCD5362324A4FE032704FE832784FEB0
:103410006318F700032784FC832784FD6300F70209
:10342000232404FE832744FE85072322F4FE03277A
:1034300044FE8327C4FDE34BF7FA11A00100832764
:1034400084FE81CF832784FE9C43DC53832584FC48
:10345000032584FE82972326A4FE8327C4FE3E858F
:10346000F250625421618280397106DE22DC8000D4
:103470002326A4FC2324B4FCFD572326F4FE832733
:1034800084FCC9C7232404FEED392320A4FE0325B0
:10349000C4FC053E232EA4FC232204FE91A0832518
:1034A00044FE0325C4FCB53E232CA4FC832544FE26
:1034B0000325C4FC0D3E2324A4FE032704FE83271A
:1034C00084FE6318F700032784FC832784FD6300D0
:1034D000F702232404FE832744FE85072322F4FEFB
:1034E000032744FE8327C4FDE34BF7FA11A0010034
:1034F000832784FE81CF832784FE9C439C578325AA
:1035000084FC032584FE82972326A4FE8327C4FE21
:103510003E85F250625421618280797106D622D4B0
:103520000018232EA4FC232CB4FC232AC4FCFD5732
:103530002326F4FE8327C4FD2324F4FE0325C4FDC3
:10354000B13C2322A4FE032784FD91476300F70CBE
:10355000032784FD914763C0E70E032784FD8D4751
:103560006305F706032784FD8D4763C6E70C032731
:1035700084FD85476308F700032784FD89476302BC
:10358000F70255A8832744FDCDCB032584FED13413
:103590002A87AE87832644FD98C2DCC2232604FE18
:1035A00069A8832744FDC1CF832744FD9C43232082
:1035B000F4FE832704FE8A073E87832744FEBA97DA
:1035C00023A00700232604FE9DA8832744FDB5CB36
:1035D000832744FD9C432320F4FE832704FE8A07AF
:1035E0003E87832744FEBA973E8785471CC30F005A
:1035F0008004832704FE8A073E87832744FEBA9708
:103600009C432326F4FE232604FE25A8232604FE3D
:10361000832744FD8DCB832744FD9C432320F4FE68
:10362000832704FE8A073E87832744FEBA979C437C
:103630002326F4FE09A8010001A8010031A0010021
:1036400021A0010011A001008327C4FE3E85B250D5
:10365000225445618280797106D622D40018232E27
:10366000A4FC232CB4FCEF208046AA872326F4FE7A
:103670009307C4FE3E8689450325C4FD793DAA878C
:103680003E85B250225445618280797106D622D49B
:103690000018232EA4FC232CB4FCEF204043AA875F
:1036A0002326F4FE9307C4FE3E868D450325C4FD04
:1036B000AD35AA873E85B250225445618280011102
:1036C00022CE00102326A4FE0327C4FE9387C181C7
:1036D0006314F700814711A0FD573E8572440561D0
:1036E0008280011122CE00102326A4FE0327C4FEEF
:1036F0009387C1816317F700B727F40093870740CA
:1037000011A081473E85724405618280011122CE5D
:1037100000102326A4FE0327C4FE9387C1816317EC
:10372000F700B70700809387070911A081473E85FE
:10373000724405618280011122CE00102326A4FE6E
:103740000327C4FE9387C1816314F700814711A04A
:1037500081473E85724405618280011122CE0010AE
:103760002326A4FE8327C4FE634AF0000327C4FE79
:103770000A0793870181BA979C4311A081473E8530
:10378000724405618280011122CE0010F32740F1BE
:103790002326F4FE8327C4FE3E85724405618280A1
:1037A000011122CE0010A147F3A707302326F4FE13
:1037B0000100724405618280011122CE0010A147F0
:1037C000F3B707302326F4FE0100724405618280BE
:1037D000011122CE0010A147F3A747302326F4FEA3
:1037E0000100724405618280011122CE0010A147C0
:1037F000F3B747302326F4FE01007244056182804E
:10380000011122CE001093070008F3A747302326AA
:10381000F4FE0100724405618280011122CE001085
:1038200093070008F3B747302326F4FE01007244E3
:1038300005618280011122CE001085679387078081
:10384000F3A747302326F4FE01007244056182800D
:10385000011122CE0010856793870780F3B74730A8
:103860002326F4FE0100724405618280797122D61C
:103870000018232EA4FC8327C4FD0547B317F700C7
:103880002326F4FE8327C4FEF3A747302324F4FE47
:103890000100325445618280797122D60018232EAE
:1038A000A4FC8327C4FD0547B317F7002326F4FEC5
:1038B0008327C4FEF3B747302324F4FE01003254BB
:1038C00045618280011106CE22CC00102326A4FE81
:1038D0002324B4FE13054006EF200021011106CE7B
:1038E00022CC00102326A4FE2324B4FE1305800C52
:1038F000EF20801F5D7186C696C49AC29EC022DEEC
:103900002ADC2EDA32D836D63AD43ED242D046CE4F
:1039100072CC76CA7AC87EC680081305C012EF2022
:10392000A01C1D7186CE96CC9ACA9EC8A2C6AAC4F7
:10393000AEC2B2C036DE3ADC3EDA42D846D672D4E7
:1039400076D27AD07ECE80103D3D2A870A079387B3
:103950000181BA979C432326F4FA8327C4FA85C7CA
:103960000325C4FA65332324A4FA832784FA83A7A2
:10397000070E2322F4FA832784FA83A7870D832571
:1039800044FA0D4582970100F640E6425643C6438D
:103990003644264596450646F2566257D257425857
:1039A000B258225E925E025FF24F256173002030B2
:1039B000797106D622D40018232EA4FC232CB4FC43
:1039C000D9332A870A0793870181BA979C43232614
:1039D000F4FEF32720342324F4FE8327C4FE95C786
:1039E0000325C4FE25332322A4FE832784FE93F7F8
:1039F000F73F032744FE9387870E8A07BA979C43B5
:103A00008325C4FD0325C4FE82970100B2502254D1
:103A1000456182801D7186CE96CC9ACA9EC8A2C688
:103A2000AAC4AEC2B2C036DE3ADC3EDA42D846D6CE
:103A300072D476D27AD07ECE8010B1332A870A072C
:103A400093870181BA979C432326F4FA8327C4FA0B
:103A500085C70325C4FA5D392324A4FA832784FA91
:103A600083A707142322F4FA832784FA83A78713F2
:103A7000832544FA1D4582970100F640E6425643ED
:103A8000C6433644264596450646F2566257D257F7
:103A90004258B258225E925E025FF24F2561730077
:103AA0002030011122CE00102326A4FE2324B4FED0
:103AB0000100724405618280797106D622D4001813
:103AC000232EA4FC232CB4FC7D39AA873E857131BA
:103AD0002326A4FE0325C4FEEF10E0272320A4FE26
:103AE0002322B4FE032704FE832744FE2945814593
:103AF0003306A70032883338E800B386B700B3072F
:103B0000D800BE863287B687BA853E860325C4FEB6
:103B1000EF10C02A0100B25022544561828000009B
:103B20000000000000000000000000000000000095
:103B30000000000000000000000000000000000085
:103B40000000000000000000000000000000000075
:103B50000000000000000000000000000000000065
:103B60000000000000000000000000000000000055
:103B70000000000000000000000000000000000045
:103B8000197186DE96DC9ADA9ED8A2D6AAD4AED275
:103B9000B2D0B6CEBACCBECAC2C8C6C6F2C4F6C28D
:103BA000FAC07EDE0001C5362A870A0793870181A5
:103BB000BA979C432326F4FAF32720342324F4FAFB
:103BC000F32710342322F4FAF32730342320F4FAB5
:103BD000F3275030232EF4F88327C4FAF5CB0325BE
:103BE000C4FA2D36232CA4F8832784FA93F7F73FE1
:103BF000232AF4F8832784FA63DE070A032744F9AB
:103C0000930700086312F702832784F983A7873993
:103C10002326F4F8832784F983A707398325C4F87A
:103C2000032544F982976DA0032744F9AD4763D774
:103C3000E7008327C4F993F7F7039DEF832684F900
:103C4000032744F9BA878607BA978E07B69783A7E2
:103C500087092326F4F8832684F9032744F9BA87D1
:103C60008607BA978E07B69783A707098325C4F8F6
:103C7000032544F98297A9A88327C4F913F7F7030A
:103C800089476317F704F32770302328F4F8832754
:103C900084F983A7C70D2326F4F8832704F99C43EE
:103CA0002324F4F8832784F88325C4F8032544F9F2
:103CB000829739A8032784F9832744F99387870ECD
:103CC0008A07BA979C43832544F90325C4FA82974F
:103CD000F650E6525653C653365426559655065658
:103CE000F6466647D6474648B648264E964E064F95
:103CF000F25F096173002030000000000000000046
:103D000000000000000000000000000000000000B3
:103D100000000000000000000000000000000000A3
:103D20000000000000000000000000000000000093
:103D30000000000000000000000000000000000083
:103D40000000000000000000000000000000000073
:103D50000000000000000000000000000000000063
:103D60000000000000000000000000000000000053
:103D700000001D7186CE96CC9ACA9EC8A2C6AAC45F
:103D8000AEC2B2C036DE3ADC3EDA42D846D672D493
:103D900076D27AD07ECE8010EFF0FF9E2A870A0777
:103DA00093870181BA979C432326F4FA8327C4FAA8
:103DB0008DC70325C4FAEFF07F952324A4FA832747
:103DC00084FA83A787212322F4FA832784FA83A71E
:103DD0000721832544FA414582970100F640E642D7
:103DE0005643C6433644264596450646F256625724
:103DF000D2574258B258225E925E025FF24F25615E
:103E0000730020301D7186CE96CC9ACA9EC8A2C679
:103E1000AAC4AEC2B2C036DE3ADC3EDA42D846D6DA
:103E200072D476D27AD07ECE8010EFF0DF952A87DA
:103E30000A0793870181BA979C432326F4FA8327C4
:103E4000C4FA8DC70325C4FAEFF05F8C2324A4FACB
:103E5000832784FA83A707232322F4FA832784FA8B
:103E600083A78722832544FA454582970100F640BF
:103E7000E6425643C6433644264596450646F25624
:103E80006257D2574258B258225E925E025FF24F9A
:103E90002561730020301D7186CE96CC9ACA9EC8CB
:103EA000A2C6AAC4AEC2B2C036DE3ADC3EDA42D8FE
:103EB00046D672D476D27AD07ECE8010EFF0BF8C08
:103EC0002A870A0793870181BA979C432326F4FA2D
:103ED0008327C4FA8DC70325C4FAEFF03F83232458
:103EE000A4FA832784FA83A787242322F4FA83275A
:103EF00084FA83A70724832544FA49458297010061
:103F0000F640E6425643C6433644264596450646A5
:103F1000F2566257D2574258B258225E925E025F02
:103F2000F24F2561730020301D7186CE96CC9ACA5F
:103F30009EC8A2C6AAC4AEC2B2C036DE3ADC3EDA21
:103F400042D846D672D476D27AD07ECE8010EFF0A8
:103F50009F832A870A0793870181BA979C43232668
:103F6000F4FA8327C4FA8DC70325C4FAEFF00FFAD9
:103F70002324A4FA832784FA83A707262322F4FAAA
:103F8000832784FA83A78725832544FA4D458297A2
:103F90000100F640E6425643C64336442645964560
:103FA0000646F2566257D2574258B258225E925E87
:103FB000025FF24F2561730020301D7186CE96CCD2
:103FC0009ACA9EC8A2C6AAC4AEC2B2C036DE3ADC45
:103FD0003EDA42D846D672D476D27AD07ECE8010DF
:103FE000EFF06FFA2A870A0793870181BA979C43FB
:103FF0002326F4FA8327C4FA8DC70325C4FAEFF009
:10400000EFF02324A4FA832784FA83A787272322A7
:10401000F4FA832784FA83A70727832544FA5145B6
:1040200082970100F640E6425643C6433644264591
:1040300096450646F2566257D2574258B258225E0B
:10404000925E025FF24F2561730020301D7186CEB3
:1040500096CC9ACA9EC8A2C6AAC4AEC2B2C036DE68
:104060003ADC3EDA42D846D672D476D27AD07ECEC8
:104070008010EFF04FF12A870A0793870181BA97E2
:104080009C432326F4FA8327C4FA8DC70325C4FA78
:10409000EFF0CFE72324A4FA832784FA83A7072924
:1040A0002322F4FA832784FA83A78728832544FAF6
:1040B000554582970100F640E6425643C6433644D2
:1040C000264596450646F2566257D2574258B25890
:1040D000225E925E025FF24F2561730020301D71F7
:1040E00086CE96CC9ACA9EC8A2C6AAC4AEC2B2C098
:1040F00036DE3ADC3EDA42D846D672D476D27AD070
:104100007ECE8010EFF02FE82A870A07938701817F
:10411000BA979C432326F4FA8327C4FA8DC7032554
:10412000C4FAEFF0AFDE2324A4FA832784FA83A72E
:10413000872A2322F4FA832784FA83A7072A832570
:1041400044FA594582970100F640E6425643C64379
:104150003644264596450646F2566257D25742588F
:10416000B258225E925E025FF24F256173002030EA
:104170001D7186CE96CC9ACA9EC8A2C6AAC4AEC2EB
:10418000B2C036DE3ADC3EDA42D846D672D476D2B7
:104190007AD07ECE8010EFF00FDF2A870A07938750
:1041A0000181BA979C432326F4FA8327C4FA8DC76A
:1041B0000325C4FAEFF08FD52324A4FA832784FAC9
:1041C00083A7072C2322F4FA832784FA83A7872B5B
:1041D000832544FA5D4582970100F640E642564346
:1041E000C6433644264596450646F2566257D25790
:1041F0004258B258225E925E025FF24F2561730010
:1042000020301D7186CE96CC9ACA9EC8A2C6AAC47A
:10421000AEC2B2C036DE3ADC3EDA42D846D672D4FE
:1042200076D27AD07ECE8010EFF0EFD52A870A07BB
:1042300093870181BA979C432326F4FA8327C4FA13
:104240008DC70325C4FAEFF06FCC2324A4FA83278B
:1042500084FA83A7872D2322F4FA832784FA83A77D
:10426000072D832544FA614582970100F640E64216
:104270005643C6433644264596450646F25662578F
:10428000D2574258B258225E925E025FF24F2561C9
:10429000730020301D7186CE96CC9ACA9EC8A2C6E5
:1042A000AAC4AEC2B2C036DE3ADC3EDA42D846D646
:1042B00072D476D27AD07ECE8010EFF0CFCC2A871F
:1042C0000A0793870181BA979C432326F4FA832730
:1042D000C4FA8DC70325C4FAEFF04FC32324A4FA10
:1042E000832784FA83A7072F2322F4FA832784FAEB
:1042F00083A7872E832544FA654582970100F640FF
:10430000E6425643C6433644264596450646F2568F
:104310006257D2574258B258225E925E025FF24F05
:104320002561730020301D7186CE96CC9ACA9EC836
:10433000A2C6AAC4AEC2B2C036DE3ADC3EDA42D869
:1043400046D672D476D27AD07ECE8010EFF0AFC34C
:104350002A870A0793870181BA979C432326F4FA98
:104360008327C4FA8DC70325C4FAEFF02FBA23249C
:10437000A4FA832784FA83A787302322F4FA8327B9
:1043800084FA83A70730832544FA694582970100A0
:10439000F640E6425643C643364426459645064611
:1043A000F2566257D2574258B258225E925E025F6E
:1043B000F24F2561730020301D7186CE96CC9ACACB
:1043C0009EC8A2C6AAC4AEC2B2C036DE3ADC3EDA8D
:1043D00042D846D672D476D27AD07ECE8010EFF014
:1043E0008FBA2A870A0793870181BA979C432326AD
:1043F000F4FA8327C4FA8DC70325C4FAEFF00FB18E
:104400002324A4FA832784FA83A707322322F4FA09
:10441000832784FA83A78731832544FA6D458297E1
:104420000100F640E6425643C643364426459645CB
:104430000646F2566257D2574258B258225E925EF2
:10444000025FF24F2561730020301D7186CE96CC3D
:104450009ACA9EC8A2C6AAC4AEC2B2C036DE3ADCB0
:104460003EDA42D846D672D476D27AD07ECE80104A
:10447000EFF06FB12A870A0793870181BA979C43AF
:104480002326F4FA8327C4FA8DC70325C4FAEFF074
:10449000EFA72324A4FA832784FA83A78733232250
:1044A000F4FA832784FA83A70733832544FA7145F6
:1044B00082970100F640E6425643C64336442645FD
:1044C00096450646F2566257D2574258B258225E77
:1044D000925E025FF24F2561730020301D7186CE1F
:1044E00096CC9ACA9EC8A2C6AAC4AEC2B2C036DED4
:1044F0003ADC3EDA42D846D672D476D27AD07ECE34
:104500008010EFF04FA82A870A0793870181BA9796
:104510009C432326F4FA8327C4FA8DC70325C4FAE3
:10452000EFF0CF9E2324A4FA832784FA83A70735CC
:104530002322F4FA832784FA83A78734832544FA55
:10454000754582970100F640E6425643C64336441D
:10455000264596450646F2566257D2574258B258FB
:10456000225E925E025FF24F2561730020301D7162
:1045700086CE96CC9ACA9EC8A2C6AAC4AEC2B2C003
:1045800036DE3ADC3EDA42D846D672D476D27AD0DB
:104590007ECE8010EFF02F9F2A870A079387018134
:1045A000BA979C432326F4FA8327C4FA8DC70325C0
:1045B000C4FAEFF0AF952324A4FA832784FA83A7E3
:1045C00087362322F4FA832784FA83A707368325C4
:1045D00044FA794582970100F640E6425643C643C5
:1045E0003644264596450646F2566257D2574258FB
:1045F000B258225E925E025FF24F25617300203056
:104600001D7186CE96CC9ACA9EC8A2C6AAC4AEC256
:10461000B2C036DE3ADC3EDA42D846D672D476D222
:104620007AD07ECE8010EFF00F962A870A07938704
:104630000181BA979C432326F4FA8327C4FA8DC7D5
:104640000325C4FAEFF08F8C2324A4FA832784FA7D
:1046500083A707382322F4FA832784FA83A78737AE
:10466000832544FA7D4582970100F640E642564391
:10467000C6433644264596450646F2566257D257FB
:104680004258B258225E925E025FF24F256173007B
:104690002030011122CE0010F32750302326F4FEE3
:1046A0008327C4FE93F7F7032326F4FE0327C4FEF3
:1046B0008D476303F7020327C4FE8D4763E2E702D9
:1046C0000327C4FE8547630BF7000327C4FE894711
:1046D0006318F7008D4731A0914721A0854711A0AD
:1046E00081473E85724405618280797122D6001827
:1046F000232EA4FC232CB4FCF32750302326F4FEF5
:104700008327C4FE93F707FC2326F4FE832784FD4A
:104710002324F4FE0327C4FD91476305F704032710
:10472000C4FD914763E8E7060327C4FD8D4763E3B3
:10473000E7060327C4FD8947637BF7008327C4FD91
:10474000A1C70327C4FD85476309F702A1A08327FA
:1047500084FE739077308327C4FE93E7270073901D
:1047600057300DA8832784FE739077308327C4FECB
:1047700093E737007390573031A8832784FE93E77F
:1047800017007390573039A0832784FEF19B7390F4
:10479000573001000100325445618280011122CE60
:1047A00000102326A4FE0327C4FEFD4763C6E702CC
:1047B0000327C4FE8D476349F7028327C4FE0547DC
:1047C0003317F700C57793878788F98FB337F000E1
:1047D00093F7F70F81EB09A80327C4FE930700089E
:1047E0006314F700854719A0010081473E85724494
:1047F00005618280797106D622D40018232EA4FC8C
:10480000232CB4FC232AC4FC232604FE8327C4FDE6
:1048100099E3FD5749A8032784FDFD4763E0E708B6
:10482000832784FD13972700B707012093878753B9
:10483000BA979C438287832744FD81C7EFE05FF6E8
:104840008DA0EFE07FF7B1A8832744FD81C7EFE09B
:104850003FF881A8EFE05FF9A9A0832744FD81C755
:10486000EFE01FFA3DA8EFE05FFB25A8832744FD9A
:1048700081C7EFE03FFC35A0EFE09FFD1DA083273F
:1048800044FD99C7832784FD3E85EFE03FFE11A8D4
:10489000832784FD3E85EFF02F8021A0FD5723263E
:1048A000F4FE8327C4FE3E85B250225445618280C7
:1048B000797122D60018232EA4FC232CB4FC232AC1
:1048C000C4FC8327C4FD2326F4FE032784FDAD47E3
:1048D00063C2E702832744FD91CF0327C4FE8327E9
:1048E00084FD9387870E8A07BA97032744FD98C3F0
:1048F000814711A0FD573E85325445618280797110
:1049000006D622D40018232EA4FC8327C4FD23221C
:10491000F4FE832744FEDC43DDEF232604FEB9A02A
:10492000832644FE0327C4FEBA878607BA978E07FC
:10493000B69723A80708832644FE0327C4FEBA8738
:104940008607BA978E07B69723AA0708832644FEE0
:104950000327C4FEBA878607BA978E07B69723AC9B
:1049600007088327C4FE85072326F4FE0327C4FE19
:10497000FD47E3D7E7FA232404FE1DA0032744FEE6
:10498000832784FE9387870E8A07BA9737470120CB
:104990001307478C98C3832784FE85072324F4FEDE
:1049A000032784FEAD47E3DBE7FCF32750302320E9
:1049B000F4FEB707012093874713032704FE63180B
:1049C000F700B7470120938507B80145393B832796
:1049D00044FE0547D8C30100B2502254456182808D
:1049E000797106D622D40018232EA4FC232CB4FC03
:1049F000232AC4FC2328D4FC232604FE8327C4FDD9
:104A00002324F4FE032584FD513BAA8799E3D5575F
:104A10005DA2032784FD930700086317F70095390B
:104A2000AA8799C3CD5741AA832744FDB9CF03274D
:104A300084FD93070008631FF700832784FE032784
:104A400044FD23A8E738832784FE032704FD23AC15
:104A5000E73885A2832684FE032784FDBA8786076C
:104A6000BA978E07B697032744FD23A8E708832645
:104A700084FE032784FDBA878607BA978E07B69708
:104A8000032704FD23ACE7082DA2032784FD930729
:104A900000086301F70C032784FD9307000863C730
:104AA000E710032784FDFD4763C2E710032784FD59
:104AB000C1476350F70C032784FDAD47630BF70A2A
:104AC000032784FDAD4763C3E70E032784FD8D47AD
:104AD0006308F700032784FD9D476300F704F9A0EE
:104AE000832684FE032784FDBA878607BA978E073C
:104AF000B697374701201307079B23A8E7088326AB
:104B000084FE032784FDBA878607BA978E07B69777
:104B1000032704FD23AAE70869A8832684FE032748
:104B200084FDBA878607BA978E07B6973747012064
:104B3000130787AB23A8E708832684FE032784FD99
:104B4000BA878607BA978E07B697032704FD23AA6C
:104B5000E70885A0832784FE37470120130727AA8B
:104B600023A8E738832784FE032704FD23ACE73816
:104B700089A0832684FE032784FDBA878607BA9717
:104B80008E07B697374701201307C78D23A8E7087C
:104B9000832684FE032784FDBA878607BA978E078B
:104BA000B697032704FD23AAE70821A0D15723269F
:104BB000F4FE8327C4FE3E85B250225445618280B4
:104BC000011106CE22CC00102326A4FE2324B4FE1D
:104BD000832784FE0546BE850325C4FE2139AA87A6
:104BE0003E85F240624405618280011106CE22CCEE
:104BF00000102326A4FE2324B4FE832784FE01464E
:104C0000BE850325C4FEFD36AA873E85F240624478
:104C100005618280011106CE22CC00102326A4FE5D
:104C2000EFF03FA7AA873E85F2406244056182808B
:104C3000011106CE22CC00102326A4FE2324B4FEAC
:104C4000832784FE99EBB7470120938507B8032596
:104C500084FEEFF09FA981470DA0032784FE8547BE
:104C6000631CF700B7670120938507B0032584FE16
:104C7000EFF0BFA7814711A0FD573E85F240624487
:104C800005618280011122CE00102326A4FE232478
:104C9000B4FE2322C4FE81473E85724405618280B2
:104CA000397122DE80002326A4FC0145814523249E
:104CB000A4FE2326B4FEF32500B82322B4FEF32578
:104CC00000B02320B4FEF32500B8232EB4FC032546
:104CD00044FE8325C4FDE310B5FE832544FE2E88E3
:104CE0008148931708000147832504FE2E868146DC
:104CF000B365C7002324B4FED58F2326F4FE032713
:104D000084FE8327C4FE3A85BE8572542161828069
:104D1000797106D622D44AD24ED00018232EA4FC94
:104D20008327C4FD81E70149814921A80325C4FDEA
:104D3000EFE03F9B2326A4FE8327C4FE3E89FD8728
:104D4000BE894A87CE873A85BE85B2502254125911
:104D5000825945618280797106D622D40018232EAB
:104D6000A4FC814701482320F4FE232204FF0325ED
:104D7000C4FDEFE0BF992326A4FE8327C4FE8DC7A0
:104D80008327C4FE83A7C7132324F4FE832784FE4E
:104D900081CF832784FE9C43F847930704FE3E8619
:104DA0008545032584FE0297032704FE832744FEDE
:104DB0003A85BE85B250225445618280797106D60B
:104DC00022D426D20018232EA4FC2328B4FC232AA4
:104DD000C4FCFD572326F4FE0325C4FDEFE01F931A
:104DE0002324A4FE832784FE8DCF832784FE83A7FC
:104DF000C7132322F4FE832744FE85C7832744FE7E
:104E00009C43A44B0325C4FDEFE07F8BAA870326B8
:104E100004FD832644FDBE85032544FE829423269B
:104E2000A4FE8327C4FE3E85B250225492544561AD
:104E30008280011122CE00102326A4FE9387418197
:104E40003E85724405618280011122CE0010232626
:104E5000A4FE9D473E85724405618280011122CEE9
:104E600000102326A4FE938741813E85724405618C
:104E70008280011122CE00102326A4FE8D473E859C
:104E8000724405618280797106D622D40018232EDF
:104E9000A4FC232CB4FCFD572326F4FE0325C4FDFB
:104EA000EFE0DF862324A4FE832784FE9DC78327AB
:104EB00084FE83A7C70D2322F4FE832744FE91CFEF
:104EC000832744FE9C43F847930784FD3E868D4527
:104ED000032544FE02972326A4FE8327C4FE3E85B5
:104EE000B250225445618280797106D622D40018CE
:104EF000232EA4FC232CB4FCFD572326F4FE03250B
:104F0000C4FDEFE0BF802324A4FE832784FE9DC759
:104F1000832784FE83A7C70D2322F4FE832744FE44
:104F200091CF832744FE9C43F847930784FD3E8638
:104F30008945032544FE02972326A4FE8327C4FE49
:104F40003E85B250225445618280797106D622D4C2
:104F50000018232EA4FC232CB4FC232604FE0325D6
:104F6000C4FDEFE0AFFA2324A4FE832784FE9DC78F
:104F7000832784FE83A7C70D2322F4FE832744FEE4
:104F800091CF832744FE9C43F847930784FD3E86D8
:104F90009145032544FE02972326A4FE8327C4FEE1
:104FA0003E85B250225445618280011106CE22CC4A
:104FB00000102326A4FE0325C4FEEFE02FF5AA87E8
:104FC0003E85F240624405618280797106D622D422
:104FD0000018232EA4FC232CB4FC232AC4FC032594
:104FE000C4FDEFE0AFF22326A4FE8327C4FE99CBD5
:104FF000032644FD832584FD0325C4FEEFF05F8B6B
:10500000AA8711A0FD573E85B25022544561828087
:10501000011122CE00102326A4FE2324B4FE8327F0
:1050200084FE83D7070013F737008D476314F7001A
:10503000914711A089473E8572440561828079714C
:1050400022D60018232EA4FCF32710342326F4FEC6
:105050008327C4FE3E85325445618280011122CEF1
:1050600000102326A4FE2324B4FE832784FE73901D
:10507000173481473E85724405618280011106CE56
:1050800022CC00102326A4FE0325C4FEEFE0AFEAE5
:10509000AA873E85F240624405618280011122CEDA
:1050A00000102326A4FEB70700809387C7063E851D
:1050B000724405618280011122CE00102326A4FED5
:1050C000938741823E85724405618280011122CE20
:1050D00000102326A4FE81473E857244056182802C
:1050E000411122C60008B7170120938747F03E857B
:1050F000324441018280397106DE22DC80002326A1
:10510000A4FC0325C4FC593F2326A4FE0325C4FCAC
:10511000753F2324A4FE0325C4FC713F2322A4FE73
:10512000C1372320A4FE832704FE9C43832584FEED
:10513000032544FE8297232EA4FC0327C4FDB70752
:105140000040F98F99E3FD5725A08327C4FD63C470
:105150000700FD5731A80325C4FEEF00700BAA8796
:105160003E878327C4FD93F7F7038507B357F702FC
:105170003E85F250625421618280011106CE22CC1C
:1051800000102326A4FE2324B4FE0325C4FEA53765
:10519000AA873E85F240624405618280011122CED9
:1051A00000102326A4FEB7070080938707063E85DC
:1051B000724405618280011122CE00102326A4FED4
:1051C000938741823E85724405618280011122CE1F
:1051D00000102326A4FE91473E857244056182801B
:1051E000411122C60008B7170120938747F03E857A
:1051F000324441018280397106DE22DC80002326A0
:10520000A4FC0325C4FC593F2326A4FE0325C4FCAB
:10521000753F2324A4FE0325C4FC713F2322A4FE72
:10522000C1372320A4FE832704FE9C43832584FEEC
:10523000032544FE8297232EA4FC0327C4FDB70751
:105240000040F98F99E3FD5721A88327C4FD63C46B
:105250000700FD5731A00325C4FEEF00607BAA873D
:105260003E85F250625421618280011106CE22CC2B
:1052700000102326A4FE2324B4FE0325C4FEA53F6C
:10528000AA873E85F240624405618280011122CEE8
:1052900000102326A4FEB7070080938707463E85AB
:1052A000724405618280011122CE00102326A4FEE3
:1052B000B70700809387C7463E85724405618280A8
:1052C000011122CE00102326A4FE938741823E8541
:1052D000724405618280011122CE00102326A4FEB3
:1052E000B1473E85724405618280411122C60008A3
:1052F000938741823E85324441018280411122C61A
:105300000008A1473E85324441018280411122C6F6
:105310000008B727F400938707403E8532444101D7
:105320008280411122C60008B78700103E853244B2
:1053300041018280411122C60008B71701209387DE
:1053400047F03E85324441018280011122CE001097
:105350002326A4FE2324B4FE832784FE9C47032730
:10536000C4FE6369F700832784FEDC470327C4FE7D
:1053700063F4E700FD5729A8832784FE9843832719
:10538000C4FE3307F702832784FEDC43B357F702DA
:105390003E85724405618280397106DE22DC800020
:1053A0002326A4FC8327C4FC3E85F53D2326A4FECA
:1053B000B13F2324A4FE99372322A4FE9D37232046
:1053C000A4FE032704FE832744FEBA97232EF4FC91
:1053D0008327C4FCDC433E85DD2B8327C4FD984333
:1053E000C167F98F91CB8327C4FD9843C177FD171F
:1053F0007D8F8327C4FD98C38327C4FE91CB832769
:10540000C4FD9843B70702005D8F8327C4FD98C38E
:105410008327C4FC9C43D8438327C4FC832584FE94
:105420003E8502978327C4FC9C473E854D2301009F
:10543000F2506254216182801D7186CEA2CC801010
:105440002326A4FA0325C4FAB93D2326A4FE032586
:10545000C4FA2D3D2324A4FE0325C4FA4535232296
:10546000A4FE0325C4FA51352320A4FE0325C4FA63
:105470009D35232EA4FC0325C4FA9935232CA4FCC6
:10548000553D232AA4FC832744FD9C43832544FEE9
:10549000032504FE82972328A4FC832744FD9C4314
:1054A0008325C4FD032584FD82972326A4FC0327BE
:1054B00004FDC1677D8FC1676377F700032584FE14
:1054C000812BAA87D9A8032704FDB70702007D8F87
:1054D000B70702006365F7008327C4FE19A083277E
:1054E00084FE3E8535232324A4FC032704FDB7074F
:1054F00004007D8FB70704006365F700832784FCF1
:1055000069A8832704FD9D8B85072322F4FC83274C
:1055100004FD93F7073F9183850786072320F4FC5A
:10552000032704FD8567938707C07D8F9307F03FAE
:1055300063E4E700FD5795A0032704FD8567938783
:1055400007C0F98FA9830547B317F700232EF4FA94
:10555000032784FC832744FC3347F702832704FC9A
:105560003307F7028327C4FBB347F702232CF4FA6F
:105570008327C4FC13F707109307F00F63F5E700C8
:10558000832784FB19A8032784FB8327C4FC93F794
:10559000F70385078607B357F7023E85F640664452
:1055A00025618280397106DE22DC80002326A4FC7E
:1055B0002324B4FCFD572326F4FEB707008093C7CD
:1055C000F7FF2324F4FE930730042322F4FEADA05A
:1055D0008326C4FC832744FE13975700B707012096
:1055E00093870766BA97BE85368585332320A4FE48
:1055F000032704FEFD57630CF702032704FE8327ED
:1056000084FC1D8F9357F7413D8FB307F740232E3E
:10561000F4FC0327C4FD832784FE635AF700832725
:1056200044FE2326F4FE8327C4FD2324F4FE8327AF
:1056300044FEFD172322F4FE832744FEE3DA07F835
:105640008327C4FE3E85F2506254216182807971C5
:1056500006D622D40018232EA4FC232CB4FC232A23
:10566000C4FC8327C4FD9C4313F787FF8327C4FD35
:1056700098C38327C4FD9843832744FD9C4B9D8B8F
:105680005D8F8327C4FD98C38327C4FD9C4313F714
:10569000F7C08327C4FD98C38327C4FD984383279D
:1056A00044FDDC4B920793F7073F5D8F8327C4FDD2
:1056B00098C38327C4FD9843FD779387F73F7D8F79
:1056C0008327C4FD98C38327C4FD9843832744FDE3
:1056D0009C4F9396A7008567938707C0F58F5D8FD2
:1056E0008327C4FD98C3832744FDDC4F63DB070297
:1056F000832784FD9C4313E70710832784FD98C309
:10570000832784FD9C4313F707FC832784FD98C3FC
:10571000832784FD9C4313E71700832784FD98C3E8
:105720002DA8832784FD9C4313F7F7EF832784FD7F
:1057300098C3832784FD9C4313F707FC832784FDCC
:1057400098C3832784FD9843832744FDDC4F93F758
:10575000F7035D8F832784FD98C38327C4FD984397
:10576000B707FCFFFD177D8F8327C4FD98C3930700
:1057700004FE3E86854513854181EFD01FDA03265E
:1057800004FE832644FE114581453307A6003A886E
:105790003338C800B387B600B306F800B6872324B1
:1057A000E4FE2326F4FE09A8930704FE3E86854501
:1057B00013854181EFD07FD6032704FE832744FE63
:1057C0008326C4FE3E8663ECC6008326C4FE3E8666
:1057D000E39CC6FC832684FEBA87E3F7F6FC01004F
:1057E0008327C4FD9C43E3DD07FE01000100B250A6
:1057F0002254456182805D7186C6A2C48008232E32
:10580000A4FA232CB4FA0325C4FBEFF0DFA9232666
:10581000A4FE0325C4FBEFF07FA72324A4FE0325E9
:10582000C4FBEFF0BFAD2322A4FE0325C4FBEFF0C1
:105830009FAA2320A4FEEFF0DFAE232EA4FC0327B3
:10584000C4FD832744FEBA97232CF4FC0327C4FD30
:10585000832704FEBA97232AF4FC832784FD984308
:10586000C167F98F91CB832784FD9843C177FD17DA
:105870007D8F832784FD98C3832784FD9843B707D2
:105880000200F98F81C78327C4FE19A0832784FEF5
:105890003E85BD2A2328A4FC032704FDBA8786077A
:1058A000BA9713D7F7410D8BBA9789873E8783271D
:1058B00084FB63CBE702032704FDBA878A07BA9704
:1058C00013D7F7410D8BBA9789873E87832784FBCF
:1058D000634CF700832784FD9843B70704005D8F6E
:1058E000832784FD98C3B1A0832584FB032504FD91
:1058F00055392326A4FC0327C4FCFD576302F70295
:105900008327C4FC13975700B707012093870766C6
:10591000BA973E86832544FD032584FD0D3B11A8DF
:10592000832784FD9843B70704005D8F832784FD98
:1059300098C3832784FD9843C1675D8F832784FDC7
:1059400098C30325C4FBEFF03FAFAA873E85B6405E
:10595000264461618280411122C60008B787001089
:105960003E85324441018280797106D622D40018E6
:10597000232EA4FC232CB4FCF93FAA872326F4FE93
:10598000032784FD8327C4FEBA979C433E85B2500B
:10599000225445618280797106D622D40018232EC4
:1059A000A4FC232CB4FC232AC4FC7537AA87232625
:1059B000F4FE032784FD8327C4FEBA973E8783271E
:1059C00044FD1CC33E85B2502254456182807971EA
:1059D00006D622D40018232EA4FC8327C4FD232638
:1059E000F4FE31A88327C4FE98438327C4FEDC431A
:1059F0003E8502978327C4FE9C472326F4FE832717
:105A0000C4FEEDF301000100B250225445618280D2
:105A1000011106CE22CC00102326A4FE8327C4FE4B
:105A20009C439C430325C4FE8297AA873E85F2408F
:105A3000624405618280797106D622D40018232E33
:105A4000A4FC232CB4FC8327C4FDDC433E854137F2
:105A50008327C4FD9C43DC43832584FD0325C4FDCB
:105A600082972326A4FE8327C4FD9C473E85853765
:105A70008327C4FE3E85B2502254456182800111C5
:105A800006CE22CC00102326A4FE8327C4FE9C430E
:105A9000DC570325C4FE8297AA873E85F240624404
:105AA00005618280011122CE00102326A4FE8327E7
:105AB000C4FE89EB0327C4FE0A0793870181BA97C6
:105AC0009C4311A081473E8572440561828001118B
:105AD00022CE0010F32740F12326F4FE8327C4FED4
:105AE0003E85724405618280011122CE001023267A
:105AF000A4FE0100FDBF0000000000000000000047
:105B00006FD05FDF6FD01FDF6FD0DFDE6FD07FE140
:105B10006FD05FDE6FD01FDE6FD0DFDD6FD09FEF05
:105B20006FD05FDD6FD01FDD6FD0DFDC6FD09FDC0B
:105B30006FD05FDC6FD01FDC6FD0DFDB6FD09FDBFF
