:020000042001D9
:100000009711FF5F938181C897020000938282015C
:100010007390523093021000638402007350107C7E
:100020009702000093824211739052301301000036
:1000300063140100138181F3732540F1814213039E
:100040000040137101FF6385A2001A918502D5BF9C
:10005000970000009380C00763830000829073259F
:1000600040F181450146ED209300000063830000CC
:100070008290970200009382C20073905230032353
:100080000000F5BF000000008280A14673B3063077
:10009000914263C555001376350011CA230005004F
:1000A0000505FD15E347B0FE731003308280232061
:1000B00005001105F115E34EB0FC7310033082808A
:1000C000232003001103E34D73FE82800684970210
:1000D000FFDF938222F3638C02049702FFDF938297
:1000E00062F2F32740F1A14673B006300A8397030A
:1000F000FFDF938323318A9363037300D1376398BF
:1001000057021703FF5F1303E3EF9703FF5F938328
:10011000633A630373006D371703FFE7130383EE3E
:100120009703FFE7938303EE63037300513FA280BD
:1001300082800000F322203473231034F323303400
:10014000D5BF411122C6000801003244410182801E
:1001500006849711FF5F938161B3930200006311DE
:10016000550E97420000938262261703FF5F130328
:1001700063E99703FF5F9383E333638C6200635A01
:10018000730003A5020091022320A3001103E34A98
:1001900073FE97120000938262C01703FFE71303F8
:1001A00063E69703FFE79383E3E5638C6200635A9A
:1001B000730003A5020091022320A3001103E34A68
:1001C00073FE0F10000097120000938222BD1703E8
:1001D000FF5F130323E39703FF5F9383A3E2638C23
:1001E0006200635A730003A5020091022320A3005A
:1001F0001103E34A73FE0F1000001703FF5F1303A0
:10020000632B938381B3635773002320030011038F
:10021000E34D73FE1702FF5F1302C22911C202965B
:100220001715000013058522EF10C01EEF102025C2
:10023000171500001305454FEF10C01DEF10404D7E
:100240000937FD5673B0463073B04634F32710308B
:10025000372704007D8F09C773B0363073B026305E
:10026000370704007D8F19C373B006184167130761
:100270008702F98F89CBF32700300967D98F7390F4
:10028000073073503000F327103037072000F98F04
:1002900099C7F327003093E707207390073005458F
:1002A000970500009385050A170600001306C60986
:1002B0003120EF10C016A28082808280411106C2D8
:1002C000F32240F1130300006385620073005010B5
:0C02D000F5BFEF003066924041018280D3
:0802E000E802012014030120D3
:1002E800011106CE22CC0010EF30C0792326A4FEDF
:1002F8008327C4FE99C7B707008013858747EF3067
:1003080030010100F240624405618280011106CE8D
:1003180022CC0010EF3000772326A4FE8325C4FEEC
:10032800B707008013858747EF3070680100F240F7
:06033800624405618280B1
:1003400048030120000000006C6962676C6F7373E2
:100350000000000054190120FA1A0120DE1A0120C1
:100360000000000000000000F21D0120261E0120F8
:10037000DC190120B61A0120521B0120041C0120A7
:10038000000000000000000000000000000000006D
:10039000000000000000000000000000000000005D
:1003A000B61C012088180120000000000000000099
:1003B0000000000000000000B62F01201C300120CA
:1003C0001C300120C82F01201C3001201C300120CE
:1003D0001C300120DA2F01201C3001201C300120AC
:1003E0001C300120EC2F01201C3001201C3001208A
:1003F0001C3001201C300120FE2F0120FE2F012087
:10040000FE2F0120FE2F0120FE2F0120FE2F0120B4
:10041000FE2F0120FE2F0120FE2F0120FE2F0120A4
:10042000FE2F0120FE2F0120FE2F0120FE2F012094
:10043000FE2F0120FE2F01207E300120B03301204D
:1004400094330120000000000000000000000000C4
:100450000000000060310120000000004033012056
:100460006A330120000000000000000000000000CE
:10047000000000000000000000000000000000007C
:100480000000000004340120000000000000000013
:1004900000000000000000000000000020340120E7
:1004A00090340120D63401203C350120B2350120A2
:1004B000C8350120DC350120F23501200636012047
:1004C00068360120CA3601202A3701204A37012028
:1004D00090370120BE370120DC370120FC37012096
:1004E0000100000020000000001BB70000366E0174
:1004F000010000001F000000030000003F0000009A
:10050000010000002000000000366E01006CDC02DB
:10051000030000001F000000020000003F00000078
:100520000100000010000000808D5B00001BB70080
:10053000000000001F000000030000003F0000005A
:100540000100000010000000001BB70000366E0123
:10055000010000001F000000020000003F0000003A
:10056000010000001000000000366E01006CDC028B
:10057000030000001F000000020000001F00000038
:100580000100000008000000808D5B00001BB70028
:10059000000000001F000000030000001F0000001A
:1005A0000100000008000000001BB70000366E01CB
:1005B000010000001F000000020000001F000000FA
:1005C000010000000800000000366E01006CDC0233
:1005D000030000001F000000020000000F000000E8
:1005E0000100000004000000808D5B00001BB700CC
:1005F000000000001F000000030000000F000000CA
:100600000100000004000000001BB70000366E016E
:10061000010000001F000000020000000F000000A9
:10062000010000000400000000366E01006CDC02D6
:10063000030000001F00000002000000070000008F
:100640000100000002000000808D5B00001BB7006D
:10065000000000001F000000020000000F0000006A
:100660000100000002000000001BB70000366E0110
:10067000010000001F000000010000000F0000004A
:10068000010000000200000000366E01006CDC0278
:10069000030000001F000000010000000700000030
:1006A0000200000001000000808D5B00001BB7000D
:1006B000000000001F000000010000000700000013
:1006C0000200000001000000001BB70000366E01B0
:1006D000010000001F0000000100000003000000F6
:1006E000020000000100000000366E01006CDC0218
:1006F000030000001F00000003000000FFFFFFFFD9
:100700000400000001000000808D5B00001BB700AA
:10071000000000001F0000000300000000000000B7
:100720000400000001000000001BB70000366E014D
:10073000010000001F00000003000000FFFFFFFF9A
:10074000040000000100000000366E01006CDC02B5
:10075000030000001F00000002000000FFFFFFFF79
:100760000600000001000000808D5B00AAC2A2000C
:100770000000000023000000010000000200000053
:100780000600000001000000AAC2A200001BB70082
:10079000000000001700000003000000FFFFFFFF43
:1007A0000600000001000000001BB7000024F40058
:1007B000010000002F00000003000000FFFFFFFF0A
:1007C00006000000010000000024F40080A81201CF
:1007D000010000001700000002000000FFFFFFFF03
:1007E000060000000100000080A8120155854501A7
:1007F000020000002300000002000000FFFFFFFFD6
:100800000800000001000000808D5B00001BB700A5
:10081000000000001F00000003000000FFFFFFFFBA
:100820000800000001000000001BB70000366E0148
:10083000010000001F00000002000000FFFFFFFF9A
:10084000080000000100000000366E01006CDC02B0
:10085000030000001F00000001000000FFFFFFFF79
:100860000A00000001000000808D5B00007C920007
:10087000000000002700000003000000FFFFFFFF52
:100880000A00000001000000007C9200001BB7007D
:10089000000000001300000002000000FFFFFFFF47
:1008A0000A00000001000000001BB70000F824014E
:1008B000010000002700000002000000FFFFFFFF12
:1008C0000A0000000100000000F8240100366E015B
:1008D000010000001300000001000000FFFFFFFF07
:1008E0000A0000000100000000366E0100F049021D
:1008F000030000002700000001000000FFFFFFFFD1
:100900000C00000001000000808D5B0000127A00E6
:10091000000000002F00000003000000FFFFFFFFA9
:100920000C0000000100000000127A00001BB7005C
:10093000000000001700000002000000FFFFFFFFA2
:100940000C00000001000000001BB7000024F400B0
:10095000010000002F00000002000000FFFFFFFF69
:100960000C000000010000000024F40000366E01BD
:10097000010000001700000001000000FFFFFFFF62
:100980000C0000000100000000366E0180C3C901A8
:10099000030000002F00000001000000FFFFFFFF28
:1009A0000C0000000100000080C3C9010048E801FC
:1009B000030000002F00000001000000FFFFFFFF08
:1009C0000E00000001000000808D5B00B6A16800F1
:1009D000000000003700000003000000FFFFFFFFE1
:1009E0000E00000001000000B7A16800001BB70066
:1009F000000000001B00000002000000FFFFFFFFDE
:100A00000E00000001000000001BB7006D43D10084
:100A1000010000003700000002000000FFFFFFFFA0
:100A20000E000000010000006E43D10000366E0190
:100A3000010000001B00000001000000FFFFFFFF9D
:100A40000E0000000100000000366E01DB86A201EE
:100A5000030000003700000001000000FFFFFFFF5F
:100A60001000000001000000808D5B00001BB7003B
:100A7000000000001F00000002000000FFFFFFFF59
:100A80001000000001000000001BB70000366E01DE
:100A9000010000001F00000001000000FFFFFFFF39
:100AA0001200000001000000808D5B00AAC2A200BD
:100AB000000000002300000002000000FFFFFFFF15
:100AC0001200000001000000ABC2A200001BB70032
:100AD000000000001100000001000000FFFFFFFF08
:100AE0001200000001000000001BB7005585450101
:100AF000010000002300000001000000FFFFFFFFD5
:100B00001400000001000000808D5B00007C92005A
:100B1000000000002700000002000000FFFFFFFFB0
:100B20001400000001000000007C9200001BB700D0
:100B3000000000001300000001000000FFFFFFFFA5
:100B40001400000001000000001BB70000F82401A1
:100B5000010000002700000001000000FFFFFFFF70
:100B60001600000001000000808D5B00E82A85006F
:100B7000000000002B00000002000000FFFFFFFF4C
:100B80001600000001000000E92A8500001BB700E4
:100B9000000000001500000001000000FFFFFFFF43
:100BA0001600000001000000001BB700D1550A012B
:100BB000010000002B00000001000000FFFFFFFF0C
:100BC0001800000001000000808D5B0000127A0018
:100BD000000000002F00000002000000FFFFFFFFE8
:100BE000180000000100000000127A00001BB7008E
:100BF000000000001700000001000000FFFFFFFFE1
:100C00001800000001000000001BB7000024F400E1
:100C1000010000002F00000001000000FFFFFFFFA7
:100C20001A00000001000000808D5B0027AE7000FC
:100C3000000000003300000002000000FFFFFFFF83
:100C40001A0000000100000028AE7000001BB70071
:100C5000000000001900000001000000FFFFFFFF7E
:100C60001A00000001000000001BB7006658E100F8
:100C7000010000003300000001000000FFFFFFFF43
:100C80001C00000001000000808D5B00B6A1680020
:100C9000000000003700000002000000FFFFFFFF1F
:100CA0001C00000001000000B7A16800001BB70095
:100CB000000000001B00000001000000FFFFFFFF1C
:100CC0001C00000001000000001BB7006D43D100B4
:100CD000010000003700000001000000FFFFFFFFDF
:100CE0001E00000001000000808D5B0000A8610074
:100CF000000000003B00000002000000FFFFFFFFBB
:100D00001E0000000100000000A86100001BB700E9
:100D1000000000001D00000001000000FFFFFFFFB9
:100D20001E00000001000000001BB7000050C300BF
:100D3000010000003B00000001000000FFFFFFFF7A
:100D40002000000001000000808D5B00001BB70048
:100D5000000000001F00000001000000FFFFFFFF77
:100D6000183B0120B83B0120763F01200000000025
:100D70000000008076380120FA3801207639012001
:100D8000EA390120E840012016410120704301208A
:040D90008E4301206D
:100E0000011122CE0010232604FE8327C4FE739016
:100E10000730F32740302324F4FE8327C4FE739069
:100E20004730032784FE856793870780D98F232463
:100E3000F4FE832784FE73904730B727000C23A06D
:100E40000700B727000C910723A007008327C4FEE3
:100E500093E787002326F4FE8327C4FE73900730B0
:100E600081473E85724405618280011106CE22CC05
:100E70000010B707200C91079C432326F4FE83271C
:100E8000C4FEFD172324F4FEB707008093860755A0
:100E9000032784FEBA878607BA978A07B697DC438A
:100EA00091CFB707008093860755032784FEBA8742
:100EB0008607BA978A07B6979C438297B707200C94
:100EC00091070327C4FE98C30100F2406244056104
:100ED0008280011122CE0010232604FE8327C4FE47
:100EE00073900730F32740302324F4FE832784FED9
:100EF00093E707082324F4FE832784FE739047308A
:100F00008327C4FE93E787002326F4FE8327C4FECD
:100F1000739007300100724405618280011122CE76
:100F20000010F32700302326F4FE8327C4FEA18B94
:100F300095E7232404FE832784FE73904730B71778
:100F40000120938707F873905730A1472326F4FEBA
:100F50008327C4FE73900730814711A0FD573E855B
:100F60007244056182800000000000000000000063
:100F70000000000000000000000000000000000071
:100F80001D7186CE96CC9ACA9EC8A2C6AAC4AEC20D
:100F9000B2C036DE3ADC3EDA42D846D672D476D2D9
:100FA0007AD07ECE8010F32720342326F4FA8327CC
:100FB000C4FA63DA07020327C4FAB70700809D0763
:100FC0006314F700792E05A00327C4FAB707008041
:100FD0008D07630AF7000327C4FAB7070080AD073F
:100FE0006313F70059350100F640E6425643C64305
:100FF0003644264596450646F2566257D257425821
:10100000B258225E925E025FF24F2561730020307B
:1010100000000000000000000000000000000000D0
:1010200000000000000000000000000000000000C0
:10103000000000000000411122C60008B787001020
:10104000A107370702001307176798C30100B78786
:101050000010A1079C43B7870010A1079443B787EE
:101060000010A1074167558F98C3B707008037D795
:10107000121323A4E74801003244410182807971B0
:1010800022D60018232CA4FC232EB4FCF3274030D6
:101090002326F4FEF32740302324F4FE8327C4FEE6
:1010A00093F7F7F72326F4FE832784FE93F7F7F7E9
:1010B0002324F4FE8327C4FE73904730B7070080D3
:1010C00083A707499843DC432320E4FE2322F4FE50
:1010D000032604FE832644FE032584FD8325C4FDE8
:1010E0003307A6003A883338C800B387B600B30682
:1010F000F800B6872320E4FE2322F4FEB707008021
:1011000083A6C748032704FE832744FE98C2DCC297
:101110008327C4FE93E707082326F4FE832784FE73
:10112000739047308327C4FE7390473001003254D8
:1011300045618280011106CE22CC0010ED3DF93BC5
:10114000493B7D39B7270110A1079843D547BE8693
:101150008547B397D700BE86B7270110A107558FE3
:1011600098C3B7270110A1079843CD47BE8685478E
:10117000B397D700BE86B7270110A107558F98C334
:10118000B727011091079843DD47BE868547B3977F
:10119000D700BE86B72701109107558F98C3DD474A
:1011A0002326F4FE85472324F4FEB7270110910778
:1011B0009843832784FE8546B397F600BE86B727FB
:1011C00001109107558F98C38327C4FE13877700BA
:1011D000B707008093860755BA878607BA978A07AC
:1011E000B6970547D8C38327C4FE13877700B70790
:1011F000008093860755BA878607BA978A07B697FD
:101200001D4798C78327C4FE13877700B707008060
:1012100093860755BA878607BA978A07B69737170E
:1012200001201307473898C3B727000C984383273A
:10123000C4FEA1078546B397F600BE86B727000C0B
:10124000558F98C30327C4FEB7070003A107BA97B9
:101250008A073E879D471CC3B72701109387070263
:1012600098438327C4FE8546B397F600BE86B7270A
:10127000011093870702558F98C321658145013579
:10128000B707008083A7074BC1CFB7270110B1076D
:101290009843CD47BE868547B397D700BE86B7270C
:1012A0000110B107358F98C3B707008023A8074AFC
:1012B000B727000C98438327C4FEA1078546B39740
:1012C000F600BE86B727000C558F98C30327C4FECF
:1012D000B7070003A107BA978A073E879D471CC33B
:1012E000B727011091079843DD47BE868547B3971E
:1012F000D700BE86B72701109107558F98C3B7272F
:1013000001109387070298438327C4FE8546B3974D
:10131000F600BE86B727011093870702558F98C342
:101320001120B9BF411122C60008B707008083A76A
:10133000474B85C7B7270110B1079843D547BE86ED
:101340008547B397D700BE86B7270110B107358F01
:1013500098C3B707008023AA074A0100324441011D
:101360008280411106C622C4000841658145013BC7
:10137000B7070080054723AAE74A0100B24022448C
:1013800041018280411122C60008B72701109387CE
:1013900007029443B727011093870702370780FF9E
:1013A0007D17758F98C3B727011091079443B7270E
:1013B00001109107370780FF7D17758F98C3B727F6
:1013C000000C9443B727000C370700801347F7FF42
:1013D000758F98C3B7270110938747029C433E87B8
:1013E000B707008023A8E74AB707008003A7074B89
:1013F000B72701109387470298C3B727000C94437F
:10140000B727000C37070080558F98C3010032447E
:1014100041018280AA85814601460145C1A0411152
:1014200022C406C697070000938747132A8499C3EE
:1014300081451D22170500000325C5931C5591C346
:1014400082972285EF20D076411122C426C217F45C
:10145000FFFF1304A4E997F4FFFF938424E9058CAC
:1014600006C6098411E4B2402244924441018280BC
:101470007D1493172400A6979C438297E5B74111EA
:1014800022C426C217F4FFFF1304C4E597F4FFFF3C
:10149000938444E5818C4AC006C68984014963155A
:1014A000990217F4FFFF1304E4E397F4FFFF93841A
:1014B00064E3818C89840149631D9900B240224410
:1014C00092440249410182801C400509110482971F
:1014D000F9B71C40050911048297F9BFAA8817F5CE
:1014E000FE5F1305A5FD1C4191EF17F7FE5F130783
:1014F000A7FD18C113050000BA8709C51C412324A4
:10150000F708BA87D8437D487D556346E804638D64
:10151000080203A8870863000804131527004295F2
:1015200010C10323081005463316E6003363C300D9
:10153000232068102320D50889466397D800832686
:101540004810558E2322C810930617000A07D4C3EB
:10155000BA978CC701458280797156CA5AC85EC64F
:1015600062C406D622D426D24AD04ECE52CC66C20F
:101570002A8BAE8A97FBFE5F938B4BF4054C83A4BA
:101580000B0081CCC04083A984081309F4FF0A042E
:10159000338A89002694635F0900B2502254925422
:1015A0000259F249624AD24A424BB24B224C924C07
:1015B00045618280638C0A00639609007D19711A67
:1015C0007114D1BF8327CA07E39A57FFD8405C4004
:1015D0007D176318270323A22401EDD383AC4400B5
:1015E0006388090083A6091033172C01F98E89EE50
:1015F0008297D84083A70B00E31397F9E380F4FCAC
:10160000BDBF23220400D1BF83A649108325CAFF92
:10161000758F01E75A858297E9BF2E858297D1BFE2
:10162000011106CE22CC0010B707008083A7C74B5C
:10163000A9EFB7070080054723AEE74AB7070120A7
:101640001387872EB70701209387072E63F1E704DE
:10165000B70701209387072E2326F4FE31A883279E
:10166000C4FE9C432324F4FE832784FE82978327B1
:10167000C4FE91072326F4FE0327C4FEB70701200A
:101680009387872EE31DF7FC21A0010011A0010024
:10169000F240624405618280011106CE22CC001026
:1016A000B707008083A7074CA9EFB707008005475D
:1016B00023A0E74CB70701201387872EB707012027
:1016C0009387872E63F1E704B70701209387872E5E
:1016D0002326F4FE31A88327C4FE9C432324F4FE72
:1016E000832784FE82978327C4FE91072326F4FE76
:1016F0000327C4FEB70701209387872EE31DF7FC5D
:1017000021A0010011A00100F24062440561828025
:10171000411106C622C4000821370100B24022440C
:1017200041018280411106C622C40008B53701007C
:10173000B240224441018280011122CE00102326B2
:10174000A4FE0327C4FE938701816315F700B70742
:10175000000211A081473E8572440561828001111B
:1017600022CE00102326A4FE0327C4FE9387018106
:101770006314F700894711A081473E8572440561D3
:101780008280011122CE00102326A4FE2324B4FE61
:10179000832784FE91E7B70700809387070921A874
:1017A000032784FE85476317F700B70700809387F8
:1017B000070911A081473E857244056182800111AD
:1017C00022CE00102326A4FE2324B4FE832784FE09
:1017D00099E38D4709A8032784FE85476314F70022
:1017E0009D4711A081473E857244056182805D71ED
:1017F00086C6A2C4CAC2CEC052DE56DC5ADA5ED851
:1018000062D666D48008232EA4FA8327C4FB3E85C3
:1018100025372326A4FC0327C4FCB167F117BA9728
:101820009C432324F4FC0327C4FCB167E117BA9757
:101830009C432322F4FC0327C4FCB167F117BA9739
:101840009C43032784FCE318F7FC832784FC3E8C2D
:10185000814C93190C000149832744FC3E8A814A3C
:10186000336B4901B3EB59015A87DE873A85BE8550
:10187000B640264416498649725AE25A525BC25B08
:10188000325CA25C61618280797106D622D44AD230
:101890004ED00018232EA4FC232CB4FC2328C4FC17
:1018A000232AD4FC8327C4FD2326F4FE8327C4FE09
:1018B0003E8559352324A4FE832784FD8E073E8769
:1018C000832784FE3E9791679107BA973E87FD571D
:1018D0001CC3832784FD8E073E87832784FE3E97A3
:1018E0009167BA973E87832704FD1CC3832744FD75
:1018F00013D907008149832784FD8E073E878327FC
:1019000084FE3E9791679107BA974A8798C38147AB
:101910003E85B2502254125982594561828001118C
:1019200006CE22CC0010232604FEF32740F1232606
:10193000F4FE8327C4FE3E85EF20D00E2324A4FEB0
:10194000032584FEEF20B00BAA873E85F240624457
:1019500005618280397106DE22DC80002326A4FC2A
:101960000325C4FCED3B2324A4FE8327C4FC2322CF
:10197000F4FE832744FEDC43A9EF232604FE81A066
:101980008325C4FE0325C4FCED3B2320A4FE832550
:10199000C4FE0325C4FC2535232EA4FC832704FEA6
:1019A0009C43DC4F8326C4FC01468325C4FD0325EC
:1019B00004FE82978327C4FE85072326F4FE0327AF
:1019C000C4FE832784FEE34DF7FA832744FE0547D0
:1019D000D8C30100F250625421618280397106DE61
:1019E00022DC80002326A4FC2324B4FC2322C4FC94
:1019F0002320D4FCFD572326F4FEEF108041232042
:101A0000A4FE232404FE213F232EA4FC0325C4FCB2
:101A1000B933232CA4FC032704FE85476308F70091
:101A2000832704FE81C78327C4FE49A0232204FE26
:101A300091A0832544FE0325C4FC5133232AA4FC32
:101A4000832544FE0325C4FC2D3B2324A4FE032749
:101A5000C4FD832784FE6318F700032784FC8327D3
:101A600044FD6300F702232404FE832744FE850718
:101A70002322F4FE032744FE832784FDE34BF7FA79
:101A800011A00100832784FE85C3832784FE9C4325
:101A9000DC4F832604FC032644FC832584FC0325B9
:101AA00084FE82972326A4FE8327C4FE3E85F2503F
:101AB000625421618280797122D60018232EA4FC01
:101AC000232CB4FC232AC4FC2328D4FCFD57232652
:101AD000F4FE8327C4FE3E853254456182800111A5
:101AE00006CE22CC00102326A4FEEF108032AA8757
:101AF0003E85F240624405618280797106D622D427
:101B00000018232EA4FC232CB4FCFD572326F4FE3E
:101B100039352324A4FE832784FE95C3032784FD3F
:101B2000854763E0E702832784FE9C43DC438325EB
:101B300084FD032584FE82972326A4FE21A00100B4
:101B400011A001008327C4FE3E85B2502254456196
:101B50008280397106DE22DC80002326A4FC232447
:101B6000B4FCFD572326F4FE832784FCC9C7232435
:101B700004FE75332320A4FE0325C4FCCD36232E9A
:101B8000A4FC232204FE91A0832544FE0325C4FC6B
:101B90003D31232CA4FC832544FE0325C4FCD5360B
:101BA0002324A4FE032704FE832784FE6318F70082
:101BB000032784FC832784FD6300F702232404FEAB
:101BC000832744FE85072322F4FE032744FE832750
:101BD000C4FDE34BF7FA11A00100832784FE81CFF7
:101BE000832784FE9C43DC53832584FC032584FEE9
:101BF00082972326A4FE8327C4FE3E85F2506254BA
:101C000021618280397106DE22DC80002326A4FC5B
:101C10002324B4FCFD572326F4FE832784FCC9C784
:101C2000232404FEED392320A4FE0325C4FC053E35
:101C3000232EA4FC232204FE91A0832544FE032529
:101C4000C4FCB53E232CA4FC832544FE0325C4FC20
:101C50000D3E2324A4FE032704FE832784FE63187D
:101C6000F700032784FC832784FD6300F702232405
:101C700004FE832744FE85072322F4FE032744FE47
:101C80008327C4FDE34BF7FA11A00100832784FEEC
:101C900081CF832784FE9C439C57832584FC0325A6
:101CA00084FE82972326A4FE8327C4FE3E85F2503D
:101CB000625421618280797106D622D40018232EC5
:101CC000A4FC232CB4FC232AC4FCFD572326F4FED9
:101CD0008327C4FD2324F4FE0325C4FDB13C232245
:101CE000A4FE032784FD91476300F70C032784FDBE
:101CF000914763C0E70E032784FD8D476305F70610
:101D0000032784FD8D4763C6E70C032784FD8547C1
:101D10006308F700032784FD89476302F70255A88B
:101D2000832744FDCDCB032584FED1342A87AE879B
:101D3000832644FD98C2DCC2232604FE69A88327BB
:101D400044FDC1CF832744FD9C432320F4FE832719
:101D500004FE8A073E87832744FEBA9723A0070024
:101D6000232604FE9DA8832744FDB5CB832744FD8D
:101D70009C432320F4FE832704FE8A073E878327A3
:101D800044FEBA973E8785471CC30F008004832713
:101D900004FE8A073E87832744FEBA979C43232686
:101DA000F4FE232604FE25A8232604FE832744FDF3
:101DB0008DCB832744FD9C432320F4FE832704FE20
:101DC0008A073E87832744FEBA979C432326F4FE66
:101DD00009A8010001A8010031A0010021A0010013
:101DE00011A001008327C4FE3E85B25022544561F4
:101DF0008280797106D622D40018232EA4FC232CCD
:101E0000B4FCEF20C044AA872326F4FE9307C4FE47
:101E10003E8689450325C4FD793DAA873E85B2509B
:101E2000225445618280797106D622D40018232E6F
:101E3000A4FC232CB4FCEF208041AA872326F4FEC7
:101E40009307C4FE3E868D450325C4FDAD35AA87A4
:101E50003E85B250225445618280011122CE00108D
:101E60002326A4FE0327C4FE938781816314F70011
:101E7000814711A0FD573E857244056182800111A2
:101E800022CE00102326A4FE0327C4FE938781815F
:101E90006317F700B727F4009387074011A0814725
:101EA0003E85724405618280011122CE00102326F6
:101EB000A4FE0327C4FE938781816317F700B70749
:101EC00000809387070911A081473E857244056110
:101ED0008280011122CE00102326A4FE0327C4FE17
:101EE000938781816314F700814711A081473E8564
:101EF000724405618280011122CE00102326A4FEC7
:101F00008327C4FE634AF0000327C4FE0A079387B1
:101F1000C180BA979C4311A081473E8572440561F8
:101F20008280011122CE0010F32740F12326F4FE17
:101F30008327C4FE3E85724405618280011122CE52
:101F40000010A147F3A707302326F4FE01007244D6
:101F500005618280011122CE0010A147F3B707303E
:101F60002326F4FE0100724405618280011122CE15
:101F70000010A147F3A747302326F4FE0100724466
:101F800005618280011122CE0010A147F3B74730CE
:101F90002326F4FE0100724405618280011122CEE5
:101FA000001093070008F3A747302326F4FE010032
:101FB000724405618280011122CE0010930700084F
:101FC000F3B747302326F4FE010072440561828096
:101FD000011122CE0010856793870780F3A7473051
:101FE0002326F4FE0100724405618280011122CE95
:101FF0000010856793870780F3B747302326F4FEE8
:102000000100724405618280797122D60018232E66
:10201000A4FC8327C4FD0547B317F7002326F4FE6D
:102020008327C4FEF3A747302324F4FE0100325473
:1020300045618280797122D60018232EA4FC832763
:10204000C4FD0547B317F7002326F4FE8327C4FE1B
:10205000F3B747302324F4FE0100325445618280F7
:10206000011106CE22CC00102326A4FE2324B4FEA8
:1020700013054006EF20401F011106CE22CC0010B0
:102080002326A4FE2324B4FE1305800CEF20C01DDC
:102090005D7186C696C49AC29EC022DE2ADC2EDA04
:1020A00032D836D63AD43ED242D046CE72CC76CA58
:1020B0007AC87EC680081305C012EF20E01A1D7191
:1020C00086CE96CC9ACA9EC8A2C6AAC4AEC2B2C0D8
:1020D00036DE3ADC3EDA42D846D672D476D27AD0B0
:1020E0007ECE80103D3D2A870A079387C180BA972C
:1020F0009C432326F4FA8327C4FA85C70325C4FA30
:1021000065332324A4FA832784FA83A7070E2322A6
:10211000F4FA832784FA83A7870D832544FA0D45B3
:1021200082970100F640E6425643C64336442645B0
:1021300096450646F2566257D2574258B258225E2A
:10214000925E025FF24F256173002030797106D6EE
:1021500022D40018232EA4FC232CB4FCD9332A87C4
:102160000A079387C180BA979C432326F4FEF3277E
:1021700020342324F4FE8327C4FE95C70325C4FE20
:1021800025332322A4FE832784FE93F7F73F0327FA
:1021900044FE9387870E8A07BA979C438325C4FD24
:1021A0000325C4FE82970100B2502254456182800B
:1021B0001D7186CE96CC9ACA9EC8A2C6AAC4AEC2CB
:1021C000B2C036DE3ADC3EDA42D846D672D476D297
:1021D0007AD07ECE8010B1332A870A079387C180D8
:1021E000BA979C432326F4FA8327C4FA85C70325AC
:1021F000C4FA5D392324A4FA832784FA83A7071439
:102200002322F4FA832784FA83A78713832544FAC9
:102210001D4582970100F640E6425643C6433644C8
:10222000264596450646F2566257D2574258B2584E
:10223000225E925E025FF24F256173002030011131
:1022400022CE00102326A4FE2324B4FE01007244F3
:1022500005618280797106D622D40018232EA4FC51
:10226000232CB4FC7D39AA873E8571312326A4FE38
:102270000325C4FEEF1020262320A4FE2322B4FE53
:10228000032704FE832744FE294581453306A70022
:1022900032883338E800B386B700B307D800BE866B
:1022A0003287B687BA853E860325C4FEEF10002923
:1022B0000100B250225445618280000000000000FD
:1022C000000000000000000000000000000000000E
:1022D00000000000000000000000000000000000FE
:1022E00000000000000000000000000000000000EE
:1022F00000000000000000000000000000000000DE
:10230000197186DE96DC9ADA9ED8A2D6AAD4AED20D
:10231000B2D0B6CEBACCBECAC2C8C6C6F2C4F6C225
:10232000FAC07EDE0001F53E2A870A079387C18046
:10233000BA979C432326F4FAF32720342324F4FA93
:10234000F32710342322F4FAF32730342320F4FA4D
:10235000F3275030232EF4F88327C4FAF5CB032556
:10236000C4FA9936232CA4F8832784FA93F7F73F0D
:10237000232AF4F8832784FA63DE070A032744F943
:10238000930700086312F702832784F983A787392C
:102390002326F4F8832784F983A707398325C4F813
:1023A000032544F982976DA0032744F9AD4763D70D
:1023B000E7008327C4F993F7F7039DEF832684F999
:1023C000032744F9BA878607BA978E07B69783A77B
:1023D00087092326F4F8832684F9032744F9BA876A
:1023E0008607BA978E07B69783A707098325C4F88F
:1023F000032544F98297A9A88327C4F913F7F703A3
:1024000089476317F704F32770302328F4F88327EC
:1024100084F983A7C70D2326F4F8832704F99C4386
:102420002324F4F8832784F88325C4F8032544F98A
:10243000829739A8032784F9832744F99387870E65
:102440008A07BA979C43832544F90325C4FA8297E7
:10245000F650E6525653C6533654265596550656F0
:10246000F6466647D6474648B648264E964E064F2D
:10247000F25F0961730020300000000000000000DE
:10248000000000000000000000000000000000004C
:10249000000000000000000000000000000000003C
:1024A000000000000000000000000000000000002C
:1024B000000000000000000000000000000000001C
:1024C000000000000000000000000000000000000C
:1024D00000000000000000000000000000000000FC
:1024E00000000000000000000000000000000000EC
:1024F00000001D7186CE96CC9ACA9EC8A2C6AAC4F8
:10250000AEC2B2C036DE3ADC3EDA42D846D672D42B
:1025100076D27AD07ECE8010EFF0BFA02A870A074D
:102520009387C180BA979C432326F4FA8327C4FA81
:102530008DC70325C4FAEFF03F972324A4FA83271D
:1025400084FA83A787212322F4FA832784FA83A7B6
:102550000721832544FA414582970100F640E6426F
:102560005643C6433644264596450646F2566257BC
:10257000D2574258B258225E925E025FF24F2561F6
:10258000730020301D7186CE96CC9ACA9EC8A2C612
:10259000AAC4AEC2B2C036DE3ADC3EDA42D846D673
:1025A00072D476D27AD07ECE8010EFF09F972A87B1
:1025B0000A079387C180BA979C432326F4FA83279E
:1025C000C4FA8DC70325C4FAEFF01F8E2324A4FAA2
:1025D000832784FA83A707232322F4FA832784FA24
:1025E00083A78722832544FA454582970100F64058
:1025F000E6425643C6433644264596450646F256BD
:102600006257D2574258B258225E925E025FF24F32
:102610002561730020301D7186CE96CC9ACA9EC863
:10262000A2C6AAC4AEC2B2C036DE3ADC3EDA42D896
:1026300046D672D476D27AD07ECE8010EFF07F8EDE
:102640002A870A079387C180BA979C432326F4FA06
:102650008327C4FA8DC70325C4FAEFF0FF8423242F
:10266000A4FA832784FA83A787242322F4FA8327F2
:1026700084FA83A70724832544FA494582970100F9
:10268000F640E6425643C64336442645964506463E
:10269000F2566257D2574258B258225E925E025F9B
:1026A000F24F2561730020301D7186CE96CC9ACAF8
:1026B0009EC8A2C6AAC4AEC2B2C036DE3ADC3EDABA
:1026C00042D846D672D476D27AD07ECE8010EFF041
:1026D0005F852A870A079387C180BA979C43232680
:1026E000F4FA8327C4FA8DC70325C4FAEFF0CFFBB1
:1026F0002324A4FA832784FA83A707262322F4FA43
:10270000832784FA83A78725832544FA4D4582973A
:102710000100F640E6425643C643364426459645F8
:102720000646F2566257D2574258B258225E925E1F
:10273000025FF24F2561730020301D7186CE96CC6A
:102740009ACA9EC8A2C6AAC4AEC2B2C036DE3ADCDD
:102750003EDA42D846D672D476D27AD07ECE801077
:10276000EFF02FFC2A870A079387C180BA979C4312
:102770002326F4FA8327C4FA8DC70325C4FAEFF0A1
:10278000AFF22324A4FA832784FA83A7872723227E
:10279000F4FA832784FA83A70727832544FA51454F
:1027A00082970100F640E6425643C643364426452A
:1027B00096450646F2566257D2574258B258225EA4
:1027C000925E025FF24F2561730020301D7186CE4C
:1027D00096CC9ACA9EC8A2C6AAC4AEC2B2C036DE01
:1027E0003ADC3EDA42D846D672D476D27AD07ECE61
:1027F0008010EFF00FF32A870A079387C180BA97FA
:102800009C432326F4FA8327C4FA8DC70325C4FA10
:10281000EFF08FE92324A4FA832784FA83A70729FA
:102820002322F4FA832784FA83A78728832544FA8E
:10283000554582970100F640E6425643C64336446A
:10284000264596450646F2566257D2574258B25828
:10285000225E925E025FF24F2561730020301D718F
:1028600086CE96CC9ACA9EC8A2C6AAC4AEC2B2C030
:1028700036DE3ADC3EDA42D846D672D476D27AD008
:102880007ECE8010EFF0EFE92A870A079387C18098
:10289000BA979C432326F4FA8327C4FA8DC70325ED
:1028A000C4FAEFF06FE02324A4FA832784FA83A705
:1028B000872A2322F4FA832784FA83A7072A832509
:1028C00044FA594582970100F640E6425643C64312
:1028D0003644264596450646F2566257D257425828
:1028E000B258225E925E025FF24F25617300203083
:1028F0001D7186CE96CC9ACA9EC8A2C6AAC4AEC284
:10290000B2C036DE3ADC3EDA42D846D672D476D24F
:102910007AD07ECE8010EFF0CFE02A870A07938727
:10292000C180BA979C432326F4FA8327C4FA8DC743
:102930000325C4FAEFF04FD72324A4FA832784FA9F
:1029400083A7072C2322F4FA832784FA83A7872BF3
:10295000832544FA5D4582970100F640E6425643DE
:10296000C6433644264596450646F2566257D25728
:102970004258B258225E925E025FF24F25617300A8
:1029800020301D7186CE96CC9ACA9EC8A2C6AAC413
:10299000AEC2B2C036DE3ADC3EDA42D846D672D497
:1029A00076D27AD07ECE8010EFF0AFD72A870A0792
:1029B0009387C180BA979C432326F4FA8327C4FAED
:1029C0008DC70325C4FAEFF02FCE2324A4FA832762
:1029D00084FA83A7872D2322F4FA832784FA83A716
:1029E000072D832544FA614582970100F640E642AF
:1029F0005643C6433644264596450646F256625728
:102A0000D2574258B258225E925E025FF24F256161
:102A1000730020301D7186CE96CC9ACA9EC8A2C67D
:102A2000AAC4AEC2B2C036DE3ADC3EDA42D846D6DE
:102A300072D476D27AD07ECE8010EFF08FCE2A87F5
:102A40000A079387C180BA979C432326F4FA832709
:102A5000C4FA8DC70325C4FAEFF00FC52324A4FAE6
:102A6000832784FA83A7072F2322F4FA832784FA83
:102A700083A7872E832544FA654582970100F64097
:102A8000E6425643C6433644264596450646F25628
:102A90006257D2574258B258225E925E025FF24F9E
:102AA0002561730020301D7186CE96CC9ACA9EC8CF
:102AB000A2C6AAC4AEC2B2C036DE3ADC3EDA42D802
:102AC00046D672D476D27AD07ECE8010EFF06FC523
:102AD0002A870A079387C180BA979C432326F4FA72
:102AE0008327C4FA8DC70325C4FAEFF0EFBB232474
:102AF000A4FA832784FA83A787302322F4FA832752
:102B000084FA83A70730832544FA69458297010038
:102B1000F640E6425643C6433644264596450646A9
:102B2000F2566257D2574258B258225E925E025F06
:102B3000F24F2561730020301D7186CE96CC9ACA63
:102B40009EC8A2C6AAC4AEC2B2C036DE3ADC3EDA25
:102B500042D846D672D476D27AD07ECE8010EFF0AC
:102B60004FBC2A870A079387C180BA979C432326C4
:102B7000F4FA8327C4FA8DC70325C4FAEFF0CFB265
:102B80002324A4FA832784FA83A707322322F4FAA2
:102B9000832784FA83A78731832544FA6D4582977A
:102BA0000100F640E6425643C64336442645964564
:102BB0000646F2566257D2574258B258225E925E8B
:102BC000025FF24F2561730020301D7186CE96CCD6
:102BD0009ACA9EC8A2C6AAC4AEC2B2C036DE3ADC49
:102BE0003EDA42D846D672D476D27AD07ECE8010E3
:102BF000EFF02FB32A870A079387C180BA979C43C7
:102C00002326F4FA8327C4FA8DC70325C4FAEFF00C
:102C1000AFA92324A4FA832784FA83A78733232226
:102C2000F4FA832784FA83A70733832544FA71458E
:102C300082970100F640E6425643C6433644264595
:102C400096450646F2566257D2574258B258225E0F
:102C5000925E025FF24F2561730020301D7186CEB7
:102C600096CC9ACA9EC8A2C6AAC4AEC2B2C036DE6C
:102C70003ADC3EDA42D846D672D476D27AD07ECECC
:102C80008010EFF00FAA2A870A079387C180BA97AE
:102C90009C432326F4FA8327C4FA8DC70325C4FA7C
:102CA000EFF08FA02324A4FA832784FA83A70735A3
:102CB0002322F4FA832784FA83A78734832544FAEE
:102CC000754582970100F640E6425643C6433644B6
:102CD000264596450646F2566257D2574258B25894
:102CE000225E925E025FF24F2561730020301D71FB
:102CF00086CE96CC9ACA9EC8A2C6AAC4AEC2B2C09C
:102D000036DE3ADC3EDA42D846D672D476D27AD073
:102D10007ECE8010EFF0EFA02A870A079387C1804C
:102D2000BA979C432326F4FA8327C4FA8DC7032558
:102D3000C4FAEFF06F972324A4FA832784FA83A7B9
:102D400087362322F4FA832784FA83A7073683255C
:102D500044FA794582970100F640E6425643C6435D
:102D60003644264596450646F2566257D257425893
:102D7000B258225E925E025FF24F256173002030EE
:102D80001D7186CE96CC9ACA9EC8A2C6AAC4AEC2EF
:102D9000B2C036DE3ADC3EDA42D846D672D476D2BB
:102DA0007AD07ECE8010EFF0CF972A870A079387DC
:102DB000C180BA979C432326F4FA8327C4FA8DC7AF
:102DC0000325C4FAEFF04F8E2324A4FA832784FA54
:102DD00083A707382322F4FA832784FA83A7873747
:102DE000832544FA7D4582970100F640E64256432A
:102DF000C6433644264596450646F2566257D25794
:102E00004258B258225E925E025FF24F2561730013
:102E10002030011122CE0010F32750302326F4FE7B
:102E20008327C4FE93F7F7032326F4FE0327C4FE8B
:102E30008D476303F7020327C4FE8D4763E2E70271
:102E40000327C4FE8547630BF7000327C4FE8947A9
:102E50006318F7008D4731A0914721A0854711A045
:102E600081473E85724405618280797122D60018BF
:102E7000232EA4FC232CB4FCF32750302326F4FE8D
:102E80008327C4FE93F707FC2326F4FE832784FDE3
:102E90002324F4FE0327C4FD91476305F7040327A9
:102EA000C4FD914763E8E7060327C4FD8D4763E34C
:102EB000E7060327C4FD8947637BF7008327C4FD2A
:102EC000A1C70327C4FD85476309F702A1A0832793
:102ED00084FE739077308327C4FE93E727007390B6
:102EE00057300DA8832784FE739077308327C4FE64
:102EF00093E737007390573031A8832784FE93E718
:102F000017007390573039A0832784FEF19B73908C
:102F1000573001000100325445618280011122CEF8
:102F200000102326A4FE0327C4FEFD4763C6E70264
:102F30000327C4FE8D476349F7028327C4FE054774
:102F40003317F700C57793878788F98FB337F00079
:102F500093F7F70F81EB09A80327C4FE9307000836
:102F60006314F700854719A0010081473E8572442C
:102F700005618280797106D622D40018232EA4FC24
:102F8000232CB4FC232AC4FC232604FE8327C4FD7F
:102F900099E3FD5749A8032784FDFD4763E0E7084F
:102FA000832784FD13972700B70701209387873B6A
:102FB000BA979C438287832744FD81C7EFE01FF8BF
:102FC0008DA0EFE03FF9B1A8832744FD81C7EFE072
:102FD000FFF981A8EFE01FFBA9A0832744FD81C76B
:102FE000EFE0DFFB3DA8EFE01FFD25A8832744FDB0
:102FF00081C7EFE0FFFD35A0EFE05FFF1DA0832755
:1030000044FD99C7832784FD3E85EFE0FFFF11A8AB
:10301000832784FD3E85EFF0EF8121A0FD57232615
:10302000F4FE8327C4FE3E85B2502254456182805F
:10303000797122D60018232EA4FC232CB4FC232A59
:10304000C4FC8327C4FD2326F4FE032784FDAD477B
:1030500063C2E702832744FD91CF0327C4FE832781
:1030600084FD9387870E8A07BA97032744FD98C388
:10307000814711A0FD573E853254456182807971A8
:1030800006D622D40018232EA4FC8327C4FD2322B5
:10309000F4FE832744FEDC43DDEF232604FEB9A0C3
:1030A000832644FE0327C4FEBA878607BA978E0795
:1030B000B69723A80708832644FE0327C4FEBA87D1
:1030C0008607BA978E07B69723AA0708832644FE79
:1030D0000327C4FEBA878607BA978E07B69723AC34
:1030E00007088327C4FE85072326F4FE0327C4FEB2
:1030F000FD47E3D7E7FA232404FE1DA0032744FE7F
:10310000832784FE9387870E8A07BA973727012083
:103110001307070698C3832784FE85072324F4FE3C
:10312000032784FEAD47E3DBE7FCF3275030232081
:10313000F4FEB707012093874713032704FE6318A3
:10314000F700B7270120938507300145393B8327D6
:1031500044FE0547D8C30100B25022544561828025
:10316000797106D622D40018232EA4FC232CB4FC9B
:10317000232AC4FC2328D4FC232604FE8327C4FD71
:103180002324F4FE032584FD513BAA8799E3D557F8
:103190005DA2032784FD930700086317F7009539A4
:1031A000AA8799C3CD5741AA832744FDB9CF0327E6
:1031B00084FD93070008631FF700832784FE03271D
:1031C00044FD23A8E738832784FE032704FD23ACAE
:1031D000E73885A2832684FE032784FDBA87860705
:1031E000BA978E07B697032744FD23A8E7088326DE
:1031F00084FE032784FDBA878607BA978E07B697A1
:10320000032704FD23ACE7082DA2032784FD9307C1
:1032100000086301F70C032784FD9307000863C7C8
:10322000E710032784FDFD4763C2E710032784FDF1
:10323000C1476350F70C032784FDAD47630BF70AC2
:10324000032784FDAD4763C3E70E032784FD8D4745
:103250006308F700032784FD9D476300F704F9A086
:10326000832684FE032784FDBA878607BA978E07D4
:10327000B697372701201307C71423A8E70883262A
:1032800084FE032784FDBA878607BA978E07B69710
:10329000032704FD23AAE70869A8832684FE0327E1
:1032A00084FDBA878607BA978E07B697372701201D
:1032B0001307472523A8E708832684FE032784FDF8
:1032C000BA878607BA978E07B697032704FD23AA05
:1032D000E70885A0832784FE372701201307E7230B
:1032E00023A8E738832784FE032704FD23ACE738AF
:1032F00089A0832684FE032784FDBA878607BA97B0
:103300008E07B697372701201307870723A8E708FA
:10331000832684FE032784FDBA878607BA978E0723
:10332000B697032704FD23AAE70821A0D157232637
:10333000F4FE8327C4FE3E85B2502254456182804C
:10334000011106CE22CC00102326A4FE2324B4FEB5
:10335000832784FE0546BE850325C4FE2139AA873E
:103360003E85F240624405618280011106CE22CC86
:1033700000102326A4FE2324B4FE832784FE0146E6
:10338000BE850325C4FEFD36AA873E85F240624411
:1033900005618280011106CE22CC00102326A4FEF6
:1033A000EFF03FA7AA873E85F24062440561828024
:1033B000011106CE22CC00102326A4FE2324B4FE45
:1033C000832784FE99EBB7270120938507300325D7
:1033D00084FEEFF09FA981470DA0032784FE854757
:1033E000631CF700B747012093850728032584FE57
:1033F000EFF0BFA7814711A0FD573E85F240624420
:1034000005618280011122CE00102326A4FE232410
:10341000B4FE2322C4FE81473E857244056182804A
:10342000397122DE80002326A4FC01458145232436
:10343000A4FE2326B4FEF32500B82322B4FEF32510
:1034400000B02320B4FEF32500B8232EB4FC0325DE
:1034500044FE8325C4FDE310B5FE832544FE2E887B
:103460008148931708000147832504FE2E86814674
:10347000B365C7002324B4FED58F2326F4FE0327AB
:1034800084FE8327C4FE3A85BE8572542161828002
:10349000797106D622D44AD24ED00018232EA4FC2D
:1034A0008327C4FD81E70149814921A80325C4FD83
:1034B000EFE0FF9C2326A4FE8327C4FE3E89FD8700
:1034C000BE894A87CE873A85BE85B25022541259AA
:1034D000825945618280797106D622D40018232E44
:1034E000A4FC814701482320F4FE232204FF032586
:1034F000C4FDEFE07F9B2326A4FE8327C4FE8DC777
:103500008327C4FE83A7C7132324F4FE832784FEE6
:1035100081CF832784FE9C43F847930704FE3E86B1
:103520008545032584FE0297032704FE832744FE76
:103530003A85BE85B250225445618280797106D6A3
:1035400022D426D20018232EA4FC2328B4FC232A3C
:10355000C4FCFD572326F4FE0325C4FDEFE0DF94F1
:103560002324A4FE832784FE8DCF832784FE83A794
:10357000C7132322F4FE832744FE85C7832744FE16
:103580009C43A44B0325C4FDEFE03F8DAA8703268F
:1035900004FD832644FDBE85032544FE8294232634
:1035A000A4FE8327C4FE3E85B25022549254456146
:1035B0008280011122CE00102326A4FE9387018170
:1035C0003E85724405618280011122CE00102326BF
:1035D000A4FE9D473E85724405618280011122CE82
:1035E00000102326A4FE938701813E857244056165
:1035F0008280011122CE00102326A4FE8D473E8535
:10360000724405618280797106D622D40018232E77
:10361000A4FC232CB4FCFD572326F4FE0325C4FD93
:10362000EFE09F882324A4FE832784FE9DC7832781
:1036300084FE83A7C70D2322F4FE832744FE91CF87
:10364000832744FE9C43F847930784FD3E868D45BF
:10365000032544FE02972326A4FE8327C4FE3E854D
:10366000B250225445618280797106D622D4001866
:10367000232EA4FC232CB4FCFD572326F4FE0325A3
:10368000C4FDEFE07F822324A4FE832784FE9DC730
:10369000832784FE83A7C70D2322F4FE832744FEDD
:1036A00091CF832744FE9C43F847930784FD3E86D1
:1036B0008945032544FE02972326A4FE8327C4FEE2
:1036C0003E85B250225445618280797106D622D45B
:1036D0000018232EA4FC232CB4FC232604FE03256F
:1036E000C4FDEFE06FFC2324A4FE832784FE9DC766
:1036F000832784FE83A7C70D2322F4FE832744FE7D
:1037000091CF832744FE9C43F847930784FD3E8670
:103710009145032544FE02972326A4FE8327C4FE79
:103720003E85B250225445618280011106CE22CCE2
:1037300000102326A4FE0325C4FEEFE0EFF6AA87BF
:103740003E85F240624405618280797106D622D4BA
:103750000018232EA4FC232CB4FC232AC4FC03252C
:10376000C4FDEFE06FF42326A4FE8327C4FE99CBAB
:10377000032644FD832584FD0325C4FEEFF05F8B03
:10378000AA8711A0FD573E85B25022544561828020
:10379000011122CE00102326A4FE2324B4FE832789
:1037A00084FE83D7070013F737008D476314F700B3
:1037B000914711A089473E857244056182807971E5
:1037C00022D60018232EA4FCF32710342326F4FE5F
:1037D0008327C4FE3E85325445618280011122CE8A
:1037E00000102326A4FE2324B4FE832784FE7390B6
:1037F000173481473E85724405618280011106CEEF
:1038000022CC00102326A4FE0325C4FEEFE06FECBB
:10381000AA873E85F240624405618280011122CE72
:1038200000102326A4FEB70700809387C7063E85B5
:10383000724405618280011122CE00102326A4FE6D
:10384000938701823E85724405618280011122CEF8
:1038500000102326A4FE81473E85724405618280C4
:10386000411122C60008B7170120938747D83E852B
:10387000324441018280397106DE22DC8000232639
:10388000A4FC0325C4FC593F2326A4FE0325C4FC45
:10389000753F2324A4FE0325C4FC713F2322A4FE0C
:1038A000C1372320A4FE832704FE9C43832584FE86
:1038B000032544FE8297232EA4FC0327C4FDB707EB
:1038C0000040F98F99E3FD5725A08327C4FD63C409
:1038D0000700FD5731A80325C4FEEF00700BAA872F
:1038E0003E878327C4FD93F7F7038507B357F70295
:1038F0003E85F250625421618280011106CE22CCB5
:1039000000102326A4FE2324B4FE0325C4FEA537FD
:10391000AA873E85F240624405618280011122CE71
:1039200000102326A4FEB7070080938707063E8574
:10393000724405618280011122CE00102326A4FE6C
:10394000938701823E85724405618280011122CEF7
:1039500000102326A4FE91473E85724405618280B3
:10396000411122C60008B7170120938747D83E852A
:10397000324441018280397106DE22DC8000232638
:10398000A4FC0325C4FC593F2326A4FE0325C4FC44
:10399000753F2324A4FE0325C4FC713F2322A4FE0B
:1039A000C1372320A4FE832704FE9C43832584FE85
:1039B000032544FE8297232EA4FC0327C4FDB707EA
:1039C0000040F98F99E3FD5721A88327C4FD63C404
:1039D0000700FD5731A00325C4FEEF00607BAA87D6
:1039E0003E85F250625421618280011106CE22CCC4
:1039F00000102326A4FE2324B4FE0325C4FEA53F05
:103A0000AA873E85F240624405618280011122CE80
:103A100000102326A4FEB7070080938707463E8543
:103A2000724405618280011122CE00102326A4FE7B
:103A3000B70700809387C7463E8572440561828040
:103A4000011122CE00102326A4FE938701823E8519
:103A5000724405618280011122CE00102326A4FE4B
:103A6000B1473E85724405618280411122C600083B
:103A7000938701823E85324441018280411122C6F2
:103A80000008A1473E85324441018280411122C68F
:103A90000008B727F400938707403E853244410170
:103AA0008280411122C60008B78700103E8532444B
:103AB00041018280411122C60008B7170120938777
:103AC00047D83E85324441018280011122CE001048
:103AD0002326A4FE2324B4FE832784FE9C470327C9
:103AE000C4FE6369F700832784FEDC470327C4FE16
:103AF00063F4E700FD5729A8832784FE98438327B2
:103B0000C4FE3307F702832784FEDC43B357F70272
:103B10003E85724405618280397106DE22DC8000B8
:103B20002326A4FC8327C4FC3E85F53D2326A4FE62
:103B3000B13F2324A4FE99372322A4FE9D372320DE
:103B4000A4FE032704FE832744FEBA97232EF4FC29
:103B50008327C4FCDC433E85DD2B8327C4FD9843CB
:103B6000C167F98F91CB8327C4FD9843C177FD17B7
:103B70007D8F8327C4FD98C38327C4FE91CB832701
:103B8000C4FD9843B70702005D8F8327C4FD98C327
:103B90008327C4FC9C43D8438327C4FC832584FE2D
:103BA0003E8502978327C4FC9C473E854D23010038
:103BB000F2506254216182801D7186CEA2CC8010A9
:103BC0002326A4FA0325C4FAB93D2326A4FE03251F
:103BD000C4FA2D3D2324A4FE0325C4FA453523222F
:103BE000A4FE0325C4FA51352320A4FE0325C4FAFC
:103BF0009D35232EA4FC0325C4FA9935232CA4FC5F
:103C0000553D232AA4FC832744FD9C43832544FE81
:103C1000032504FE82972328A4FC832744FD9C43AC
:103C20008325C4FD032584FD82972326A4FC032756
:103C300004FDC1677D8FC1676377F700032584FEAC
:103C4000812BAA87D9A8032704FDB70702007D8F1F
:103C5000B70702006365F7008327C4FE19A0832716
:103C600084FE3E8535232324A4FC032704FDB707E7
:103C700004007D8FB70704006365F700832784FC89
:103C800069A8832704FD9D8B85072322F4FC8327E5
:103C900004FD93F7073F9183850786072320F4FCF3
:103CA000032704FD8567938707C07D8F9307F03F47
:103CB00063E4E700FD5795A0032704FD856793871C
:103CC00007C0F98FA9830547B317F700232EF4FA2D
:103CD000032784FC832744FC3347F702832704FC33
:103CE0003307F7028327C4FBB347F702232CF4FA08
:103CF0008327C4FC13F707109307F00F63F5E70061
:103D0000832784FB19A8032784FB8327C4FC93F72C
:103D1000F70385078607B357F7023E85F6406644EA
:103D200025618280397106DE22DC80002326A4FC16
:103D30002324B4FCFD572326F4FEB707008093C765
:103D4000F7FF2324F4FE930730042322F4FEADA0F2
:103D50008326C4FC832744FE13975700B70701202E
:103D60009387074EBA97BE85368585332320A4FEF8
:103D7000032704FEFD57630CF702032704FE832785
:103D800084FC1D8F9357F7413D8FB307F740232ED7
:103D9000F4FC0327C4FD832784FE635AF7008327BE
:103DA00044FE2326F4FE8327C4FD2324F4FE832748
:103DB00044FEFD172322F4FE832744FEE3DA07F8CE
:103DC0008327C4FE3E85F25062542161828079715E
:103DD00006D622D40018232EA4FC232CB4FC232ABC
:103DE000C4FC8327C4FD9C4313F787FF8327C4FDCE
:103DF00098C38327C4FD9843832744FD9C4B9D8B28
:103E00005D8F8327C4FD98C38327C4FD9C4313F7AC
:103E1000F7C08327C4FD98C38327C4FD9843832735
:103E200044FDDC4B920793F7073F5D8F8327C4FD6A
:103E300098C38327C4FD9843FD779387F73F7D8F11
:103E40008327C4FD98C38327C4FD9843832744FD7B
:103E50009C4F9396A7008567938707C0F58F5D8F6A
:103E60008327C4FD98C3832744FDDC4F63DB07022F
:103E7000832784FD9C4313E70710832784FD98C3A1
:103E8000832784FD9C4313F707FC832784FD98C395
:103E9000832784FD9C4313E71700832784FD98C381
:103EA0002DA8832784FD9C4313F7F7EF832784FD18
:103EB00098C3832784FD9C4313F707FC832784FD65
:103EC00098C3832784FD9843832744FDDC4F93F7F1
:103ED000F7035D8F832784FD98C38327C4FD984330
:103EE000B707FCFFFD177D8F8327C4FD98C3930799
:103EF00004FE3E86854513850181EFD0DFDB032676
:103F000004FE832644FE114581453307A6003A8806
:103F10003338C800B387B600B306F800B687232449
:103F2000E4FE2326F4FE09A8930704FE3E86854599
:103F300013850181EFD03FD8032704FE832744FE79
:103F40008326C4FE3E8663ECC6008326C4FE3E86FE
:103F5000E39CC6FC832684FEBA87E3F7F6FC0100E7
:103F60008327C4FD9C43E3DD07FE01000100B2503E
:103F70002254456182805D7186C6A2C48008232ECA
:103F8000A4FA232CB4FA0325C4FBEFF0DFA92326FF
:103F9000A4FE0325C4FBEFF07FA72324A4FE032582
:103FA000C4FBEFF0BFAD2322A4FE0325C4FBEFF05A
:103FB0009FAA2320A4FEEFF0DFAE232EA4FC03274C
:103FC000C4FD832744FEBA97232CF4FC0327C4FDC9
:103FD000832704FEBA97232AF4FC832784FD9843A1
:103FE000C167F98F91CB832784FD9843C177FD1773
:103FF0007D8F832784FD98C3832784FD9843B7076B
:104000000200F98F81C78327C4FE19A0832784FE8D
:104010003E85BD2A2328A4FC032704FDBA87860712
:10402000BA9713D7F7410D8BBA9789873E878327B5
:1040300084FB63CBE702032704FDBA878A07BA979C
:1040400013D7F7410D8BBA9789873E87832784FB67
:10405000634CF700832784FD9843B70704005D8F06
:10406000832784FD98C3B1A0832584FB032504FD29
:1040700055392326A4FC0327C4FCFD576302F7022D
:104080008327C4FC13975700B70701209387074E77
:10409000BA973E86832544FD032584FD0D3B11A878
:1040A000832784FD9843B70704005D8F832784FD31
:1040B00098C3832784FD9843C1675D8F832784FD60
:1040C00098C30325C4FBEFF03FAFAA873E85B640F7
:1040D000264461618280411122C60008B787001022
:1040E0003E85324441018280797106D622D400187F
:1040F000232EA4FC232CB4FCF93FAA872326F4FE2C
:10410000032784FD8327C4FEBA979C433E85B250A3
:10411000225445618280797106D622D40018232E5C
:10412000A4FC232CB4FC232AC4FC7537AA872326BD
:10413000F4FE032784FD8327C4FEBA973E878327B6
:1041400044FD1CC33E85B250225445618280797182
:1041500006D622D40018232EA4FC8327C4FD2326D0
:10416000F4FE31A88327C4FE98438327C4FEDC43B2
:104170003E8502978327C4FE9C472326F4FE8327AF
:10418000C4FEEDF301000100B2502254456182806B
:10419000011106CE22CC00102326A4FE8327C4FEE4
:1041A0009C439C430325C4FE8297AA873E85F24028
:1041B000624405618280797106D622D40018232ECC
:1041C000A4FC232CB4FC8327C4FDDC433E8541378B
:1041D0008327C4FD9C43DC43832584FD0325C4FD64
:1041E00082972326A4FE8327C4FD9C473E858537FE
:1041F0008327C4FE3E85B25022544561828001115E
:1042000006CE22CC00102326A4FE8327C4FE9C43A6
:10421000DC570325C4FE8297AA873E85F24062449C
:1042200005618280011122CE00102326A4FE83277F
:10423000C4FE89EB0327C4FE0A079387C180BA979F
:104240009C4311A081473E85724405618280011123
:1042500022CE0010F32740F12326F4FE8327C4FE6C
:104260003E85724405618280011122CE0010232612
:10427000A4FE0100FDBF00000000000000000000DF
:104280006FD01FE16FD0DFE06FD09FE06FD03FE3D2
:104290006FD01FE06FD0DFDF6FD09FDF6FD05FF197
:1042A0006FD01FDF6FD0DFDE6FD09FDE6FD05FDE9D
:1042B0006FD01FDE6FD0DFDD6FD09FDD6FD05FDD91
:1042C0006FE02FA36FE00FAC6FE0EFB46FE0CFBDF6
:1042D0006FE0AFC66FE08FCF6FE06FD86FE04FE158
:1042E0006FE02FEA6FE00FF36FE0EFFB6FE0DF842A
:1042F0006FE0BF8D6FE09F966FE07F9F6FE05FA8DC
:10430000011122CE00102326A4FE0327C4FEB70706
:104310000080938707066317F700B727F400938799
:10432000074099A00327C4FEB70700809387C706FC
:104330006317F700B7A74A049387072035A0032720
:10434000C4FEB7070080938787076314F700A1674F
:1043500021A80327C4FEB70700809387470863148A
:10436000F700A16711A081473E85724405618280F4
:10437000011106CE22CC00102326A4FE0325C4FE84
:104380004137AA873E85F24062440561828001116F
:1043900006CE22CC00102326A4FE2324B4FE03253F
:1043A000C4FEF937AA873E85F240624405618280E7
:1043B000011106CE22CC00102326A4FE0325C4FE44
:0243C000653561
:1043C80000000000000000000000000000000000E5
:1043D80000000000000000000000000000000000D5
:1043E80000000000000000000000000000000000C5
:1043F80000000000000000000000000000000000B5
:1044080000000000000000000000000000000000A4
:104418000000000000000000000000000000000094
:104428008C0D012000000000000000008C0D012010
:1044380000000000000000008C0D012000000000BA
:10444800000000008C0D01200000000000000000AA
:1044580038040120000000000000000000000000F7
:104468000000000000000000000000000000000044
:104478000000000000000000000000000000000034
:104488000000000000000000000000000000000024
:104498000000000000000000000000000000000014
:10482800740D012000000000000000007C0D012034
:104838000000000000000000640D012000000000DE
:1048480000000000000000000024F4000040000206
:10485800F8BF0002A00400805403012000000000FB
:0C4868009C04012000000000840D0120D1
:0400000520010000D6
:00000001FF
